:020000040800F2
:10000000701F0020C1C8000885C7000887C7000806
:1000100000000000000000000000000000000000E0
:1000200000000000000000000000000089C7000878
:100030008BC70008000000008DC700085159000858
:10004000CB1D0008F7210008EF3A00084F3B0008DD
:10005000A74600088FC70008ADC70008DB460008A8
:10006000EF4700086B5B0008D361000813640008C9
:10007000B36C0008D76E000800000000D7850008A8
:1000800000000000B587000800000000000000002C
:10009000C100000800000000F76E00080F7500089E
:1000A00013750008DF810008D39A0008FB9A000846
:1000B00009640008879B0008D7A60008DBA6000893
:1000C000C248C16801220B69134006D0CB681340B7
:1000D00003D042700120C0430861704780B501F031
:1000E00023FD83B2944ABA4905E080B502F010F8C6
:1000F0000300974A9749C44802F058FA01BDF8B581
:1001000002F003FF040002F0CCFF450002F0F4FF10
:10011000281803F0E9F80022BC4B03F0F5F80600BC
:100120000F00200003F0E0F802000B00300039005F
:1001300003F0ACF903F00BFAF2BD1CB5B448B421DE
:1001400049004418A1781D2911DA21780C22514365
:1001500042180421FA2003F03DFB2078401C1E21A8
:1001600003F0C6FC2170A078401CA07013BD6A4645
:100170000421FA2003F02EFB13BD80B502F062FFCC
:100180000300734A8949BF48B6E71FB56C46002093
:1001900003F0BCFE2080012003F0B8FEA070022016
:1001A00003F0B4FE0190032003F0B0FE207204209F
:1001B00003F0ACFE6072052003F0A8FEA0720620DA
:1001C00003F0A4FEE072072003F0A0FE20730820D5
:1001D00003F09CFE6073684603F00CFFCC4953E0CB
:1001E00080B594B010A803F08DFF10A8417B0F914B
:1001F00088490E91017B0D9187A10C91C17A0B91D9
:1002000086490A91817A099185490891417A079135
:1002100084490691017A05918349049111990391CA
:100220008249029181780191974900910388974A08
:100230009749C24802F0BAF915B000BD1FB56C4627
:10024000002003F063FE2080012003F05FFEA07019
:10025000022003F05BFE0190032003F057FE2072A2
:10026000042003F053FE6072052003F04FFEA072DD
:10027000062003F04BFEE072072003F047FE2073D8
:10028000684603F0CBFF8349C74802F08FF91FBDD2
:1002900080B592B00EA804F047F80EA8017B0D912E
:1002A0005C490C91C17A0B915BA10A91817A099109
:1002B0005B490891417A07915A490691017A059163
:1002C000594904910F9903915849029181780191FC
:1002D0006D49009103886D4A9349BF4802F066F961
:1002E00013B000BD1CB56C46002003F00FFE20705B
:1002F000012003F00BFE6070022003F007FEA070E7
:10030000684604F079F8C449BAE100B585B004A89C
:1003100004F0EDF804A881780391894902914178AD
:100320000191924900910378914A9249C04802F0A4
:100330003DF905B000BD0000C4BC000880B5002038
:1003400003F0E4FD80B203F032FFBF4913E0000088
:10035000E4BC0008D0BC000880B503F041FF0300F6
:10036000924ABA49C7E680B5002003F0CFFD80B2BB
:1003700004F017F899498C4802F018F901BD80B5CE
:1003800004F023F80300894AC749B4E680B5002089
:1003900003F0BCFD80B204F029F9C449EBE780B555
:1003A00004F036F90300814AC649A4E604BD0008FA
:1003B00080B5002003F0AAFD002802D101F006FE5E
:1003C00001E001F0F1FDC549D5E70000500600202D
:1003D000ACBC000880B586B004AA04A9491C05A8D5
:1003E00001F004FE6846007C03909948029068463C
:1003F000407C019097480090059B974AA249BF48CE
:1004000002F0D4F807B000BD94BC000800408F4053
:10041000FC170020D4BD000866656300CCBD000851
:10042000C0BD0008B4BD0008A8BD00089CBD000800
:1004300000B585B0002003F069FD0090012003F0B5
:1004400065FD69460871022003F060FD02900320FB
:1004500003F05CFD0390042003F058FD0490052098
:1004600003F054FD002801D102F09BFD684602F024
:1004700063FB03009A4A9B49024802F097F805B0D3
:1004800000BD0000ECBC000890BD000880BD000865
:100490006CBD0008E0BD000800B58FB00AA802F0EE
:1004A0001BFC02F07EFD0990954808900E9807907D
:1004B0009B4806900D9805909A4804900C980390DC
:1004C000994802900AA800790190984800900A9BE8
:1004D000974A9849B74802F069F80FB000BD80B557
:1004E00002F05FFD0300314A9349B34804E680B54A
:1004F000002003F00BFD02F091FCB0493BE780B512
:1005000002F0DCFC0300294AA549AB48F4E50000F1
:1005100028BD000880B5002003F0F8FCC0B202F04E
:1005200019FDAA4927E7000024BE000880B502F0A3
:1005300023FD03001D4AA249A548DDE53CBD000896
:100540008CBE000810B504F07FF804009D499E4859
:1005500002F02CF8200004F09BF804F0A5F802004B
:100560000B0012499B4804F0B9F810BD80BE00088A
:1005700078BE000864BE000810B5002003F0CBFC74
:100580000400012003F0C2FC2100C0B202F00CFD07
:1005900091491DE080B5002003F0B8FCC0B202F024
:1005A0002FFD8E49E7E6000014BD0008E4BC0008FA
:1005B00010B5012003F0AAFC0400C0B202F020FD37
:1005C000002003F0A8FC0100E0B202F0EDFC844939
:1005D000844801F0EBFF10BDF4BD0008D8BE000850
:1005E00080B5002003F092FCC0B202F0ECFC04F0F5
:1005F0004FF87D4904F086F804F0DCF803007B4AEC
:100600007B497C4878E580B5002003F07FFCC0B2D0
:1006100002F083FD7849AEE638BE000880B50020C0
:1006200003F074FCC0B202F025FEB949A3E6000055
:1006300048BE000880B5002003F068FCC0B202F09C
:100640003FFEB84997E6000098BE0008B8BE000813
:10065000B8BF0008B0BF0008A8BF00081CB56C46B2
:10066000002003F053FC2070012003F04FFC607069
:10067000022003F04BFCA070684604F0B9F85F4913
:10068000584801F093FF13BD90BF000810B500203B
:1006900003F03CFC0400012003F038FCC1B2200050
:1006A00004F0BAF8A94993E7F8BE000818BF00089B
:1006B00080B5684604F0E2F8009B4C4A9A493E48EF
:1006C0001AE5000038BF000880B5002003F01EFCCA
:1006D000C0B204F00CF99E494DE6000058BF000876
:1006E000D4BF0008C4BF000880B5002003F00EFC92
:1006F000C0B204F01BF997493DE6000070BF000846
:1007000074C0000810B504F039F9040004F046F98B
:1007100023020343354A9049904801F047FF10BD3A
:1007200058C0000844C0000838C000082CC00008A9
:100730001CC0000808C000089CC00008F0B589B0C3
:1007400001A88749202204F049F968460021018068
:1007500000260224002501AF0FE02E280BD17819C6
:10076000407869460870684604F0ECF9E10088407A
:1007700030430600641E6D1CEDB2785D0028ECD19C
:1007800033001A4A77490C4801F010FF09B0F0BD58
:1007900080B5002003F0BAFB734988707349EAE51D
:1007A000D4C0000880B5002003F0B0FB6E49C870CB
:1007B0006F49E0E5DCBF000884C00008B8C000084D
:1007C00008C1000830C1000820C10008F0C00008BE
:1007D000ECBC000844C1000854C100086CC100080A
:1007E00088C1000814BD000800002041E4BC0008D6
:1007F000B8C10008A0C10008D0C1000810C200089C
:10080000F0B585B05F4CFF206A3027180025564EA2
:10081000002003F07BFB000631D07079002802D164
:1008200030790028F9D0307900280CD175713571F4
:10083000672003F005F8712003F002F8B649B748C5
:1008400001F0B4FE62E0FFF778FC357138780C21D6
:100850004843201804F0A6F939780C2251432200AD
:1008600008325258434B5A43231D595A511801918B
:10087000414900910300414AA949414829E03079A2
:10088000002802D0FFF759FC3571A64EA64D7878A6
:1008900000282DD068467978017438780C214843B7
:1008A000201804F07FF939780C2251436A46127CF3
:1008B000039202952200083252582E4B5A43231DB0
:1008C000595A511801912C49009103002B4A94491F
:1008D000300001F06BFE7878002817D03878401C83
:1008E0001E2103F005F939707878401E78700DE00C
:1008F0007C7804F07DF90394029501901E480090E5
:1009000000231E4A8649300001F050FE05B0F0BDBC
:10091000E0C1000880B5002003F0F8FA01F081FB87
:10092000824928E5F8C1000828C2000880B50020E7
:1009300003F0ECFAC0B201F011FB012003F0E6FA7B
:10094000C0B201F020FB7A4915E5000020C2000882
:100950003CC2000864C200088CC2000894BC0008B5
:100960009CC20008BCC2000850060020D0C200088B
:10097000E0C2000850C3000018C300080CC3000800
:10098000F0C20008FC170020F8B584B006000D0086
:100990000020694648708024019408E03878401CA3
:1009A0001E2103F0A5F839707878401E78706148F0
:1009B000FF216A31471878780028EFD103F0EEFF65
:1009C000204201D16020019034000198A8420EDA43
:1009D0000121080203F020FF002003F0B9FF2100ED
:1009E0000198C0B202F058FF019EF6B20CE000215F
:1009F0008020400003F010FF002003F0A9FF210039
:100A0000E8B202F049FF2E006A4601213F2002F0C1
:100A1000E1FE684600784006400E401E69460870B8
:100A200045488078012808D1622004F0EDFE039447
:100A3000684645804578340010E06020F5E70021E5
:100A40008020400003F0E8FE310068464088001B2B
:100A5000401CC0B202F020FF684644883648407906
:100A6000002803D1344800790028F7D03248407973
:100A7000002809D00020304948712749274801F053
:100A800095FDFF2005B0F0BD2B490871FFF755FB20
:100A9000284E38780C2141430291B11C029A895C9E
:100AA000C90700D50125401C1E2103F021F802983A
:100AB0003018C078062202400CD039707978491E6F
:100AC00079701D488078032802D0722002F0B8FEA9
:100AD0000020D7E739707878401E78702800BDD0A4
:100AE00000250398061968464088001B6946097866
:100AF0004018401C01998842A1DB310001986A46E8
:100B00001278801AC0B202F0C7FE01982018694618
:100B10000978441AA4B2A1E720C3000814BD000854
:100B200028C300083CC3000860C300086CC3000869
:100B300088C30008FC17002050060020F8B5070005
:100B400002F06AFB050000246A460121402002F001
:100B500041FE00AA521C0121302002F03BFE6846F3
:100B60004078E021014068464170102638783042D4
:100B700001D00120F2BD002904D0F878304201D024
:100B80000220F2BD68460078000704D502F059FB48
:100B9000A84200D0012468460078400704D502F03E
:100BA0005AFBA84200D0641C68460078800704D530
:100BB00002F04CFBA84200D0641C200612D0E4B224
:100BC000684600788107C80F694609784907CA0F47
:100BD0008018694609780907CA0F8018844201D134
:100BE0000320F2BD6846007830420DD002F038FB99
:100BF000040002F016FB0500254002F036FB04401D
:100C0000A54201D00420F2BD3878800601D5062027
:100C1000F2BD0020F2BDF8B586B007000E0014004A
:100C200000206A4610700190A648FF216A314518DD
:100C300008E02878401C1E2102F05AFF29706878CD
:100C4000401E687068780028F3D10396012148029D
:100C500003F0E2FD012003F07BFE9B4EF0780128BB
:100C600021D1622004F0D0FD0297684644800778C5
:100C7000019C7079002802D130790028F9D0707970
:100C8000002815D000207071F078032805D0672067
:100C900002F0D6FD712002F0D3FD8C498C4801F0A2
:100CA00085FCFF200BE1F0780028DDD16120D9E739
:100CB00001903071F078022806D100F029FF8128D8
:100CC00002D1012001F05EFAFFF737FA7D4829785A
:100CD0000C225143401881780220014200D00127A4
:100CE000029A121905926A465288C44B9A424FD111
:100CF000890608D50199F26851623189491EC04AB6
:100D000011600199717029786E4A0C234B43D218F7
:100D10000492D278D30734D52700481C1E2102F054
:100D2000E7FE29706878401E6870002180208000EE
:100D300003F072FD03F0C6FD040002D0059902F035
:100D4000DDFD3C1903990C8003F03AFFF07802288E
:100D500002D0F078032813D10298A4B2021901211D
:100D6000A22002F037FD642004F04EFD00F0D0FE1A
:100D7000812805D10A2004F0F0FD002001F002FADC
:100D80009CE0F178022901D0024209D1F0780228D2
:100D900032D11020024203D10499097801422BD0AC
:100DA00003F00EFF00218020800003F035FD71204C
:100DB00002F046FD6A460421FA2002F00BFD03987A
:100DC0000480F078022802D0F07803280CD1642047
:100DD00004F01AFD00F09CFE812805D10A2004F0E1
:100DE000BCFD002001F0CEF9364829780C22514391
:100DF0004018FFF7A3FE62E02878401C1E2102F095
:100E000077FE29706878401E6870380600D130E798
:100E1000019F03F057FD01902018FF21F631884211
:100E200016DA0198401E012805DB05990198401E3D
:100E3000C0B202F063FD01982018441EA4B26846B7
:100E40004088844200DA14E7672002F0F9FC26E0CB
:100E5000672002F0F5FC08E02878401C1E2102F013
:100E600047FE29706878401E687068780028F3D1C2
:100E700003F0A6FE712002F0E3FC6A460421FA208A
:100E800002F0A8FC03980480072018E02878401C92
:100E90001E2102F02DFE29706878401E6870687867
:100EA0000028F3D103F08CFE712002F0C9FC6A46E1
:100EB0000421FA2002F08EFC03980480002007B081
:100EC000F0BD0000FC1700205006002020C30008E1
:100ED00014BD0008FEB505000E0008E02078401C97
:100EE0001E2102F005FE21706078401E6070C74828
:100EF000FF216A31441860780028EFD13400A0B295
:100F0000602809DA002081B2B142F8D2695CA2B24D
:100F1000A954641C401CF6E72900602002F0BCFCC8
:100F2000602004F071FCBA480190029500256846E3
:100F30000480602405E0C0B202F0AEFC6034A41B63
:100F4000A4B2B9484179002902D101790029F8D029
:100F50004179002904D00020B349487100F067FCB2
:100F600000260671FFF7E9F8A849019800780C22DD
:100F7000424389188978C90700D50125401C1E21E4
:100F800002F0B6FD0198017001984078401E019969
:100F900048702800D5D0002503F099FC0600602099
:100FA000871B029801196020801B6A461288121B59
:100FB0009042C0DB68460088001BC0B202F06CFCA7
:100FC000029968460088381A0019C0B202F064FC21
:100FD0006020801B69460988401A0419B0E710B5E3
:100FE000924C0023FF222100002002F0BBFF0100F1
:100FF0002000FFF7C9FC8E49FFF7EAFAFFFF000067
:101000002C080140F8B584B0002002F07FFF029068
:10101000012002F07BFF03900023FF22834902207E
:1010200002F0A0FF0190002700257F4C2771784E29
:10103000A078032824D06A4600A9891C0298FA23C4
:10104000DB01584304F0EEFB7A48694609880A1828
:1010500092B269464988091889B220000C3004F020
:1010600025FC20000C3004F0F4FC00976CE0307894
:10107000401C1E2102F03CFD31707078401E7070E3
:1010800070780028F3D16A460421FA2002F0A2FB0E
:101090000298FA218900484300F0C3FF002000F0C5
:1010A00072FF012000F05AFF60490198C0B202F0BF
:1010B000F3FB602004F0A8FBD7E767715E495F4847
:1010C00001F074FAFF25002000F048FF622004F0D0
:1010D0009BFB672004F098FB6A460421FA2002F08B
:1010E00079FB722002F0ACFB20000C3004F0D0FC45
:1010F000A078032810D1002000F030FF622004F017
:1011000083FB672004F080FB6A460421FA2002F08A
:1011100061FB622004F078FBFF2D03D0484947486B
:1011200001F044FA05B0F0BD67704048019989B2FA
:10113000FFF72AFC0500FF28D6D03D493F4801F0C3
:1011400035FA0098401C0090009803998842CBD251
:10115000A07803282FD0A078012805D1632004F0BF
:1011600053FB602004F050FB6079002802D16078C6
:101170000028F9D060790028D6D0677120000C30A3
:1011800004F086FCA078012813D1622004F03CFB17
:101190002C4C69460F7003E068460078401C0870CC
:1011A00068460078FF28F7D104F0E0FC207840087A
:1011B000EFD12149B3E76079002802D120790028D6
:1011C000F9D06079002800D077E72771FEF7B5FFE6
:1011D0000E4930780C2242438918C97806220A4009
:1011E000ABD0401C1E2102F083FC31707078401E91
:1011F00070700E490198C0B202F04EFB642004F0FA
:1012000003FB9AE780B51049FFF7B5F8FC170020FB
:101210006519002080B5002002F078FE02490870B0
:101220000A49FFF7A8F8000050060020E812002045
:101230009CC30008FFFF000020C3000814BD000885
:10124000ACC300085A1B0020C0C30008CCC3000870
:10125000F0B591B000250A95002002F057FE0690E7
:10126000012002F053FE0B9069460D75CA4C2571A2
:10127000CA4D08E02878401C1E2102F039FC297074
:101280006878401E687068780028F3D1E0780328F9
:1012900064D105AA921C0121462002F09BFA00208D
:1012A0006946087505AA0121462002F064FAFEF796
:1012B00026FF0500069803F0DBF9290004F0A4FCE2
:1012C00003F0F2F90022B64B04F0F6FC04F0CEFD78
:1012D00006000698FA218900484300F0A2FE01ABFF
:1012E00001AA521C01A9891C06A800F0BCFE684690
:1012F000457900F00DFF0700684602790092300042
:1013000003F0B6F90600380003F0B2F9310003F03B
:10131000F9F90600012069460979884003F0B8F917
:101320000100300004F0B9FDC84904F0B6FD060024
:10133000681C03F0ADF90100300004F0AEFD03F0CD
:1013400039FA401E009A2900C0B200F0C1FE012007
:1013500000F019FE012000F001FE57E00698002879
:1013600054D005AA921C0121462002F033FA002035
:101370006946087505AA0121462002F0FCF9FEF72E
:10138000BEFE0500069803F073F9290004F03CFC4A
:1013900003F08AF90022AE4B04F08EFC04F066FDE7
:1013A0000500AC4FFA26B60007AA921C08A90191C5
:1013B0000292069900913868310002F0ADFB009965
:1013C00041430800029A019904F02CFA6846008C07
:1013D000E0803868310002F09FFB45432800E18837
:1013E00002F09AFB20810121480303F015FAC1485D
:1013F00021890A1892B2E188091889B220000C30BC
:1014000004F054FA20000C3004F023FBE0780128AB
:1014100005D1632004F0F8F9612004F0F5F9E078D3
:10142000022802D0E078032804D100200690612031
:1014300004F0EAF9002709970B98401E0C900DAEB6
:1014400067E0AD48009A515C01F0B0F86D1C684649
:10145000828BA9B2501E8142F3DBA848A8498918A3
:10146000491E097801F0A2F8A6A001F09FF8A6494C
:10147000A6486A46527D01F099F82078002832D0BB
:101480000DAA10219C2002F0A5F97078A04BA1496B
:10149000A14AF57B04950392B27B02920191410728
:1014A000CA0F00928207920F9C499D4801F07EF876
:1014B0009C489D499DA3B27A1206F57A5219357B54
:1014C0001035AA40757B0835AA4000927279120740
:1014D000120F01F06BF896A09649327A737A0833AE
:1014E0009A4001F063F803F083FB020092489349AD
:1014F00001F05CF883A001F059F8E078012805D1EB
:10150000632004F081F9612004F07EF90998401C01
:10151000099009980B9988424BD20698002801D06F
:101520000998002800D19FE06079002802D16078F6
:101530000028F9D06079002800D18DE06771200083
:101540000C3004F0A5FAE068476200218020800199
:1015500003F062F9E078012802D0E078022813D184
:10156000622004F051F9764C69460F7003E068463A
:101570000078401C087068460078FF28F7D104F016
:10158000F5FA20784008EFD1672002F059F9712070
:1015900002F056F9A84953E05006002065190020D2
:1015A000000020C005AA521C0121A22002F012F95D
:1015B00090E0E078022802D0E078032832D10023BE
:1015C0000A220A21032004F023FD002000F0C6FCBB
:1015D000002000F0B4FDE078032805D1672004F076
:1015E00013F9622004F010F9207900281AD027712D
:1015F00000F08EFA812802D1012000F0C3FDFEF731
:101600009CFD8E4D2878401C1E2102F071FA297035
:101610006878401E687000F07BFA812802D10020B3
:1016200000F0B0FD20000C3004F032FA00218020E0
:10163000800103F0F1F80A98C0B2FF2803D0804976
:10164000804800F0B3FF11B0F0BD00BF00007A4445
:10165000000010C0B80600206770E0684762684666
:10166000C08B401E9F49086025480090214A07A969
:10167000FFF7D1FA0A90FF289BD00698002802D1E4
:10168000E078032808D10998002805D105AA921C02
:101690000121462002F06FF82078002809D0069832
:1016A000002806D109980C99884202D0612004F0E4
:1016B000ABF88D488D4900F079FFE078022803D01F
:1016C000E078032800D06DE700986946898B405C7C
:1016D000694648750D489F490A9A00F067FF0A98C5
:1016E000002800D0C3E6A748CE4900F05FFF0025E0
:1016F000ADE600BFFFFF000020C4000828C40008BA
:10170000E81200207D0D0A0030C4000808C400085B
:1017100050C4000858C4000864C4000848C4000845
:1017200038C4000870C4000878C4000863726300FD
:101730002674780084C4000890C4000818C3000808
:101740005A1B0020FEB5002002F0E0FB0400002040
:101750006946887001F0A0FD69464870202001F0BC
:1017600089FD6A460121462002F034F800AA921C45
:101770000121462001F0FFFF612004F045F801AA95
:1017800001A9891CFA20C0014443200004F04AF852
:101790007D4C5748694689880A1892B26946C988BB
:1017A000091889B220000C3004F080F820000C30B9
:1017B00004F04FF99C4E9D4F0DE09D4D642102F0C9
:1017C000ABF902F055FF04F0F1FC03003A003100E0
:1017D000280000F0EBFE6079002802D16078002834
:1017E000F9D09F4D2A006521EF2001F0F3FF002280
:1017F000002001216B5CC018491C6429FAD9627071
:1018000061790029D9D00025657120000C3004F0E1
:101810003FF9E0684562672002F012F868464078B8
:1018200001F028FD6A460121462001F0A4FF02498B
:10183000924800F0BBFEF7BD20C3000865190020E8
:1018400098C4000814BD0008F8B5002002F05EFB43
:10185000050003F02EF8824CAAB200A9891C2000D2
:10186000FFF7D9F905006A460121A22001F0B2FF75
:10187000FF2D36D01D491C4800F098FE804E2A00EE
:101880003449300000F092FE684602786749300023
:1018900000F08CFE7BA7002D19D16249394800F079
:1018A00085FE794E04E0215C300000F07FFE6D1C67
:1018B00068464188A8B24A1E9042F4DB6018401E78
:1018C0000178724800F072FE380000F06FFE03F0FD
:1018D0008FF902006E496F4800F068FE380000F092
:1018E00065FEF1BD2C080140E4C30008F8C3000800
:1018F000FFFF0000F8B500250024012066490870AC
:1019000066495E4800F052FE0026684604F0CCFDB1
:101910000028FAD068460078F10088402418761C28
:10192000B0B20228F1DB00264D4F09E0684604F012
:10193000BBFD0028FAD068460078B1B27854761C16
:10194000B0B2A1B28842F1D3534805703800FFF716
:10195000C1FAF1BDD4BF000838B5414C0023FF22C5
:101960002100002002F0FEFA012002F0CFFA05006B
:101970004B49424800F01AFEA9B22000FFF7AAFA2C
:1019800031BD000010C40008500600207CB50020C6
:1019900002F0BCFA060000244249384800F006FE76
:1019A0000820694608706A460121302001F0E3FEF4
:1019B0001120694608706A460121002001F0DBFE13
:1019C0000221002004F0BEFA2220694608706A460F
:1019D0000121012001F0CFFE0121012004F0B2FA23
:1019E00001230F220F21012004F012FB602001F0DF
:1019F00027FF2D4D03E00121002004F051FB3000B2
:101A0000E040E4B2641C2111C90E091949114901D1
:101A1000641A29790029FCD000212971C007EAD471
:101A2000EAE7000018C40008ACC4000830C400088D
:101A3000ECBC000870B5002002F068FA1B491C4895
:101A400000F0B4FD1B491C4800F0B0FD00250E4E0F
:101A5000034CA8B2215C300000F0A8FD6D1CF8E733
:101A6000E812002080B500F05FF914491448FEF731
:101A700083FC01200C4948717047000014BD000828
:101A800008C400087D0D0A0020C4000828C400080E
:101A900018C3000890C400086C1B0020BCC40008D8
:101AA000D0C40008E0C4000850060020F4C40008B8
:101AB000E4C3000818C4000810C4000818C50008D2
:101AC00004C5000818B585B004202C490A680243F3
:101AD0000A600968084000900098684607A114222F
:101AE00002F07CFF844C6946200004F0FBFC0122DC
:101AF0008021200004F0BAFE06B010BD8000000076
:101B000001000000000000000300000000000000D1
:101B10007A48C078704710B5794C200001F03EFA41
:101B200078480460200010BD7748704770B504F015
:101B30003AFF0026F02519E005F01EF80A2003F010
:101B40000CFF05F001F80A2003F007FF04F0F6FF90
:101B50002840802801D1012000E00020761C012EC1
:101B60000ADC03D1002801D104F099FF04F0E6FF5C
:101B700028408028E0D1EEE762BD00002C10024032
:101B8000F8B58AB0002669460E7003E06846007812
:101B9000401C087068460078FF28F7D100AA521C44
:101BA00001218E2001F016FE019068460079400860
:101BB000E9D100AA521C0121F12001F00BFE4F4D8A
:101BC00068464078E870E878812802D0E878912863
:101BD00001D104F06EFAFFF7A9FF05F045F805F012
:101BE0003BF8002809D104F06AFAFFF794FF0028B7
:101BF00077D1434801F0D2F973E002AA20210020F6
:101C000004F0CDFF002402AF3978002901D0FF296C
:101C10000CD1FFF757FFE878812802D0E8789128A7
:101C200001D104F04CFAFFF776FF62E079780029E1
:101C30000CD001290CD002290CD003290CD0042986
:101C40000CD005290CD0FF290CD019E02F4814E046
:101C50002F4812E02F4810E02F480EE028480CE0F3
:101C60002E480AE00021019001AA48423818807FDE
:101C70005054491C0329F8DD019801F08FF901E067
:101C8000FFF749FF0120F97F012900D16870F97839
:101C9000297000217A79022A00D10121A97002AAB3
:101CA0000421212004F07BFF02980021C9438842CF
:101CB00013D00194F81C7142405C01A98855761C30
:101CC000032EF7DD019C2000154904F0DFFF03D34C
:101CD000144904F0EFFF00D80024200002F06AFD50
:101CE0006860E878812802D0E878912801D104F072
:101CF000E6F90BB0F0BD0000000800509806002087
:101D000080F0FA02A00600203282000000366E0148
:101D100040787D0180BA8C01006CDC0200751903EB
:101D20000050C3C70150C34738B56A4601216D2032
:101D300001F050FD684600780121014368460170BA
:101D40006A4601216D2001F016FD632001F078FD47
:101D5000642003F002FE622001F072FD102500AC49
:101D6000A41C00AA921C01218D2001F033FD2078D3
:101D70002842F6D000AA921C0221942001F02AFDEC
:101D80006A4601216F2001F025FD6078802108401E
:101D9000694609784906490E0143617000AA921C00
:101DA00002216E2001F0E7FC6A4601216D2001F05E
:101DB00011FD68460078FE210140684601706A46C0
:101DC00001216D2001F0D7FC31BDFEE7FEB5060014
:101DD0000D0014001F0000F09BF9002300900193F8
:101DE0006D1C2800E917641C2200E31704F076FF3D
:101DF000B34A002304F072FF009A002304F087FF27
:101E000078433060F7BDF2B582B017001E000024A1
:101E1000050000F07DF902000023AA480F2104F01C
:101E200076FFA040854203D3641CE0B20428F0DBB7
:101E30002800029D347000210090019100F068F9A3
:101E4000E0400200C3170098019904F047FF9C4A44
:101E5000002304F05CFF0400FF26FF2101F05CFE7C
:101E6000FE2802D32E703E70F7BD811C3970200011
:101E7000C9B201F051FE28703878401E38702878B9
:101E8000022801DB401E00E001202870F7BDF2B5FA
:101E900082B00400150001F084F802008A488242F2
:101EA00000D3520820000021002304F017FF060091
:101EB0000F00864A002304F02AFF0400401C002182
:101EC000824A002304F00AFF801BB941009001916F
:101ED000200000217D4A002304F000FF361A8F41C4
:101EE00000980199B94203D801D3B04200D2641CD2
:101EF000029EFF272000FF2101F00EFEFE2802D3E4
:101F000037702F70F7BD811C29702000C9B201F015
:101F100003FE30702878401E28703078002801D1E8
:101F200001203070F7BDF8B504000D00160001F077
:101F300038F807006448874200D37F08701CC11737
:101F40002A00002304F0CAFE604A002304F0C6FE03
:101F50003A00002304F0DBFE2060F1BD1CB5040054
:101F60006A4601213A2001F035FC012C68460078D0
:101F700004D1802101436846017003E04006400E11
:101F800069460870EDE01CB504006A4601213A205C
:101F900001F020FC012C6846007802D14021014369
:101FA00001E0BF210140DAE080B569464A1CFFF735
:101FB0006EFF6A460221462001F0DDFB009070486A
:101FC00069460A7802704A78427001BD01B582B054
:101FD00002AA01214620FFE701F0CDFB00906848EE
:101FE00069460A7802704A78427007BD7CB50600DF
:101FF0000D0014006A460221462001F0EBFB01901F
:102000005F4801A90A7802704A78427068460178F0
:10201000297041782170427801783000FFF783FF02
:1020200073BD80B500AB5B1C00AA921C00A9891C83
:10203000491CFFF7E8FE6A460121392001F0CAFB7E
:1020400068460078FC2101406846407808436946AC
:1020500008706A460121392001F08DFB00AA921C0C
:1020600002214820A8E7FEB506000D0014001F005D
:102070006A460121392001F0ADFB684600788007EF
:10208000800F6946087068460078387000AA921C74
:102090000221482001F09EFB01904F4801A90A78D7
:1020A00002704A78427000A8801C4178297001783B
:1020B000217069460B784278017825E00000000025
:1020C00040420F000000404281C3C90180221F48E6
:1020D0001CB5140000AA921C117050706A460121B0
:1020E000392001F077FB68460078FC2101400C4361
:1020F000684604706A460121392001F03CFB00AAC1
:10210000921C02214A202FE03000FFF75FFEF7BD4E
:1021100080B500F046FF3149884209D030498842F5
:1021200009D03049884203D02F49884203D004E0C7
:10213000FA20C00102BD2D4802BD2D4802BD1CB5CC
:1021400004006A4601213A2001F044FB012C684654
:10215000007802D11021014301E0EF2101406846DF
:1021600001706A4601213A2001F005FB00901A48EF
:1021700069460A7802704A78427013BD0000000078
:102180005A1B00203EB569461AA213880B80124CD8
:102190006D46002809D0012028706420687003F083
:1021A000E5FC207840087C28F9D16A1C01217B20BD
:1021B00001F0E1FA019001A8017821704178617085
:1021C0006A4601217A2001F0D6FA0090684601782B
:1021D00021704178617037BD5A1B002000366E01B6
:1021E00040787D01006CDC0280F0FA02148200006D
:1021F0008C8700000060FEE738B50500286A291DBD
:10220000441AE1B2281D2A689047002807D02920E7
:10221000285C001929216854281D2862012032BD3C
:1022200038B50A00002400E0641CE1B2515C0029CA
:10223000FAD10500E1B210002A689047002805D0C5
:102240002920285C001929216854012032BD000092
:10225000F8B584B006000D001400002069464880DF
:10226000301D30623000143070620020292170541B
:102270001FE068460078002807D0301D306203E078
:10228000684600780028F4D11D0068464078002890
:1022900004D0306A411C31627D210170306A716A5C
:1022A000884205D33000FFF7A7FF002800D1F4E0F3
:1022B0006D1C2F78002F00D168E109494A78252F3D
:1022C00013D0262F11D07B2F03D07D2F01D0232FA9
:1022D00008D1002AE2D0306A411C31620770DDE784
:1022E000BC06002088780028F4E76D1C2B78252B8D
:1022F00001D0262B04D1306A411C31622978CCE709
:102300007B20262F0DD1002A0BD001226F467A7038
:102310006E2B09D04E2B07D0326A531C33621070DB
:1023200002E000226B465A7000226B461A702A782F
:102330004E2A06D0542A2AD06E2A02D0742A26D0D9
:1023400040E02768241D09780029A7D0694649780C
:10235000002905D0316A0870881C30622820487036
:102360003000FFF749FF00281DD039003000FFF78B
:1023700057FF002817D06846407800288ED0306A72
:1023800029210170811C31627D21417086E7276817
:10239000241D3000FFF730FF002804D03900300042
:1023A000FFF73EFF002878D03000FFF725FF002818
:1023B00073D0306A411C31623A21017001206946B4
:1023C00008706D1C28783038C0B201906878019987
:1023D000891E05292DD2642801D0752829D100270E
:1023E0002168241D89B26B4659800122029264281B
:1023F00005D1080403D50127C843411C89B200292F
:1024000008D008007F1C0A2101F072FB80B200286E
:1024100007D0F7E77F1C04E0306A411C31622021BD
:10242000017038007F1CC0B201998842F4DB6D1C3A
:1024300001E0002002906B1E2978302078220F00E6
:1024400000D11DE732297CD034297AD048296AD0BE
:1024500058296DD063290CD0642921D0682962D015
:1024600070290DD073290BD0752919D078295FD028
:10247000FFE6306A411C31622168241D017004E7C7
:102480002768241D3000FFF7B7FE002805D039006B
:102490003000FFF7C5FE0028F1D1002005B0F0BDE7
:1024A000029A002A02D06A46578802E02768241D53
:1024B000BFB2002F04D1316A4A1C32620870E4E6D0
:1024C00000206A46107002A8019064290FD1802074
:1024D000000207420BD0316A4A1C32622D220A7078
:1024E000874204D038004742BFB2002F57D038008F
:1024F0000A2101F0FDFA01986A4612788154684673
:1025000069460978491C017038000A2101F0F0FA87
:1025100087B2EAE7316A4A1C3262019AC3B2D25CDE
:1025200030320A703DE0316A0870881C30624A70AF
:102530002168241D0222C9B2306A04F01DFC3062F9
:10254000A3E66D1C2B78691E682B01D0482B0DD19A
:10255000336A1870981C30625A70306A09783229D0
:102560000AD12168241D042289B2E6E7782BF4D031
:10257000582BF2D00D0088E62768241D0422390C60
:1025800004F0FAFB30620422B9B2D6E73000FFF75C
:1025900033FE002800D180E72920305C7EE76846C2
:1025A00000780100481E0906E5D0B3E70EB410B567
:1025B0008BB001000124074800900DAA6846FFF780
:1025C00047FE002800D1002420000BB0019910BC68
:1025D00004B008478D6E0008F2B584B01700C249F8
:1025E0000E68D1498E4200D3760800240500E1B27E
:1025F000BE4800F042F9A84203D2641CE0B20C28A5
:10260000F5D128003C700021220617D102AA010052
:10261000002003C202A803C83200002304F077FBA5
:1026200004006D4630000021A2B2002304F056FBE6
:1026300003C530000021A2B2521C1DE002AD2122D0
:10264000121B04F037FC03C502A803C832000023A4
:1026500004F05DFB0400A5B26A4600923000002140
:1026600080225202AA18D31704F038FB6A4603C22C
:1026700030000021AD4AAA18D31704F02FFB049DA7
:102680002C802C8802AA0CCA801A994106000F00DF
:10269000684603C8121A8B419F4203D801D3964261
:1026A00000D2641C2C8005B0F0BDF7B586B00500E3
:1026B0000827012601AA0121052001F08BF86846B0
:1026C0000079C00600D4042700F062FB002800D087
:1026D0000226002433003A00E1B2FF2000F0E9F8BE
:1026E000854203D3641CE0B20C28F3D1280008997A
:1026F0000C707D490E680021220617D102AA810ABA
:10270000800503C202A803C83200002304F0FFFAC8
:10271000040004AD30000021E2B2002304F0DEFA30
:1027200003C530000021E2B2521C1EE002AD1722A8
:10273000121B04F0BFFB03C502A803C8320000232C
:1027400004F0E5FA0400E5B204AA0092300000218A
:1027500080225200AA18D31704F0C0FA009A03C2CC
:1027600030000021FF22921CAA18D31704F0B6FAF9
:10277000079D2C702C7802AA0CCA801A9941060079
:102780000F0002A80CC803C8121A8B419F4203D83D
:1027900001D3964200D2641C2C7009B0F0BD000039
:1027A000F7B586B050490E685F498E4200D376086F
:1027B000002504005EA02906C915405A00213200F8
:1027C000002304F08BFAB64A002304F0A0FA8442F6
:1027D00003D26D1C68B25A28ECDB68460570694666
:1027E00000200856002838D00020085600250594FF
:1027F00004000496AE006019411E5A2911D200BF90
:102800004BA1059F40000818801E00880021049AF3
:10281000002304F063FAA24A002304F078FA381A7D
:1028200000E0C34801A988516D1C032DE2DB0021A3
:10283000C94300226B46985601AB95005B59012BAA
:1028400001DA5D422B008B4202D21900A018401E13
:10285000521C032AF0DB69460870089C079D002083
:102860000E563000092101F043F920703000092193
:1028700001F03EF9297009B0F0BD78B502001A48A0
:102880000068294B984200D340080C000023002127
:10289000250003D104F022FA080072BD1600802240
:1028A0005202921904F01AFA2122121B04F014FBAE
:1028B00072BD18B502000C000B480068002123000F
:1028C00006D1002304F00AFA800D8A02104312BDDB
:1028D00080235B00D218D31704F000FA1722121BD2
:1028E00004F0FAFA12BD000094060020FFFF000079
:1028F00010B56A4A12680C4B9A4200D3520800BFC6
:102900000BA3CC00611840184000185A0021002386
:1029100004F0E4F96422002304F0E0F9854A00237E
:1029200004F0F5F910BD000081C3C90101000100E8
:10293000411F0F1F041EC81C8B1B351A1719EB16DD
:1029400026159D11A310C00FE00E250E590DB60CD3
:10295000810B8F0AC7084C08DF076C070F07AA0610
:102960005806BF05460563042604ED03B603870336
:1029700055032C03DF02A30231021202F601DA0131
:10298000C301AA0196016F01510118010901FB0061
:10299000ED00E200D500CB00B800A9008C00850056
:1029A0007E00770071006A0065005C0054004600FC
:1029B00042003F003B003800350033002E002A0063
:1029C000230021001F001E001C001B00190017001F
:1029D00015001200110010000F000E000D000D0078
:1029E0000C000B0030B503000D0014002B480068EC
:1029F00000211A00002304F071F9C00C4A031043AF
:102A0000C90C2A00002304F082F92200002304F0FC
:102A10007EF930BD70B586B0AD4A8218AD4B9A4292
:102A200001D2042200E008220B00410BC0045A43EB
:102A3000D31704F053F904AA03C21848066804A87F
:102A400003C83200002304F062F90400651C300062
:102A500000212A00002304F041F902000B0004A821
:102A600003C8121A8B410292039304A803C8009072
:102A70000191300000212200002304F02FF9009A78
:102A8000019B121A8B4102980399994203D801D3F2
:102A9000904200D22C00200006B070BD94060020A9
:102AA000A0F70300FCB5B74B1D682C00B64B9C4249
:102AB00000D3640800920191C10C4003032200235B
:102AC00004F00CF906000F002A00002304F01FF99F
:102AD000643801990870300039002200002304F0A6
:102AE00016F9643800990870F3BDF1B50C001500B3
:102AF0001900082676482818764A904200D2042603
:102B0000A048006801F008F8012102239E4F754398
:102B10009E4EB54203D3B84204D2012303E0B8422B
:102B200001D303230021009803702170F1BD000040
:102B3000FFFFFF7F80BA8C01F0B585B0040000F084
:102B400053F905008F4800689B49884202D2012D45
:102B500031D102E02FD9002D2DD1632000F070FE7D
:102B6000AC4F002669460E7003E068460078401CB2
:102B7000087068460078FF28F7D102F0F7FF387830
:102B800040080228EED1681E8041C00F00F016F9FF
:102B9000622000F055FE69460E7003E0684600783A
:102BA000401C087068460078FF28F7D102F0DEFF6D
:102BB00038784008EFD1260003AC621C03A9964880
:102BC000FFF770FF03AA0221092000F0D4FD01AA3B
:102BD000921C02A9B068FFF7FFFC68460089000A52
:102BE00020706846008960703079694689790143B0
:102BF000A17001AA01A9491CF068FFF756FDE21C6B
:102C00000121112000F0E6FDE078F0210140684646
:102C100000790843E07068464079207100AA921C50
:102C200000A9C91C3069FFF7BBFD6846C0780001E8
:102C3000694689780143617103AA06210E2000F0DC
:102C40009AFD03AA0321622000F0C4FD8025022022
:102C500031795029217806D04906490E21706178D2
:102C6000FD220A4004E029432170617802220A43D0
:102C70006270A278FC211140A170B268FA239B0116
:102C80009A420AD35B009A4201D2012003E08A4BA8
:102C90009A4200D303200843A07003AA03216220B4
:102CA00000F069FD00AA521C0121142000F092FDE1
:102CB0006846407805436846457000AA521C0121C9
:102CC000142000F058FD306800F0A8F805B0F0BD01
:102CD00020C4C5CE210CB70DF8B584B0050002AAFA
:102CE0000421052000F076FD02AC2078C00601D555
:102CF000082600E0042600950F27207838400006BB
:102D0000617809040143A07800020843E178014397
:102D1000019100F03DF8451CEAB231000198FFF73F
:102D200061FE0099086002AA06210E2000F052FD03
:102D30000190384801A90A7802704A784270A07858
:102D4000F0210140009A11710F210140207800020A
:102D500062781043FFF791FD00998860EBB2320072
:102D6000E0780F2101402079FFF7A3FD0099C860AA
:102D70006079074039000009FFF7BAFD0099086142
:102D800005B0F0BD9406002081C3C90100A493D60C
:102D9000E0B56A4601216D2000F01CFD01901D4840
:102DA00001A90A7802704A784270684600780821C2
:102DB000084000D001200EBD80C3C9011CB504002D
:102DC0006A4601216C2000F005FD012C6846007860
:102DD00002D1EF21014001E010210143684601705A
:102DE0006A4601216C201CE1E0B56A4601216C2095
:102DF00000F0F0FC0190564801A90A7802704A7868
:102E000042706846007810210840401E8041C00F83
:102E10000EBD00005A1B0020E09304007CB50600A4
:102E20000124FFF7B5FF411CC9B23000FFF7F2FDE6
:102E30000500814830188149884200D20024FFF7FC
:102E4000A7FF431CDBB2320000A9491C00A8801C6C
:102E5000FFF74BFE6A460121652000F0BBFC684687
:102E60000078FB21014068464078800008436946AD
:102E700008706A460121652000F07DFC01A8290147
:102E8000090F6A46927852010A43210111430170E9
:102E9000290C4170290A8170C57001AA04210520FE
:102EA00000F069FC0090554869460A7802704A783B
:102EB0004270002076BD000024F400003EB56A4652
:102EC0000421052000F086FC01904C4801A90A78F5
:102ED00002704A7842706C462078C00601D50825F9
:102EE00000E00425FFF754FF421CD2B229002078ED
:102EF0000007000963781B040343A07805021D4303
:102F0000E0782843FFF76EFD3EBDE0B56A46032139
:102F10000E2000F05FFC0190384801A90A78027089
:102F20004A7842706A4690780107090F10780002CB
:102F300052781043FFF7A1FC0EBD00F01CFC00907E
:102F40002E4869460A7802704A78427001BD000036
:102F50005A1B00201CB504006A460121102000F015
:102F600039FC684600780007000F04436846047087
:102F70006A460121102054E0E0B56A460121102084
:102F800000F028FC01901D4801A90A7802704A78D7
:102F9000427068460178F02008400EBD164908606E
:102FA000704715480068704780B50F2901DB012183
:102FB00002E01D224900511A6A4611700121612365
:102FC000181AC0B2B9E7E0B56A4601216123181AA0
:102FD000C0B200F0FFFB0190084801A90A78027016
:102FE0004A7842701D2069460978401AC10F0818B6
:102FF00040100EBD00000000940600205A1B002067
:103000001CB504006A460121622000F0E3FB68461B
:103010000078F82101400C43684604706A4601219B
:10302000622000F0A8FB0090054869460A7802700B
:103030004A78427013BD000020C4C5CE210CB70DE4
:103040005A1B0020E0B56A4601212E2000F0C2FB89
:1030500001909A4801A90A7802704A78427068463D
:10306000007880096946087006D101F0BCFA002892
:1030700002D0042069460870E0E01CB504006A46EE
:1030800001212B2000F0A6FB68460178FC220A40B3
:10309000A105890F1143017044706A4602212B205B
:1030A00070E0E0B56A4602212B2000F093FB01900E
:1030B000824801A90A7802704A784270684601780D
:1030C0000902C02292000A404078401C104380B29E
:1030D0000EBD1CB504006A4601212B2000F07AFBCE
:1030E000684600788007800FA100014368460170A0
:1030F0006A4601212B2045E0E0B56A4601212B20DC
:1031000000F068FB0190774801A90A7802704A78BC
:1031100042706846007880080EBD1CB504006A46FF
:103120000121302000F056FB012C6846007802D1C6
:103130001021014301E0EF210140684601706A4619
:10314000012130201EE01CB504006A4601212F2019
:1031500000F040FB68460078FD21014060000BE074
:103160001CB504006A4601212F2000F033FB68469D
:103170000078FB210140A0000843694608706A46B8
:1031800001212F2000F0F7FA0090564869460A788E
:1031900002704A78427013BD3EB5002201ABD400E4
:1031A0000500E5409D54521C042AF8DB0C006A46D9
:1031B00001212B2000F00EFB684600788007800F6D
:1031C000A1000143684601706A4601212B2000F0EE
:1031D000D2FA01AA0421332000F0CDFA0090414830
:1031E00069460A7802704A78427037BD1CB50400FF
:1031F0006A460121402000F0EDFA012C6846007873
:1032000002D10121014301E0FE2101406846017025
:103210006A4601214020B5E7E0B56A460121AB20AE
:1032200003E0E0B56A460121AA2000F0D3FA01903C
:10323000224801A90A7802704A78427068460078EC
:103240000EBDE0B56A4601214520EEE7E0B56A46CD
:1032500001214320E9E7E0B56A4601214420E4E783
:10326000E0B56A4601214120DFE7E0B56A46012169
:103270004220DAE71CB504006A4601212E2000F046
:10328000A9FA68460078CF2101400C4368460470D3
:103290006A4601212E2075E7E0B56A4601212E20FD
:1032A00000F098FA01900F4801A90A7802704A7854
:1032B000427068460178302008400EBD5A1B00203D
:1032C0001CB504006A460121302000F083FA6846EC
:1032D0000078F32101400C43684604706A460121DE
:1032E00030204FE75A1B0020010042221201D21E5B
:1032F000004207D002D4521E0018FCD5C10A400576
:103300001205891870470000F0B50E005E400125D7
:10331000ED072E40B446AE0ADF184C18F44208D22E
:10332000F7420ED2640D01D07F0D12D1002061460C
:10333000F0BD05D1F74201D87F0D05D10020C14372
:10334000F0BDFBD1640DF9D00020C1434905490807
:103350008FE0E419C902DB0229432B43DB0A460D47
:10336000C00231438E4630B487B295B27D432E0CF5
:10337000ADB2140C7C43A419260C240425439CB242
:103380007C43A419190C7943270CC919A4B20F0462
:103390003C43090C000C97B247432E0CBE19354331
:1033A000ADB2170C4743360CBF19A6B2BF193E0485
:1033B0003543240C3E0C36199FB24743BF19BCB2AB
:1033C0003E0C89191F0C47437F183E043443390CC7
:1033D000704680B297B247432E0CBE193543ADB24A
:1033E000170C4743360CBF19A6B2BF193E0435432C
:1033F000240C3E0C36199FB24743BF19BCB23E0C99
:1034000089191F0C47437F183E043443390C774613
:103410003F0C90B278432E0C80190604ADB22E43B7
:10342000050CA0B22D18120C7A435019020C80B270
:10343000240CA4189AB27A43121914042043120CD3
:1034400089181B0C7B43C91830BCEF0A394203D1E1
:10345000B61940414941641E6F12BF0DE41B0BDBDE
:10346000FF19BC4211DA240500274208AE41784119
:10347000614166463143F0BD641C05D1401C614189
:10348000CF0201D34908F4E750E75DE7F0B40E003E
:103490005E400125ED072E40B446AE0ADF184C18F9
:1034A000F4423BD2F74241D2640D43D07F0D38D075
:1034B000E41BC902DB0229432B43CF0ADB0A0600C7
:1034C000B61A9F4104D2641EB6197F41B6185F41F7
:1034D0006812800D24180018844222DAE80C0021BA
:1034E000B6197F41B61A9F4102D2B6185F413F1C00
:1034F00040414941F4D3241C21DD2405B6197F4104
:10350000B61A9F4105D33743C60737430026012F1C
:103510007041614166463143F0BC7047FCD1F742CF
:1035200005D20020C14349054908F3E704D0002033
:10353000C143F1E77F0DFAD000206146ECE7244259
:10354000FAD1401C61410F03F6D30020E2E70122CB
:1035500052054B18DA4201D9581570475B0D072206
:10356000D2019B1A10D9FF2B1DD2DB050122D207F5
:103570000A4013430903020D1143490AC200524194
:1035800000D9491CC81870470AD1800A0A030243AF
:103590005212921C04D9D3070B40D0051843704730
:1035A000C80FC0077047C80F0002FF30C005704742
:1035B000F8B586B0B7488168820C0A438260012161
:1035C00002680A43026002680A400592059A0225D1
:1035D00002682A43026002682A400592059A02683E
:1035E0000A43026002680A400592059A02680A438B
:1035F0000260006808400590059808260096019131
:1036000000240294032003906946BB4802F06AFF3D
:1036100040200090A027FF056946380002F062FFB5
:10362000802000906946380002F05CFF009501940C
:103630006946380002F056FF01228021380003F06D
:1036400015F901224021380003F010F9C34D28007C
:1036500003F004FF00281AD1C148286082204000EE
:103660006860EE61AC606C612C61AC620720E8625E
:10367000EC602C62B001A8616C62280003F00CFDC4
:10368000002804D12868016840229143016007B0F6
:10369000F0BDF8B586B07F488168820C0A4382602D
:1036A00001240168214301600168214005910599C9
:1036B0000226016831430160016831400591059996
:1036C0000168214301600168214005910599016865
:1036D0002143016000682040059005980820009073
:1036E00001960294032003900025049569468248C0
:1036F00002F0F8FE4027009704956946A020C00517
:1037000002F0F0FE8020009004956946A020C005DC
:1037100002F0E8FE009601946946A020C00502F080
:10372000E1FE8E4C200003F099FE00281BD18C484E
:1037300020608220400060600820E061A560656133
:103740002561A5620720E062E56025623002A06184
:103750006562200003F0D0FB002800D0FEE720685F
:1037600001680F43076001220221A020C00503F079
:103770007DF807B0F0BDF6B5C3B001A900220A80FC
:103780004870A027FF050221380003F06FF8734E40
:10379000FA25AD000095022303AA01A9300003F029
:1037A00093FC03AC009543A80378A21C4499300015
:1037B00003F08AFC01220221380003F057F8207838
:1037C00002A94870684661780172029845B0F0BD60
:1037D00000000000F3B5C3B00400170003A800BF49
:1037E00082A18022520001F0F9F803A84470A026BB
:1037F000F60500220221300003F038F8574DFA2474
:10380000A4000094022301AA03A9280003F05CFC91
:10381000009444A803783A0003A9280003F054FC5C
:1038200001220221300003F021F801A8017802AA48
:103830005170694640780872029845B0F0BD0000AA
:103840001FB501A9891C00BFA8A213880B8001A97C
:10385000891C4870A024E40500220221200003F006
:1038600005F8FA2080000090022301AA01A9891C12
:103870003A4803F029FC01220221200002F0F6FF61
:1038800001A8017802AA517069464078087202982E
:1038900004B010BD2C100240F3B5A5B002A800BFC3
:1038A00030A10A880280A027FF05002202213800EB
:1038B00002F0DCFF294EFA25AD000095022303AA91
:1038C00002A9300003F000FC03AC009525A80378A2
:1038D000A21C2699300003F0F7FB012202213800D8
:1038E00002F0C4FF207801A9487068466178017130
:1038F000019827B0F0BD000000040050F1B5A4B05D
:103900000F0003A818A1842201F068F8A026F6058C
:1039100000220221300002F0A9FF104DFA24A40079
:103920000094022301AA03A9280003F0CDFB009410
:1039300024A803783A0003A9280003F0C5FB01225C
:103940000221300002F092FF01A8017802AA517012
:10395000694640780872029825B0F0BDD01A002060
:103960000030014000FF000001FF000000000000E7
:103970000000000000000000000000000000000047
:103980000000000000000000000000000000000037
:103990000000000000000000000000000000000027
:1039A0000000000000000000000000000000000017
:1039B0000000000000000000000000000000000007
:1039C00000000000000000000000000000000000F7
:1039D00000000000000000000000000000000000E7
:1039E00000000000000000000000000001000000D6
:1039F00000000000000000000000000000000000C7
:103A000000000000000000000000000000000000B6
:103A100000000000000000000000000000000000A6
:103A20000000000000000000000000000000000096
:103A30000000000000000000000000000000000086
:103A40000000000000000000000000000000000076
:103A50000000000000000000000000000000000066
:103A60000000000000000000000000000000000056
:103A70000000000000000000000000000000000046
:103A80000000000000000000000000000000000036
:103A90000000000000000000000000000000000026
:103AA0000000000000000000000000000000000016
:103AB0000000000000000000000000000000000006
:103AC00000000000000000000000000000000000F6
:103AD00000000000000000000000000000000000E6
:103AE0000000000000000000000000008000FEE771
:103AF000CA0F00D0494203105A400DD004B500D37C
:103B0000404200F009F8009AD20701D3494212421C
:103B100000D5404204BD0000094214D088420FD3B2
:103B20000122030C01D100041204002300185B41A0
:103B30008B4200D35B1A5241F8D319001000704732
:103B400001000020704708B503F0E2FC08BDFEE765
:103B500000207C4908707C4A8A1810807B4BC91869
:103B6000087088749070FF20D0707047612801DB66
:103B7000572108E0412801DB372104E03A2801DA27
:103B8000302100E00021401AC0B270476D4908188A
:103B90006E49401841780078081AC0B270476949E8
:103BA00008186A4A805C0818401C7047F0B585B058
:103BB0000027674A0192A44A049202906846417025
:103BC000604C43E04078002848D00298007869466D
:103BD00008700298401C029068464978491E41705E
:103BE000684601780D2931D00A293DD101270025E9
:103BF00022293DD1012203202378002B06D0022B5D
:103C000048D040D3042B6DD047D31FE0002F31D1D3
:103C1000002D1BD1002A32D0022020700198058887
:103C20008020C000854228D02078012805D1684630
:103C3000007800F073F869460870684600786119EA
:103C4000487001980088401C01990880012602985C
:103C500000286846B6D102F027FC00285BD0012876
:103C6000BED0019886703BE000272029BFD10125F6
:103C70000022C0E700F06EF8E8E706202EE07B297E
:103C8000CBD02670CAE73D43C8D0049909781129E2
:103C900033D123E0002AF8D1C0E7019AD278039209
:103CA000FF2A00D100267D2902D1002E15D1ECE794
:103CB0000846FFF75BFF10280DDA002E08D00399A5
:103CC0000901081869460870FF200199C870A5E726
:103CD0000199C870BAE7002DB8D105200199887004
:103CE00004202070002FB1D001988078002801D0E6
:103CF00000F05EF9FFF72CFFA8E7491C049801705B
:103D000001980088C9B26118104A885400202070B8
:103D1000002F9BD0AEE7380005B0F0BD010041395F
:103D20001A2901D22030C0B2704706498322D2003E
:103D30008A5C8018C0B20818044A805C0818407871
:103D400070470000C00600201404000001040000B9
:103D5000D40A0020F8B584B09C4800216A4611714D
:103D6000394902910978002901D146E07868039029
:103D70006846007940B2FFF712FF070068460079F5
:103D8000FFF704FF040002E003981030039003984B
:103D9000406800282AD0039805683E000CE030787F
:103DA000FFF7BCFF00902878FFF7B8FF0099C9B271
:103DB0008142E9D16D1C761CF01BA042EFD128781E
:103DC0000028E1D1039F002F10D068466946097989
:103DD000491C0171B86800786E28C7D06846007920
:103DE0000299487100246846067910E00220029981
:103DF000C8700298C07800F0DBF8FFF7A9FE05B0A4
:103E0000F0BD0298C078002834D1761C641CB868D4
:103E100002990978F2B28A4233D2E1B2455CE0B24B
:103E2000FFF783FF290032D062391DD0113902D04B
:103E3000891E02292DD8752D01D1FF250CE0762D84
:103E400004D1634D08E000BFD30A0020732D01D1D7
:103E50007F2501E00025ED430121E0B200F01BF8D1
:103E60008542CED20420C2E72228CAD07B28C8D0FF
:103E70000520BCE70298C0780028BAD155480760F1
:103E8000BBE7029A5279891A405C0028F2D00320DD
:103E9000ADE70720ABE77BB583B04F494F4A8A189F
:103EA000009292788018C2B28A184D4BD25C891861
:103EB0004C1CC0B2FFF76AFE0A250026029401904E
:103EC00000240198864219DA0298805D6946097CCF
:103ED000002903D0002E01D12D280DD0782803D140
:103EE000002C03D1102507E05828F9D0FFF73EFE3B
:103EF000A84206DA6C432418761CE2E7200006B0DC
:103F000070BD0520009908700020F8E780B50021F9
:103F1000FFF7C1FF02BD38B50500FFF706FF2D28EA
:103F200001D1012400E0002421002800FFF7B3FFA5
:103F3000002C02D000B24142080000B232BD70B580
:103F40000C00284909784518C643F60F002C04D008
:103F5000E8B2FFF71BFE801B207068B2FFF71FFE60
:103F6000801970BDF8B50E0014001D006946FFF7FA
:103F7000E6FF0700200069460978884200D908005A
:103F800069460870002D03D068460078241A00E0C6
:103F90000024E1B2300003F0DFFA6846027839000D
:103FA000E4B2301900F006FD68460078F2BD00006A
:103FB00080B50D49800009580CA000F08FFB01BDB1
:103FC0000449086800220A6070470000A000002031
:103FD000FFFF00005C1B0020C0060020160400004C
:103FE00001040000D80A00200000002025730D0AFB
:103FF000000000007FB50500002000F0F1FA6A46DD
:1040000001213A20FFF7E6FB01266C4620780121CA
:10401000014321706A4601213A20FFF7ACFBA878E2
:1040200080002988090A0143217028886070E87A95
:10403000C000A070697A012902D180210143A170DA
:10404000E21C01212E20FFF7C5FBE0780007000FDE
:10405000E070221D02212F20FFF7BCFB2179FE20FA
:104060002A7A012A02D10A43227101E0014021711A
:104070002179F9220A402271617913220A40A97A32
:10408000114361716A7B012A02D110220A4301E0C7
:10409000EF220A40627161792A7B012A02D10E4324
:1040A000667101E0084060716A4606212B20FFF727
:1040B00062FB00206968C200D1402154401C0428E2
:1040C000F8DB6A4604213320FFF755FB0290524883
:1040D00002A90A7802704A784270A87A002800D0B3
:1040E0000120FFF783F86A4601211120FFF772FBD8
:1040F0002078CF21014021706A4601211120FFF76D
:104100003AFB7FBD3EB504006A4606212B20FFF72F
:1041100061FB6D4628788008A07028780002C021D5
:1041200089000140687801432180A978C80960723C
:104130000120C90801220A40E272297901220A40BD
:1041400022726979E0220A40A2720A09012313400F
:104150006373084020736A4604213320FFF73AFB5B
:1041600002902D4802A90A7802704A784270002015
:10417000606061682A5CC3009A400A436260401C28
:104180000428F6DB37BDE0B56A4601212D20FFF794
:1041900021FB0190204801A90A7802704A784270F8
:1041A000684600780821084000D001200EBD1CB5EB
:1041B0000400FFF7E8FF002800D0641C68462104D3
:1041C000090E017044706A4602213120FFF7D3FACC
:1041D0000090114869460A7802704A78427013BD0F
:1041E0001CB56A4602213120FFE7FFF7F3FA019080
:1041F000094801A90A7802704A7842706846017835
:104200000C0240780443FFF7BEFF002800D0641E74
:10421000A0B216BD000000005A1B00207FB50600AA
:10422000002000F0DDF96A4601213A20FFF7D2FABA
:1042300001256C4620780121014321706A46012145
:104240003A20FFF798FAB07880003188090A0143D4
:10425000217030886070707AC00108210143A1701C
:10426000E21C01212E20FFF7B5FAE0780007000FCD
:10427000C0210143E170221D02212F20FFF7AAFA7D
:104280002179FE20327A012A02D10A43227101E00B
:10429000014021712179F9220A40227161791322AA
:1042A0000A40B17A11436171327B012A02D1102296
:1042B0000A4301E0EF220A4062716179F27A012A31
:1042C00002D10D43657101E0084060716A46062124
:1042D0002B20FFF750FA00207168C200D140215412
:1042E000401C0428F8DB6A4604213320FFF743FA18
:1042F0000290404802A90A7802704A784270B07A67
:10430000002800D00120FEF771FF6A46012111202C
:10431000FFF760FA2078CF21014021706A46012121
:104320001120FFF728FA7FBD3EB504006A4606213A
:104330002B20FFF74FFA6D4628788008A070287868
:104340000002C02189000140687801432180A878DB
:10435000C00960720120297901220A40227269791C
:10436000E0220A40A2720A09012313402373084085
:10437000E0726A4604213320FFF72CFA02901D48B0
:1043800002A90A7802704A78427000206060616871
:104390002A5CC3009A400A436260401C0428F6DB92
:1043A00037BD80B5801C69460204120E0A70487041
:1043B0006A4602213120FFF7DEF900900D48694678
:1043C0000A7802704A78427001BDE0B56A4602215F
:1043D0003120FFF7FFF90190064801A90A78027021
:1043E0004A78427068460178090240780143881E85
:1043F00080B20EBD5A1B0020F8B5070000F09EF8F1
:104400000020FEF7F3FE38788B490870C02620257F
:10441000CF24012804D17878FF211831401803E017
:1044200002282CD178780F3080B2FEF726FE1220B9
:10443000FEF74FFE12218148FEF7AEFE0120FEF787
:1044400082FE6A4601211120FFF7C4F96846007810
:1044500004402543684605706A4601211120FFF794
:104460008AF96A460121F120FFF7B4F9684600781D
:104470000640C02E37D1012000F07EF833E003283B
:1044800010D17878133080B2FEF7F7FD0A20FEF7DE
:1044900020FE0A21F4200005FEF77EFE0120FEF733
:1044A0005FFE20E004281ED17878273080B2FEF726
:1044B000E4FD1220FEF70DFE12216048FEF76CFEAF
:1044C0000120FEF740FE6A4601211120FFF782F924
:1044D0006846007804402543684605706A46012115
:1044E0001120FFF748F9B87800F030F8F1BD38B581
:1044F0000400FEF7D6FD504D2978012906D1FF2191
:104500001831884213DB4E49401810E0022903D1CC
:104510000F280CDB0F380AE0032903D1132806DB30
:10452000133804E0042902D1272800DB2738607003
:1045300000F044F8A0702878207031BD80B568463E
:10454000002101606A4604212D2057E03EB5050098
:104550006A4601213820FFF73DF90190394C01A846
:10456000017821704178617068460078C02101406F
:104570000D436846057015E03EB505006A46012109
:104580003820FFF727F901902E4C01A801782170FF
:1045900041786170684600788006800EA901014369
:1045A000684601706A4601213820FFF7E4F8009060
:1045B0006846017821704178617037BDE0B56A4680
:1045C00001213820FFF706F901901E4801A90A7859
:1045D00002704A784270684600788006800E0EBDF0
:1045E00015490870704714480078704780B56946CF
:1045F000020A0A7048706A4602213120FFF7BBF8B0
:104600000090104869460A7802704A78427001BDED
:10461000E0B56A4602213120FFF7DCF80190094835
:1046200001A90A7802704A78427069460878000247
:10463000497808430EBD00006D1B002000405AE27F
:10464000E9FEFFFF5A1B0020E0B56A460121A220C7
:10465000FFF7C0F80190054801A90A7802704A786E
:1046600042706846007892380EBD00005A1B002048
:104670009D2102000AD002D4491E9218FCD5C9051A
:10468000100A1206524100D3012A48417047000027
:104690009D210200EED55242F446FFF7EBFF0122C6
:1046A000D20710436047FEE7012212060118CA42F2
:1046B0000AD28A420DD83822120609098918C20F77
:1046C000D20711434007704700D049080909014348
:1046D00001E0C10FC90700207047FEE70EB4C0B566
:1046E000020003A801900020009001AB01210448C2
:1046F00078440C3002F032FF029906B0084700BF40
:10470000A981000030B405004D400122D2071540B8
:104710004B180418240E2ED01B0E32D0FF2C34D090
:10472000FF2B3AD0E4180002090210431143000A9B
:10473000090A9446C2B24A43000AC3B24B43000A74
:104740004843110A5B181A43D2B2190A091801D456
:104750004918641E080A7F3C23DBFE2C08DAE405B6
:1047600009061143634699416041284330BC7047B4
:10477000FF20C005F9E728001B0EFF2BF6D1D04320
:10478000F4E72800FF2CF1D1F9E74002F7D1FF2B25
:1047900001D14902F3D1E005E7E7D8054902E4D0A9
:1047A000EDE743020020641CDFD15B129B1CDCD9C7
:1047B000D805DAE70122D2070118090E7F3910D493
:1047C00049421F310FD4001805D2C0011043C84020
:1047D00000D5D0437047C0011043C84005D44042C3
:1047E0007047002070470042F3D510007047FEE785
:1047F00080B5417882780A4369460A706A46012189
:104800000078FFE7FEF7B7FF00902D4869460A7869
:1048100002704A78427001BD79B582B00D00002463
:1048200000266A4604215020FEF7D4FF0022694684
:10483000885C03239B1ADB0098403618521C042A1C
:10484000F6DB0298002D02D18643300000E03043B1
:104850000322121BD2000300D3400B55641C042C0E
:10486000F6DB6A4604215020FEF785FF00901448CD
:1048700069460A7802704A7842707FBD1CB5040010
:104880006A460421FA20FEF7A5FF01900C4801A911
:104890000A7802704A78427000216846CAB25342D0
:1048A000C218D2782270641C491CCAB2032AF5DDF2
:1048B00013BD80B56A460421FA20FEF78BFFA3E7FB
:1048C0005A1B0020E0B56A460121902003E0E0B5C4
:1048D0006A4601218F20FEF77DFF0190124801A951
:1048E0000A7802704A784270684600780EBD1CB59E
:1048F00004006A4601213C20FEF76CFF6846007800
:10490000802108400443684604706A4601213C2027
:10491000FFE7FEF730FF0090034869460A7802700F
:104920004A78427013BD00005A1B00201CB50400D9
:104930006A4601213F20FEF74DFF6846007880213E
:1049400008400443684604706A4601213F20E0E7BE
:104950001CB504006A4601213920FEF73BFF012CFB
:104960006846007802D10421014301E0FB210140A7
:10497000684601706A4601213920CAE7E0B56A46F7
:104980000121F020FEF726FF0190094801A90A78CD
:1049900002704A784270684600780EBD80B56A465B
:1049A0000121F120FEF716FF6846007802BD0000E5
:1049B0005A1B0020124207D08B0706D00B78491CE7
:1049C0000370401C521EF7D87047830706D00B783F
:1049D000491C0370401C521EF9D1704770B4103A44
:1049E00003D378C9103A78C0FBD2530701D318C952
:1049F00018C001D508C908C0D20704D30B880380AA
:104A0000891C801C002A01D50B78037070BC70478C
:104A1000F8B586B0002B02D00023069C23600290DC
:104A2000054600E06D1C28780300093B052BF9D3EF
:104A30002028F7D02D2801D02B2803D16B461870E1
:104A40006D1C02E02B206B4618700191002A03D4E4
:104A5000012A01D0252A03DB00294BD0029848E027
:104A6000002A0ADD102A16D12878302813D1687858
:104A70002021014378290ED10AE02878302801D07E
:104A80000A2208E0687820210143782902D1102207
:104A9000AD1C00E00822059500E06D1C2878302848
:104AA000FBD00024049500BF2AA15970170003947D
:104AB00007E0039469464978461AF6B27C43A41984
:104AC0006D1C2978080041381A2800D2203100BF17
:104AD00020A03A0003F077FB0028EAD1390030002B
:104AE000039E059AAA4207D10198002802D0029895
:104AF00001990860002023E0049AAA1A1FA35B5CB6
:104B0000D21A002A11D405DC201A03D3FFF704F8C7
:104B1000B0420AD000BF00BF0698002802D0012092
:104B2000069908600024E44305E0684600782D28D3
:104B300001D1604204000198002800D005602000E7
:104B400007B0F0BD80B5FFE700230A220021FFF780
:104B50005FFF02BD30313233343536373839616268
:104B6000636465666768696A6B6C6D6E6F7071729D
:104B7000737475767778797A00000000000021154B
:104B8000110E0D0C0B0B0A0A09090909090808087E
:104B900008080808070707070707070707070707A1
:104BA0000700000010B5002103225342C318DB7830
:104BB000D400A3400B431900521EF6D5080010BDC7
:104BC00070B50F2003F043FB8F4C904E3068E060CF
:104BD000CE4D2868406A20800F2003F02CFB3068FF
:104BE000E168814203D0E0602868406A208070BD9F
:104BF0008548C168A14A51430088081870470000E1
:104C000080B50020FFF782F9C1B2602906D0612982
:104C100006D0672908D0702904D009E0602004E09C
:104C2000612002E0702000E0672000F0EDFD02E06E
:104C3000C0B2FEF705FEFFF7C3FF7348C1688F4A95
:104C4000514300880B188E4A01A1BF4861E3000060
:104C500053646B4576616C537069436F6D6D616E23
:104C6000645374726F62657300000000F8B5C2B0DF
:104C70000020FFF74BF905000120FFF747F9C7B205
:104C800002AA3900E8B2FEF7A5FDFFF799FF00BFC1
:104C900019A1AE48FDF78AFC1DA1AD48FDF786FCC1
:104CA0000024781E019000BF1CA0009002AE05E019
:104CB000325C0098FDF77AFC6D1C641CE9B2E0B22E
:104CC000019A9042F4DBF019401E027816A0FDF71D
:104CD0006DFCA0A42000FDF769FC4B48C168674A41
:104CE000514300880A18664955A0FDF75FFC200073
:104CF000FDF75CFC43B0F0BD53646B4576616C53CB
:104D00007069526561645265676973746572730096
:104D1000726567735F6C6973740000003078257882
:104D20002C307825782C0000307825782C307825A8
:104D30007800000010B5C0B00020FFF7E7F80400CD
:104D40000023FF2269460120FFF70CF96A460100A3
:104D5000E0B2FEF710FDFFF733FF2B48C168474A6A
:104D6000514300880B18464A02A17748FDF71EFC04
:104D700040B010BD53646B4576616C5370695772D7
:104D80006974655265676973746572730000000029
:104D9000F8B5C0B00020FFF7B9F8C5B269462800E1
:104DA000FEF7ACFDFFF70CFF19A100BF1DA0FDF73A
:104DB000FDFB00BF20A16648FDF7F8FB0024A34FD0
:104DC0006E4604E0315C3800FDF7F0FB641CE0B295
:104DD000691E8842F6DB7019401E0178B348FDF762
:104DE000E5FB5CA42000FDF7E1FB0748C168234A0E
:104DF000514300880A18224911A0FDF7D7FB200073
:104E0000FDF7D4FB41B0F0BD441B00206000002042
:104E100053646B4576616C53706952656164466991
:104E2000666F00007B264E204150492063616C6C08
:104E30002E2E2E0D0A0000006279746573000000AA
:104E4000267434780D0A000080B5C0B00023FF221C
:104E500069460020FFF786F86946FEF71DFDFFF75B
:104E6000AFFEB648C168054A514300880B18044A92
:104E700004A13548FDF79AFB41B000BD50C30000C6
:104E8000A057000853646B4576616C537069577284
:104E90006974654669666F0080B50020FFF736F8D3
:104EA000C0B2012802D101F004F901E001F007F9D4
:104EB00000A1F6E053646B4576616C53646E0000AC
:104EC00010B50020FFF722F80400FCF759FE002C73
:104ED00006D0642C01D29A4844432000FEF75EF8C5
:104EE0000021032001F02EF80021022001F02AF811
:104EF0000021012001F026F80021002001F022F815
:104F000003A19048FDF752FB10BD0000680000208F
:104F100053646B4576616C5266626F61726449647A
:104F2000656E74696669636174696F6E0000000084
:104F300080B50020FEF7EAFFC0B201F0A5F803003B
:104F4000BC4A00BF04A1E3E18857000844520008AE
:104F5000B85500087D0D0A0053324D4770696F4700
:104F6000657456616C75650010B50020FEF7CEFFC4
:104F7000441E0120FEF7CAFFC0B2012803D1E0B2EF
:104F800003F0F6F904E0002802D1E0B203F0F3F9EF
:104F9000FFF716FE6948C168A74A514300880B18FD
:104FA000A64A00BF02A1A648FDF700FB10BD000005
:104FB00053646B4576616C4C656448616E646C65E6
:104FC0007200000038B50020FEF7A0FF04000120A9
:104FD000FEF79CFF0500C0B2012801D1012100E0CD
:104FE0000021E0B200F0AEFFEBB200220121E0B2FE
:104FF00001F00EF802A15348FDF7D8FA31BD0000C8
:1050000053324D4770696F497271436F6E666967BD
:1050100075726174696F6E00F8B5FFF7D1FD47488E
:10502000C1680088039100BF09A20292019000BFED
:1050300009A20092804A51430B18804A08A100BF80
:105040000AA0FDF7B3FA05B000BD00006C520008DD
:1050500072656C6F61640000636F756E74657200D9
:10506000436C6947657454696D6572007B264E20F8
:105070004150492063616C6C2E2E2E2674347820AA
:1050800026743278202674787D0D0A0080B50F20B2
:1050900003F0DDF80020B1490860B14909684862B1
:1050A00003A12848FDF782FA01BD000074520008F0
:1050B000436C69526573657454696D6572000000D4
:1050C00070B588B001F0C8FD002831D00020FEF78F
:1050D0001DFF05000120FEF719FFC4B26801061983
:1050E0000023FF2269460220FEF73CFF050020183E
:1050F000212801DB2020051BFCF70AFD812803D0B5
:10510000FCF706FD912804D100F0D3FF0A2000F03F
:1051100024FC6A46E9B2B0B201F068FDFCF7F8FC85
:10512000812803D0FCF7F4FC912801D100F0C7FFDF
:1051300005A10448FDF73AFA08B070BD441B0020F1
:1051400040420F00A8570008456570726F6D577296
:105150006974655061676500F0B589B039A700BF13
:105160003EA401F079FD002858D00020FEF7CEFEC5
:1051700005000120FEF7CAFEC6B20220FEF7C6FEF9
:10518000C0B200906801851900983018212803DB0F
:105190002020801BC0B20090FCF7BAFC812803D00D
:1051A000FCF7B6FC912804D100F083FF0A2000F040
:1051B000D4FB01AA0099C9B2A8B201F0F0FCFCF737
:1051C000A7FC812803D0FCF7A3FC912801D100F0B3
:1051D00076FF21003800FDF7E9F900BF29A1B948A1
:1051E000FDF7E4F90025009F7F1E00BF1FA601AC5C
:1051F00004E0215C3000FDF7D9F96D1CE8B2B8423B
:10520000F7DB00982018401E017800BF19A0FDF7B9
:10521000CDF900BF19A0FDF7C9F908E02100380059
:10522000FDF7C4F917A100BF18A0FDF7BFF909B039
:10523000F0BD00009053000850C30000A0570008C4
:10524000885700087B264E204150492063616C6CD2
:105250006261636B2E2E2E0D0A0000004565707290
:105260006F6D526561645061676500003078257824
:105270002C00000030782578000000007D7D0D0AAC
:105280000000000044617461000000007B25743A56
:1052900020307830307D7D0D0A00000010B500F020
:1052A00008FF01F04BFC040000F009FF230000BFE1
:1052B00037A200BF02A100BF1EA0FDF777F910BD05
:1052C000456570726F6D53746174757300000000F2
:1052D00080B50020FEF71AFE00A1E2E65265677570
:1052E0006C6174655652660080B5A84BA8A200BFD9
:1052F00001A100BF2BA00CE0476574565266000068
:1053000080B503F044F8030003A200BF04A100BF6E
:1053100008A0FDF74BF901BD76657273696F6E00E9
:1053200053646B4576616C47657456657273696F3B
:105330006E0000007B264E204150492063616C6C5A
:105340002E2E2E202674787D0D0A000080B503F0E5
:1053500020F800BF03A1CF48A4E6000060000020B1
:105360006800002053544C4D3735496E6974000075
:1053700080B5002069460880684603F00BF8009B62
:105380001BB200BF02A200BF03A100BF05A0C0E77F
:1053900076616C756500000053544C4D373552658D
:1053A000616400007B264E204150492063616C6C93
:1053B0002E2E2E20267432787D0D0A0080B502F044
:1053C000EAFF052002F0E8FF022002F0E7FF0020DC
:1053D00002F0E8FF072002F0E3FF00BF01A1AD48A3
:1053E00060E600004C4953334448496E697400003C
:1053F00080B586B004A802F0D7FF04A80421415E5E
:105400000391A5A102910221415E0191A3A1009106
:105410000021435EA2A200BF03A100BF05A0FDF7CB
:10542000C5F807B000BD00004C49533344485265ED
:10543000616400007B264E204150492063616C6C02
:105440002E2E2E2026743278202674327820267450
:1054500032787D0D0A0000007CB50020FEF756FD75
:1054600004000125A540BF4E0120FEF74FFD0006B8
:10547000307814D0054335700121E0B200F062FDB0
:1054800001230A220A21E0B200F0C2FD0121E0B2AC
:1054900000F0D4FD0021E0B200F0D8FD0BE0A843FD
:1054A00030700021E0B200F04DFD00230A220A21F5
:1054B000E0B200F0ADFD00BF03A17648FDF776F83D
:1054C00073BD0000B855000854696D654D65617382
:1054D000757265536572766963650000F8B50020E2
:1054E000FEF714FDC5B200BF2AA100BF2DA0FDF735
:1054F0005DF89D48690044180026A088002840D027
:105500002DA700BF2EA13800FDF750F8002408E0B9
:1055100032A09649EA018918A2008958FDF746F899
:10552000641C9148690040188088411E8C42EFD36A
:105530008D496A008C18ED018C49491980000818C2
:10554000001F016827A0FDF731F800BF20A1380037
:10555000FDF72CF886494F1920A10091002505E0A0
:10556000A80039580098FDF721F86D1CA088411E4D
:105570008D42F5D380003818001F016819A0FDF78F
:1055800015F87CA0FDF712F8A680F1BDE40C000030
:105590005652660047657454696D654D6561737553
:1055A000726500007B264E204150492063616C6C7F
:1055B0002E2E2E200D0A00007B25743A20000000BC
:1055C00074696D655F6475726174696F6E00000067
:1055D00074696D655F726973650000003078253409
:1055E000782C000030782534787D0000F8B5040070
:1055F000FFF7E6FA5C48C1685F4A514302888D189C
:1056000062008618B088402823DAE701200000F005
:105610002DFD002810D0B0888100554AD21952586B
:10562000AA1A524BDB195A50401CB08001212000AD
:1056300000F004FD002109E04D48C019B18889003F
:1056400045500021200000F0F9FC0121200000F06D
:10565000FDFCF1BD10B500BF53A40020FEF756FCC1
:105660000006464846490ED00A78002A02D1027840
:10567000002AF9D000220B78002B03D00A7000BF5B
:1056800053A102E0027000BF53A12000FCF78EFF7F
:1056900010BD0000BC5700085A000000590000006F
:1056A0005800000080B50021002000F04BFC0021D4
:1056B000012000F047FC0021022000F043FC002103
:1056C000032000F03FFCFDF773FF00BF47A100BFC0
:1056D0003AA0E7E480B50020FEF718FC00F033FEA6
:1056E00001BD0000F8B5C2B00020FEF70FFC0700B6
:1056F0000120FEF70BFC06000220FEF707FC050068
:105700000320FEF703FC04000023FF2202A904206B
:10571000FEF728FC0090E3B22A00F1B2380002F054
:1057200073FE002502AE009C03E0705D02F087FE70
:105730006D1CA542F9D3FFF743FA02F0AAFE0A490D
:10574000CA680D4B5A4309885118019114A1009160
:1057500003000CA228A100BF0BA0FCF727FF43B059
:10576000F0BD000022000020441B0020E80E0020B5
:10577000E81000207D0D0A0050C3000054060020F0
:1057800055060020637263007B264E20415049205D
:1057900063616C6C2E2E2E267434787D0D0A000009
:1057A00074696D65720000007B264E2041504920CF
:1057B00063616C6C2E2E2E7D0D0A00007B264E2020
:1057C0004150492063616C6C2E2E2E207D0D0A0005
:1057D00053746F70436D640053646B4576616C491C
:1057E00072715261697365640000000053646B4517
:1057F00076616C48695A000043616C63756C617432
:10580000654372630000000080B5FEF719F8009050
:10581000034869460A7802704A78427001BD00BFA9
:105820005A1B0020FCB507000E0015000097781EDB
:105830005549FEF771F9411C0C003480380089B2DB
:10584000FEF76AF928800197070031884F4A914294
:1058500029DA0198FEF760F92880318828880A0043
:1058600003005A43019BD21A130000D55B4249083A
:10587000994206DA401C2880318880B24143019861
:105880000A1A100000D54042009B002B00D55B4255
:105890003188984204DA00920C002F88002A02D046
:1058A000491C3180D1E734802F80F3BDF8B5050065
:1058B000286806000124E443036A354F1F4002D1E3
:1058C000036823400360C3682340C36031488023DA
:1058D000DB059E4202D1436801270CE02E4B9E421D
:1058E00004D1036804271F43076006E02B4B9E4248
:1058F00003D1436810271F4347606960EA600020B6
:105900002861A860280000F04DF88020C00586427C
:1059100009D0214886420DD100220121142002F035
:105920007CFC14200FE0002201210F2002F075FC06
:105930000F2008E01948864207D1002201211120DA
:1059400002F06BFC112002F076FC28680461F1BDC6
:1059500013480168491C0160704701B41048016890
:10596000CA43009B9A420BD201680023DB43994251
:10597000FAD10099891A02688A42FCD101B07047B5
:10598000009A5118F7E70000FFFF0000FEFF00003B
:1059900011110000341002400008014000100040C6
:1059A000601B002070B5040001D1012070BD20688B
:1059B000494D8021C90588420CD04849884209D008
:1059C0004749884206D04749884203D0DA21280057
:1059D00002F0BCFFA06800280BD0102809D02028B6
:1059E00007D0402805D0602803D0DB21280002F032
:1059F000ADFF206900280AD080214900884206D0E6
:105A00004900884203D0DC21280002F09FFF802655
:105A10007602E068B04203D3DD21280002F096FF51
:105A20006068B04203D3DE21280002F08FFF3520EA
:105A3000205C002804D134216054200000F094F848
:105A4000022035216054211D206800F063F800F029
:105A500058F810B5040020688021C90588420DD08F
:105A60001E4988420AD01E49884207D01D498842F3
:105A700004D0B22149001D4802F068FF20680121CE
:105A8000C2680A43C260026811430160002010BD71
:105A900010B5040020688021C90588420DD00F4947
:105AA00088420AD00E49884207D00E49884204D065
:105AB000BC214900084802F049FF20680121C94380
:105AC000C2680A40C260026A074B134002D10268F2
:105AD00011400160002010BDCCC60008001000403D
