:020000040800F2
:10000000F036002091CA0008D1C70008D3C7000805
:10001000D5C70008D7C70008D9C7000800000000EE
:10002000000000000000000000000000DBC7000826
:10003000DDC7000800000000DFC700087964000881
:10004000B5CA0008B9CA0008BDCA0008C1CA00087C
:10005000C5CA0008C9CA0008E1C70008CDCA00081F
:10006000D1CA0008D5CA0008F1C70008D9CA0008DB
:10007000DDCA0008E1CA0008E5CA0008E9CA0008AC
:10008000EDCA00089F760008F1CA0008F5CA00080A
:10009000F9CA0008FDCA000801CB000801C8000821
:1000A00005CB000809CB00080DCB000811CB0008D8
:1000B000AF9A00086922000815CB000819CB000888
:1000C0001DCB000821CB000825CB000829CB000858
:1000D0002DCB000831CB00089976000835CB0008FD
:1000E0003DC8000839CB00083DCB0008919C0008B2
:1000F0002501000841CB000845CB000849CB00088A
:100100004DCB000851CB000855CB000859CB000857
:100110005DCB000861CB000865CB000869CB000807
:100120006DCB0008DFF8200DC1680A69D30707D539
:10013000CA68D30704D5012343706FF0010008613A
:100140007047000080B502F06FF9BDE8005083B23F
:10015000DFF8F82C00A115E053324C50436F6D705E
:1001600075746552636F4672657175656E6379006B
:1001700080B502F031FDBDE800500346DFF8D02C19
:100180000FF2080106A002F07CBF000053324C5071
:1001900047657452636F4672657175656E63790069
:1001A0007B264E204150492063616C6C2E2E2E26FA
:1001B0007432787D0D0A000070B503F06CFB0646C2
:1001C00003F082FC044603F096FC00EB440003F0CD
:1001D00095FD0022DFF87C3C03F09EFD04460D46B1
:1001E000304603F08BFD02460B462046294603F0BD
:1001F00065FEBDE8704003F085BF38B5DFF8581CD8
:1002000001F5B474A3781D2B0DDA25780C20454335
:100210004A190421FA2004F09BF800F01FFEA07890
:10022000401CA07031BD00F001F831BD6A460421C8
:10023000FA2004F08DB8000080B503F025FCBDE87D
:10024000005003460FF67C3201A100F0D4BB000041
:1002500053324C50476574506B7446726D74000095
:10026000F8B500F0ECFC00F0FBFE00F0E3FC00F061
:100270001FF800F026F800F01FF800F0B6F800F0C4
:10028000AFF88DF80C00082004F095FB8DF80D00F8
:10029000684604F0F5FB00BF00A192E053324C50D9
:1002A000506B744261736963496E697400000000A9
:1002B0000190032004F07FBB8DF80900052004F0B5
:1002C0007ABB8DF80800042004F075BB80B594B0AB
:1002D00010A804F067FC9DF84D000FF28811BDF8DE
:1002E00040300FF28C120F900E91C5A19DF84C007A
:1002F0000D900C919DF84B0013A10B900A919DF865
:100300004A000FF27C11099008919DF849000FF204
:100310007C11079006919DF848000FF27C11059022
:10032000049111980FF27C11039002919DF8420004
:100330000FF27C11019000910FF2140010A102F055
:10034000A0FE15B000BD00006164647265737300A7
:100350007B264E204150492063616C6C2E2E2E2648
:1003600074327826747826743478267478267478F3
:100370002674782674782674782674787D0D0A00A1
:1003800053324C50506B74426173696347657449D2
:100390006E666F00F8B500F052FC00F061FE00F0F0
:1003A00049FCFFF785FFFFF78CFFFFF785FF00F0A3
:1003B0001CF800F015F88DF80C00684604F082FC7B
:1003C00002A101F035FD05B000BD000053324C50D4
:1003D000506B74537461636B496E69740000000064
:1003E0008DF80B00072004F0E6BA8DF80A0006200D
:1003F00004F0E1BA80B592B00DF1380004F0EFFCE2
:100400009DF844000FF25C01BDF8383018A20D9041
:100410000C917BA19DF843000B900A919DF842003E
:1004200017A10990CDF820109DF8410017A1079061
:10043000CDF818109DF8400017A1059004910F9871
:1004400018A10390CDF808109DF83A0018A101906A
:10045000CDF800100FF2640024A102F012FE13B0D8
:1004600000BD000077686974656E696E6700000002
:10047000707265616D626C655F6C656E6774680053
:100480006372635F6D6F6465000000006C656E678A
:1004900074685F73697A65006C656E6774685F6D18
:1004A0006F64650073796E635F776F72640000003C
:1004B00073796E635F6C656E677468007B264E208F
:1004C0004150492063616C6C2E2E2E2674327826A2
:1004D000747826743478267478267478267478268E
:1004E00074782674787D0D0A0000000053324C5059
:1004F000506B74537461636B476574496E666F002B
:1005000080B500F09CFB8DF8000000F0ABFD8DF88D
:10051000010000F091FB8DF80200684604F0D6FC63
:1005200000A17CE353324C50506B744D627573499B
:100530006E69740000B585B00DF1100004F039FD4E
:100540009DF812000FF228019DF810300BA20390C5
:10055000CDF808109DF811000AA10190CDF8001007
:100560000FF22C0011A102F08CFD05B000BD0000BF
:10057000706F7374616D626C650000007375626DFD
:100580006F646500707265616D626C6500000000EB
:100590007B264E204150492063616C6C2E2E2E2606
:1005A00074782674782674787D0D0A0053324C5086
:1005B000506B744D627573476574496E666F0000C9
:1005C00080B500F03CFB80B204F04EFBBDE8044077
:1005D00000A111E053324C50506B74426173696357
:1005E0005365745061796C6F61644C656E677468B3
:1005F00000000000DFF8D41BDFF8D40B02F041BD8F
:100600006665630080B504F03FFBBDE8005003461B
:100610000FF2B07200A1B5E553324C50506B7442EA
:10062000617369634765745061796C6F61644C658F
:100630006E6774680000000080B500F000FB80B2B7
:1006400004F00DFCBDE8044000A1D5E753324C5046
:10065000506B74537461636B5365745061796C6F44
:1006600061644C656E6774680000000080B504F03A
:1006700009FCBDE8005003460FF2487200A181E575
:1006800053324C50506B74537461636B47657450B4
:1006900061796C6F61644C656E677468000000007E
:1006A00080B500F0CCFA80B204F0F7FCBDE804405D
:1006B00000A1A1E7537069726974506B744D627543
:1006C000735365745061796C6F61644C656E6774C7
:1006D0006800000080B504F0F1FCBDE8005003465E
:1006E0000FF2E06200A14DE5537069726974506BBE
:1006F000744D6275734765745061796C6F61644CB9
:10070000656E67746800000080B500F098FA10B953
:1007100002F0BEF901E002F0B1F9BDE8044000BF0B
:1007200000A169E753324C5054696D65725365748A
:10073000527854696D656F757455730080B586B0D5
:1007400004AA0DF1110105A802F0B0F99DF81010EE
:100750009DF8112008A0059B03910290CDF804207C
:100760000FF220010FF224020AA0009111A102F061
:1007700088FC07B000BD00007072657363616C6532
:1007800072000000636F756E746572007065726947
:100790006F6400007B264E204150492063616C6CE1
:1007A0002E2E2E267434782674782674787D0D0AC1
:1007B0000000000053324C5054696D6572476574F7
:1007C000527854696D656F757400000000B585B08E
:1007D00000F035FA009000F045FC8DF8040000F0C0
:1007E0002BFA0290FFF765FD0390FFF76CFD049074
:1007F000FFF764FD08B903F08BF8684602F060FE6D
:100800004FEA0003DFF8CC2903A1DFF8CC0902F09E
:1008100038FC05B000BD000053324C505261646991
:100820006F496E697400000000B58FB00AA802F02D
:1008300025FF03F06DF809900FA10E98089107901D
:1008400011A10D98DDF8283016A20691CDF81400FC
:1008500018A10C98049103901BA19DF82C00029103
:10086000CDF804000FF26C011DA0009127A102F049
:1008700008FC0FB000BD00005854414C5F66726523
:100880007175656E637900004368616E6E656C5FBB
:1008900066696C7465725F62616E647769647468BE
:1008A000000000004672657175656E63795F626174
:1008B000736500004672657175656E63795F646586
:1008C00076696174696F6E00446174615F7261740E
:1008D000650000004D6F64756C6174696F6E000097
:1008E0007B264E204150492063616C6C2E2E2E26B3
:1008F00074347826747826743478267434782674A0
:100900003478267434787D0D0A00000053324C5040
:10091000526164696F476574496E666F000000003C
:1009200080B502F0F5FFBDE8005003460FF2944297
:1009300000A12EE053324C50526164696F476574D8
:100940005874616C4672657175656E63790000005C
:100950002DE9804000F073F902F02DFFBDE804405E
:1009600000A149E653324C50526164696F5365747B
:100970004672657175656E6379426173650000004A
:1009800080B502F063FFBDE8005003460FF2344229
:1009900002A10FF24C4002F074BB000053324C50E5
:1009A000526164696F4765744672657175656E63FF
:1009B000794261736500000080B500F040F9C0B273
:1009C00002F087FFBDE8044000A115E653324C5009
:1009D000526164696F5365744D6F64756C617469BD
:1009E0006F6E000080B502F083FFBDE80050034643
:1009F0000FF2D03202A1DFF8E00702F042BB0000A4
:100A000053324C50526164696F4765744D6F647521
:100A10006C6174696F6E000010B504F069FB0446E8
:100A20000FF224010DA002F02CFB204604F074FB11
:100A300004F084FBBDE8104002460B460FF28431FF
:100A40000AA004F09FBB000053324C505169476527
:100A5000745273736964426D000000007B264E205F
:100A60004150492063616C6C2E2E2E007B25733A19
:100A7000252E31667D7D0D0A0000000010B5002096
:100A800003F09BFF00F0F0F82146C0B202F04DFFEA
:100A9000BDE8104000A1AFE553324C50526164698B
:100AA0006F53657450414C6576656C4E64426D00C1
:100AB00080B500F0C4F8C0B202F05BFFBDE80440AE
:100AC00000A199E553324C50526164696F536574CB
:100AD00050414C6576656C4D6178496E640000004C
:100AE00010B500F0BFFA0446C0B202F042FF002089
:100AF00003F063FF0146E0B202F017FFBDE81040CB
:100B000000A179E553324C50526164696F536574AA
:100B100050414C6576656C64426D000080B500F014
:100B20008EF8C0B202F00DFF04F0F6FADFF8381BC1
:100B300004F03CFB04F0A6FBBDE800504FEA0003C4
:100B40000FF280220FF2080107A002F09ABA00000B
:100B500053324C50526164696F47657450414C6523
:100B600076656C64426D00007B264E204150492022
:100B700063616C6C2E2E2E2674647D0D0A000000BD
:100B800080B500F05CF8C0B202F0BCFFBDE80440E4
:100B900000A131E553324C5057686974656E696E37
:100BA0006700000080B500F04AF8C0B203F057F8C3
:100BB000BDE8044000A11FE553324C504469726502
:100BC0006374526653657452784D6F64650000001B
:100BD00080B500F034F8C0B203F05EF8BDE8044020
:100BE00000A109E553324C50446972656374526642
:100BF00053657454784D6F646500000080B500F053
:100C00001EF88DF8000000F02DFA8DF8010000F0BC
:100C100013F88DF80200684604F04AFB01A101F0C8
:100C200007F901BD53324C504770696F496E6974C2
:100C3000000000008DF80200022003F0BCBE00207E
:100C400003F0B9BE10B5FFF7FAFF00F00DF8C1B21E
:100C50004FEA040004F03EFBBDE8104000A1CBE4E5
:100C600053324C50497271000446012003F0A3BE78
:100C700080B5684604F05EFBDDF800300FF24412E8
:100C80000FF2080156A002F0FCF901BD53324C509E
:100C90004972714765745374617475730000000084
:100CA00080B5FFF7CCFFC0B204F085FBBDE804407F
:100CB00000A1A1E453324C504C696E6561724669E3
:100CC000666F536574416C6D6F737446756C6C54CC
:100CD00068726573686F6C645278000080B5FFF7C6
:100CE000AEFFC0B204F08AFBBDE8044000A183E47B
:100CF00053324C504C696E6561724669666F53653C
:100D000074416C6D6F7374456D707479546872655D
:100D100073686F6C6454780010B504F08DFB044662
:100D200004F09BFB40EA0423BDE810400FF294025C
:100D300001A1FFF727BA000053324C5047657456A3
:100D4000657273696F6E0000F0B589B00DF1040033
:100D500014A1202204F09CFB0024ADF800400025E3
:100D60000226002701AC0FE02E280BD101A8384441
:100D700040788DF80000684604F05BFCF100884084
:100D80000543761E7F1CFFB2E05D0028ECD12B46A8
:100D90000FF230020FF2340111A002F072F909B023
:100DA000F0BD000053324C505F4C69627261726951
:100DB00065735F762E312E332E3000000000000068
:100DC0000000000076616C756500000053324C50E5
:100DD0004765744C696256657273696F6E000000F6
:100DE0007B264E204150492063616C6C2E2E2E26AE
:100DF0007434787D0D0A000080B5FFF720FF12499A
:100E000081F80200BDE8044001A1FFF7F5BB000036
:100E100053324C5053656E6442617463684C5000A9
:100E200080B5FFF70CFF084981F80300BDE80440D6
:100E300001A1FFF7E1BB000053324C5047657442FB
:100E4000617463684C500000500600208820000840
:100E5000C40D000800408F409C2F00202178491CC1
:100E60001E2291FBF2F21E2000FB1211217070472E
:100E70002DE9F04F85B0FFF7E2FE0C26C0B2DFF897
:100E8000F4490FF2F80BDFF8E889DFF8EC79002875
:100E900004F269154FF01E0A4CF250392AD07979C4
:100EA000002904BF38790028F9D0397959B90020D0
:100EB0007871387100F017FF00F04AFB05B0BDE80B
:100EC000F04FFFF797BBFFF798F90020387100F05B
:100ED0008BF803462878464304F108005A468159A6
:100EE000201D805BCDF8008009FB0101CDF80410C6
:100EF00025A022E0387918B1FFF77FF90021397178
:100F000095F8010027A748B368788DF8100000F025
:100F10006BF829784E439DF810100391029704F165
:100F20000801034651F8062026A0211D895BCDF853
:100F3000008009FB021201925A4600BF1CA102F078
:100F4000A0F86878C8B1287800F053F90AFB110AB4
:100F500085F800A06878411E69700EE06C7804F096
:100F6000B0FB039402970190CDF8008000235A460D
:100F70000FF23C0113A002F084F8E6E26972715F9F
:100F800073746174757300007B264E2041504920B4
:100F900063616C6C2E2E2E2674347820267434787F
:100FA0007D0D0A0064696D656E73696F6E000000E7
:100FB00053646B4576616C49727148616E646C650F
:100FC000720000007B264E204150492063616C6C0A
:100FD0002E2E2E26743478202674347820267434ED
:100FE000787D0D0A0000000028787043204405F049
:100FF00059B900002DE98040FFF721FE01F075FD91
:10100000BDE8044001A1FFF7F7BA000053324C508D
:1010100054696D657253657457616B655570546999
:101020006D657255730000002DE98040FFF707FEE3
:10103000C0B201F0FAFC00F015F8C0B201F000FDFA
:10104000BDE8044001A1FFF7D7BA000053324C506D
:1010500054696D65724C6463724D6F646500000085
:10106000ADF80000012003F0A6BC2DE9FE4F0746B5
:10107000DFF800088B4600254FF0800900F2691464
:101080004FF01E08824605E0207800F0B2F800F02C
:10109000A5F8617060780028F6D104F0DEF900064A
:1010A00058BF4FF06009D94501970BDA012100F0D4
:1010B0009CF8002004F0ACF90199484603F09EF931
:1010C0004E460AE000F090F8002004F0A1F90199E2
:1010D0005FFA8BF003F092F95E466A4601213F20E9
:1010E00003F036F99DF80000DFF88C7700F07F0000
:1010F000411E8DF80010B878012814BF60206220CE
:1011000005F0DEF8ADF802B00BE000F06DF8BDF8C8
:101110000200861B761C5946F0B203F06FF9BDF849
:10112000026000F0A3FA40B10021797128482749F4
:1011300001F0A7FFFF20BDE8FE8F3871FFF75DF8D3
:1011400020780C2141430AF10202525C5144D3073A
:1011500048BF0125C978401C11F0060F11D01E228E
:1011600090FBF2F208FB120884F800806078411EC0
:101170006170B87803281CBF722003F01FF90020AB
:10118000D9E71E2190FBF1F100F028F8002D6170E5
:10119000C7D001989DF8001000EB060BBDF80200C7
:1011A000801B08180025401C4845AEDB9DF8000058
:1011B000A9EB00005946C0B203F020F909EB060084
:1011C0009DF80060861BB6B2ABE70000D020000897
:1011D000AC200008C02000089420000808FB110083
:1011E00020706078411E704700214FF4807004F039
:1011F00071B8401C1E2190FBF1F170477CB504468C
:1012000002F001FD05466A460121402003F0A0F8E6
:101210000DF101020121302003F09AF89DF8010040
:1012200000F0E0008DF8010000262178C80601D505
:10123000012076BD9DF8010020B1E178C80601D5F6
:10124000022076BD9DF80000010704D502F0EEFCF7
:10125000A84218BF01269DF80000410704D502F0FE
:10126000EFFCA84218BF761C9DF80000810704D54A
:1012700002F0E1FCA84218BF761CF0B2A8B19DF8BC
:1012800000009DF800104008890800F0010001F0FE
:10129000010108189DF80010C90801F00101F6B21B
:1012A0000818864201D1032076BD9DF80000C106D2
:1012B0000DD502F0CAFC054602F0AAFC05EA0006BC
:1012C00002F0C8FC0540AE4201D0042076BD207873
:1012D000810601D5062076BD002076BD2DE9F84FA8
:1012E0008246DFF8900584B04FF00008002700F236
:1012F00069141E260AE02078401C1E2590FBF5F597
:1013000006FB150020706078451E65706078DFF878
:1013100064550028EFD10091914601214FF40070EF
:1013200003F0D8FF012004F073F8DFF84C65F07883
:1013300001281CD1622004F0C3FFCDF80CA0ADF849
:1013400004904FF6FF7B707910B931790029FAD0FB
:10135000707988B100217171F078032803D000F012
:10136000C2FC00F0F5F800F061FDFF20EDE0F07840
:101370000028E2D16120DEE73071F078022806D142
:1013800000F09BFF812804BF012001F04DFCFEF717
:1013900034FF2078BDF804A04FF00C0909FB00F0E1
:1013A000284480788107039948BF4FF00108C91984
:1013B000DA45029150D1800609D5F16800204862D3
:1013C000DFF8981C3089401E086000217170227877
:1013D00009FB02F02918C978CB0736D5521C1E210B
:1013E00092FBF1F11E20039D00FB11222270607818
:1013F000411E61704FF40070002103F06BFF03F099
:10140000C7FF04001CBF029903F02EF80098E719EB
:10141000078004F03BF9F07802281CBFF17803291B
:1014200012D1BFB2EA190121A22002F091FF64207B
:1014300004F046FF00F041FF812805D10A2005F0A5
:1014400020F8002001F0F0FB7EE0F278022A01D0C3
:101450008B0707D4F278022A2CD1C90602D4285C63
:10146000C10627D504F012F900214FF4007003F0F3
:1014700031FF00F06DF801AAFEF7D9FE0098078051
:10148000F07802281CBFF17803290CD1642004F005
:1014900017FF00F012FF812805D10A2004F0F1FFA8
:1014A000002001F0C1FB207809FB00F16818FFF76C
:1014B000A5FE4AE0207800F0E0F820706078411E38
:1014C0005FEA080061703FF43EAF03F061FF8146C0
:1014D00009EB070040F6B93188424FF0000811DAF5
:1014E000A9F10100012803DB0299C0B202F0BCFFA0
:1014F0004F445F44BFB25745FFF625AF00F0F3FB02
:101500001E2115E000F0EFFB1E2101E000F023F8A2
:1015100060780028FAD104F0B9F800F019F801AAAF
:10152000FEF785FE0098078007200EE000F013F814
:1015300060780028FAD104F0A9F800F009F801AAAF
:10154000FEF775FE00980780002005B0BDE8F08F1B
:10155000712002F033BF2078401C1E2290FBF2F273
:1015600001FB120020706078421E627070472DE906
:10157000F84F8246BF48002400F269151E230AE096
:101580002878401C1E2290FBF2F203FB1200287008
:101590006878421E6A7068780028F1D188461FFA80
:1015A00088F9B9F1600F0DDA002082B28A42F6D2D2
:1015B0001AF802201FFA88F308F101080AF803203C
:1015C000401CF2E75146602002F018FF602004F052
:1015D00077FE6026A84FCDF800A007E0C0B202F069
:1015E0000DFF06F16000A0EB0B06B6B200F03EF86E
:1015F00028B100217971BDE8F44FFEF7FBBF3871C7
:10160000FEF7FBFD28789B490C22424311448B785E
:10161000D90748BF012400F030F828706878411ECF
:10162000002C6970E2D003F0B8FE0024A9EB06029A
:10163000834600988119CBF160009042CBF1600A9B
:10164000CCDBA8EB0600C0B202F0D8FEAAEB080A79
:101650000099B2445FFA8AF002F0D0FECBF1600B41
:10166000ABEB08000644C0E700002041787910B9D0
:1016700039790029FAD078797047401C1E2190FBF7
:10168000F1F11E2202FB1100704710B500F068FC5A
:1016900001462046FFF7E9FCBDE810400FF638216F
:1016A000FEF7AABF2DE9FE4FFFF7C9FAFFF7DCFAF4
:1016B00001900023DFF8AC89FF224146022003F0AD
:1016C000A1F96D4DDFF8A069002781462F71A87838
:1016D00003281CD04FF4FA406A460DF10201604322
:1016E00004F0FAFDBDF80010BDF802004A1E411ECC
:1016F00000F0F0FA00F0E8FABA460FF6B01B5DE031
:101700003078FFF7BAFF30707078411E71707078D2
:101710000028F5D1FEF78AFD4FF47A70604301F09E
:10172000E4F9002001F08CF9012001F07EF9414636
:10173000484602F063FE602004F0C2FDDCE70020B2
:10174000687158460FF6881101F09BFC002001F0EB
:101750006CF900F0C5FA672004F0B2FDFEF766FDF3
:10176000722002F02BFEFF2700F0AAFAA8780328C7
:101770000BD1002001F059F900F0B2FA672004F013
:101780009FFDFEF753FD00F0ABFAFF2F04D00FF6DC
:101790005811584601F075FCBDE8F78F00206870BD
:1017A00049464046FFF761FCFF280746DCD00FF6AC
:1017B0002811584601F065FC0AF1010A019882459A
:1017C000D2D2A878032822D0A978012905D1632094
:1017D00004F076FD602004F073FD6979002904BFF0
:1017E00068780028F9D069790029D7D000F083FA09
:1017F000A878012808D100F073FADFF8704800F0EB
:1018000080FA20784008FAD10FF6C401C1E769795F
:10181000002904BF28790028F9D0697900298ED1E0
:1018200000202871FEF7E9FC317812480C224A4367
:101830001044C37813F0060FB9D000F077FA484689
:10184000414602F0DBFD642004F03AFDAFE70FF6FD
:10185000AC01FEF7D1BE80B5FFF7F1F9DFF8101843
:101860000870BDE804400FF6A001FEF7C5BE0000F9
:10187000C82000089C2F0020500600202DE9F04FC2
:101880008FB0FFF7DCF906904FF00008FFF7EAFB96
:10189000DFF8285409908DF8148085F804801E2202
:1018A000DFF8C46708E03078FFF7A3FC02FB110003
:1018B00030707078411E717070780028F3D1E9782B
:1018C00003295BD100F02CFA00F0A9FAFEF774FCB2
:1018D0000446069804F0F8FD214604F003FE03F0E8
:1018E0002DFC0022DFF88C3704F03CFE04F0F6FEFD
:1018F000074606984FF47A71484301F0F6F86B46B4
:101900000DF101020DF1020106A801F00FF99DF899
:10191000014001F061F982469DF80090384604F0DC
:10192000D3FD0746504604F0CFFD394603F03EFC98
:1019300007469DF900100120884003F0EDFB0146A9
:10194000384604F0DFFEDFF8301704F0DBFE074610
:10195000601C03F0E1FB0146384604F0D3FE03F0BF
:1019600091FC401E4A462146C0B201F0ECF801202D
:1019700001F066F8012001F058F83EE006980028D2
:101980003BD000F0CDF900F04AFAFEF715FC044612
:101990000698DFF8E87604F097FD214604F0A2FDF2
:1019A00003F0CCFB0022DFF8D83604F0DBFD04F0B6
:1019B00095FE0446D7F800C006984FF47A73BCFB36
:1019C000F3F30DF11E0208A9584304F085FCBDF89D
:1019D0002000E8804FF47A703968B1FBF0F044439E
:1019E000E888B4FBF0F02881012100F080F9288913
:1019F000E98800F06DF900F067F9E878012804D172
:101A0000632004F05DFC00F007FAE87802281CBFB0
:101A1000E978032903D1CDF8188000F0FDF9099881
:101A20000FF2207A401E00240A900BAF81E019F8D3
:101A300001100FF2287001F024FB0BF1010BBDF82F
:101A40001C201FFA8BF1501E8142F0DB09EB0201D2
:101A50000FF2107011F8011C01F013FB96A001F0B9
:101A600010FB9DF815200FF20471504601F009FBA0
:101A70002878002848D00BAA10219C2002F068FC8E
:101A80000FF2107C0FF2187E7A78CDF80CE0CDF8CA
:101A900004C04FEA920C97F80EE097F80F900FF2FF
:101AA000D4600FF2E0610FF2E463CDF808E00CF0CF
:101AB000010CCDF800C0CDF8109002F0030201F047
:101AC000E0FABA7A97F80BC097F80DE00FF2DC60F5
:101AD0000FF2E0610CEB026C3A7B10320CFA02F26E
:101AE0000EF1080E02FA0EF20092C9A37A7902F002
:101AF0000F0201F0C6FA7B7A3A7A0FF2C46108331A
:101B0000C4A09A4001F0BDFA03F0DBFD02460FF2DB
:101B1000BC600FF2B45101F0B4FA67A001F0B1FA61
:101B2000E878012804D1632004F0CAFB00F074F9BE
:101B3000641C0998844231D20698002818BF002CF2
:101B400075D06979002904BF68780028F9D06979CF
:101B5000002962D000F0CFF8E9680020486200F068
:101B6000C5F8E87801281CBFE978022908D100F0FF
:101B7000B7F8DFF8F84400F0C4F820784008FAD14C
:101B800000F0B1F8FFF7E4FC0FF2445140E00DF132
:101B900015020121A22002F0DBFB7AE0E87802289E
:101BA0001CBFE97803292AD100230A220A21032035
:101BB00004F092FE002000F038FF002001F025F82C
:101BC000E878032804D1672004F07AFB00F088F855
:101BD0002879A0B10021297100F06FFB812804BF92
:101BE000012001F021F8FEF708FB317800F09EF8A3
:101BF00000F063FB812804BF002001F015F800F01D
:101C00005FF800F073F8B8F1FF0F03D00FF2C45182
:101C100000F00EF90FB0BDE8F08F00206870E968A1
:101C20004862BDF81E00DFF83414401E08604FF60D
:101C3000FF72DFF8309407A94846FFF74FFB804654
:101C4000B8F1FF0FAAD0069810B9E978032904D19A
:101C50001CB90DF1160200F0E5F8297839B10698A3
:101C600028B90A998C421CBF612004F029FB0FF2AD
:101C7000B0400FF2C04101F004FAE87802281CBF1E
:101C8000E978032983D1BDF81C0019F800108DF8FC
:101C9000151042460FF22841504601F0F2F9B8F112
:101CA000000F7FF4DEAE0FF2A4400FF2A84101F066
:101CB000E8F94FF0000BC2E67D0D0A005006002047
:101CC00005F10C0004F045BF05F10C0004F00DBF58
:101CD000421E491E92B289B205F10C0004F042BBCB
:101CE000622004F0EDBA672002F068BB00214FF4D7
:101CF000005003F0EFBA0020687105F10C0004F009
:101D000028BF00208DF8000004E09DF80010491C59
:101D10008DF800109DF80010FF29F6D105F05ABB90
:101D20000DF116020121462002F012BB491C1E22B1
:101D300091FBF2F21E2000FB121131707078411EEF
:101D4000717070472DE9FE43FEF779FF00218DF891
:101D50000110054601F090FF0446202001F07FFFAE
:101D60006A46FFF7DFFF0DF1010200F05BF800F0BB
:101D700053F84FF4FA400DF1020201A9684304F050
:101D8000ABFABDF80200BDF80410B94DFFF7A0FF93
:101D9000FFF79AFF0FF2FC260FF24C490FF2CC38F6
:101DA000B04F0CE06420B1FBF0F004F08DFB05F0C7
:101DB00027FB034642464946304601F062F96979FD
:101DC00011B968780028FAD03A466521EF2002F070
:101DD000BFFA002101203A5C5118401C6428FAD94E
:101DE0000020687068790028DCD000216971FFF755
:101DF00067FFE96800204862FFF775FF204601F0A1
:101E00002EFF6A4600F00EF800F010F8BDE8F783E8
:101E10006372630026747800612004F051BA8DF873
:101E2000148005AA0121462002F074BA0FF2A02105
:101E30000FF2782001F025B9F8B5FEF700FF04464F
:101E400003F08DFA874DA2B20DF102012846FFF78B
:101E500045FA04466A460121A22002F079FAFF2CD5
:101E60003ED00FF2D0210FF2B8200FF2D82601F0A9
:101E700008F9224692A1304601F003F99DF80020AE
:101E80000FF2E821304601F0FCF875A6ECB90FF22C
:101E9000C4210FF2B8200FF2C42701F0F2F804E0D9
:101EA000295C384601F0EDF8641CBDF80210A0B2C0
:101EB0004A1E9042F4DB681810F8011C0FF2A420AF
:101EC00001F0DFF8304601F0DCF803F0FAFB0246DF
:101ED0007DA10FF2F82001F0D4F8304601F0D1F8DE
:101EE000F1BDF8B5674C0FF21031012020700025CC
:101EF000FFF79EFF0026684605F00BFC0028FAD08D
:101F00009DF80000F10088404519761CB0B2022807
:101F1000F1DB0027534E09E0684605F0FAFB002884
:101F2000FAD09DF80000B9B27F1C7054B8B2A9B2C3
:101F30008842F1D3002020703046FFF718FBF1BD36
:101F400038B500F00DF8FFF78DF805460FF2BC210B
:101F5000FFF76EFFA9B22046BDE83440FFF707BB8C
:101F6000404C0023FF222146002002F04BBD000020
:101F70007CB5FEF764FE04460FF2A0214BA03C4E58
:101F800001F07FF8082000F03AF8302002F0C2F9A2
:101F9000112000F034F8002002F0BCF902210020EA
:101FA00004F02EFC222000F02AF8012002F0B2F901
:101FB0000121012004F024FC01230F220F21012024
:101FC00004F08AFC602002F0F9F9002501E004F039
:101FD000C7FC24FA05F1EDB26D1C281105EBD060A9
:101FE0004011A5EB401530790028FCD00022C8072D
:101FF000327159BF0021002001210020E7E78DF850
:1020000000006A460121704770B5FEF718FE00BF58
:102010000FF21C210FF2081050A5124E01F031F8FA
:102020000FF2301149A001F02CF80024A0B2641C7A
:10203000315C284601F025F8F8E700002DE98040E2
:1020400000F0DCFBBDE804400FF208217CA001F0A9
:1020500018B8074901204871704700002C1400404F
:102060007D0D0A00FC120020053100209A2B002073
:1020700050060020000020C000007A44F406002032
:10208000000010C0EA32002072636F5F66726571F3
:10209000000000007B264E204150492063616C6C9B
:1020A0002E2E2E2674787D0D0A0000007B264E20F1
:1020B0004150492063616C6C2E2E2E7D0D0A00006C
:1020C0006572726F7200000074696D6572000000C5
:1020D00053746F70436D640053324C5053656E649B
:1020E0004E4279746573000053324C5053656E64F0
:1020F0004E42797465734261746368005370695429
:10210000726166666963000053324C504765744ED5
:1021100042797465735265706F7274416C6C000023
:102120007B264E204150492063616C6C2E2E2E0D73
:102130000A00000053324C504765744E4279746572
:10214000730000002674780D0A0000007B25743AA5
:1021500020000000627974657300000030782578F3
:102160002C0000003078257800000000727373693D
:102170000000000026747826747826747826747817
:10218000000000007365715F6E756D006E61636BBA
:102190005F727800736F757263655F61646472006B
:1021A000646573745F61646472000000267478264D
:1021B000743478006167635F776F726400000000B9
:1021C0007061636B65745F6C656E000026743478B3
:1021D0000D0A000053324C504765744E42797465C5
:1021E000734261746368000053324C504765745207
:1021F00073736952756E000053324C5053656E64B0
:102200005061747465726E526177000053324C50A5
:1022100053656E645061747465726E0053324C5035
:1022200053656E645061747465726E4770696F00B7
:1022300053616D706C6544617461436C6F636B00D6
:102240007B264E204150492063616C6C2E2E2E203F
:102250007D0D0A0053324C5043616C6962726174A7
:102260006552636F00000000DFF84C0504F0AEBD5E
:10227000DFF8481501200870704718B5DFF84005F1
:1022800085B0016841F004010160142200680FF27A
:10229000086100F0040000906846009CDFF82445C7
:1022A00003F0F6F86946204605F05AFA012280212B
:1022B000204605F0D1FB06B010BDDFF80C05C07854
:1022C00070472DE9F847DFF8F474DFF80005DFF810
:1022D0000085B8608BB0DFF8E804816841F0020146
:1022E00081600024816801F002010591002600F060
:1022F00057F900250598ADF8024000F047F9A246CD
:10230000DFF8D00405F02CFA01200C210290039193
:1023100001940494082201A907F1080004F0E2FDE9
:10232000082107F1080004F0E6FC00F025F91D2063
:1023300005F067FC00F054F900F04AF900F043F9A9
:102340009DF80000010659BF9E218DF800109020D5
:102350008DF8000000F032F94FF6FF79002104E01B
:10236000BDF80220521CADF80220387818B9BDF82B
:1023700002204A45F4D1BDF8020048451FD0002094
:10238000ADF80200502E387016D321B900F047F88E
:1023900084B2012110E000F042F880B2011B8442B7
:1023A000B4BF4944891ED8F8000089B2B0FBF1F0EF
:1023B00045190AF1010A0021761C782ED5D300F0C8
:1023C00002F99DF80010B5FBFAF408065ABF4FF465
:1023D000C0604443E40200F0EEF8082107F1080071
:1023E00004F05EFC0021022004F00AFAA22000F0B2
:1023F000F0F8452000F0F5F8DFF8DC03B4FBF0F569
:1024000045434019011B641BA14238BF05462846BD
:1024100001F07BFA7D6028460CB0BDE8F08708210A
:1024200007F1080004F076BE2DE9F04F8BB01C20B8
:1024300005F0F5FBDFF88443DFF89013DFF8800345
:10244000DFF88C53A1600027816841F002018160B0
:102450000026816801F002010591B94600F0A0F85C
:10246000BA460598ADF8027000F090F8BB46DFF868
:10247000640305F075F90121029101970397049710
:10248000082201A904F1080004F02CFD082104F140
:10249000080004F030FC00F06FF81D2005F0B1FBDF
:1024A00000F09EF800F08FF800F092F800F08BF842
:1024B0009DF80000010659BF9E218DF80010902064
:1024C0008DF8000000F07AF8642001F077FF4FF6F5
:1024D000FF7804E0BDF80210491CADF80210207826
:1024E00018B9BDF802104145F4D104F1080004F018
:1024F0006DFCBDF80200404522D00020ADF802007E
:10250000BBF5FA5F207015D327B900F03AF886B210
:1025100001270FE000F035F880B2811B8642B4BF7E
:102520004144891E286889B2B0FBF1F081440AF168
:10253000010A00270BF1010B46F660508345CED30C
:1025400000F039F8082104F1080004F0A9FB00218B
:10255000022004F055F9A22000F03BF8452000F0DD
:1025600040F81C2005F04DFB622001F027FFB9FB6D
:10257000FAF00BB0BDE8F08F0F220F211D2005F0FF
:102580000FBB082104F1080004F0C4BD022007902D
:10259000099101200890069006A902200A90704730
:1025A0000599016841F0020101600321006800F013
:1025B00002000590704700208DF800006A46012156
:1025C000042001F0A7BE6A460121F12001F0C0BE3F
:1025D0008A208DF800006A460121022001F09ABE8F
:1025E00055208DF800006A4601216C2001F092BE52
:1025F00010B505F0AEFB002419E005F09DFC0A20A3
:1026000003F03FFF05F07EFC0A2003F03AFF05F0DF
:1026100075FC00F0F000802801D1012000E00020CE
:10262000641C012C0ADC04BF002805F019FC05F02D
:1026300065FC00F0F0008028DFD1EEE710BDF8B5B2
:102640008AB000208DF8000004E09DF80010491CBD
:102650008DF800109DF80000FF28F6D10DF1010261
:1026600001218E2001F074FE01909DF804004008C5
:10267000E7D10DF101020121F12001F069FE524C78
:102680009DF80100E070E07881281ABFE178912977
:1026900004F070F9FFF7ACFF05F0C8FC05F0C3FCCF
:1026A0004E4F48B904F06CF9FFF70BFE00287AD1C1
:1026B000384601F02AF976E002AA2021002005F030
:1026C0004EFC9DF808000025002818BFFF280BD1FC
:1026D000FFF7D3FDE07881281ABFE178912904F053
:1026E0004FF9FFF7EEFD65E002AE707860B10128AA
:1026F0000CD002280CD003280CD004280CD00528BC
:102700000CD0FF280CD01AE0354815E0354813E00E
:10271000354811E035480FE038460DE034480BE00D
:102720000020019102A94242114401AA897F11545B
:10273000401C0328F6DD019801F0E7F801E0FFF7FF
:10274000C0FD9DF82700012804BF01216170F078C9
:10275000207000209DF80D10022908BF0120A070F4
:1027600002AA0421212005F0FAFB029810F1010FC2
:1027700015D0002001950DF10B014242895C01AAA0
:102780001154401C0328F6DD019D1A49284605F026
:1027900063FC03D3184905F071FC00D800252846D6
:1027A00002F070FD6060E07881281ABFE17891291D
:1027B00004F0E6F80BB0F0BDA0060020980600205B
:1027C0001C38024000080240D806002000040040E7
:1027D000F40600200004024040420F0080F0FA029C
:1027E00000366E0140787D0180BA8C01006CDC02FD
:1027F000007519030050C3C70150C34780B500F0EE
:1028000045F89DF8001041F001018DF800106A466E
:1028100001216D2001F07EFD632001F0CFFD6420D9
:1028200003F02FFE622001F0C9FD0DF1020201212B
:102830008D2001F08DFD9DF80200C106F5D50DF14A
:1028400002020221942001F083FD6A4601216F20DB
:1028500001F07EFD0DF102009DF80010427861F359
:102860000602427002210DF102026E2001F052FDBB
:1028700000F00CF89DF8000000F0FE008DF800005C
:102880006A4601216D2001F045FD01BD6A46012126
:102890006D2001F05DBD000080000000010000001F
:1028A0000000000003000000000000002DE9F041DE
:1028B00004460E4617461D4600F08EF9761C7F1C16
:1028C000024687FB0667DFF8B083A8FB06010023FA
:1028D00008FB071105F0E4FB45432560BDE8F081E6
:1028E0002DE9F0410E4614461D460027804600F0B3
:1028F00073F902460023DFF884030F2105F0D0FBB3
:10290000B840804503D37F1CF8B20428EFDB2F705A
:1029100000F062F9F8400246C317A2FB080103FB6E
:102920000811DFF85423002305F0BAFBFF21B0FBA8
:10293000F1F1FE2903D3FF20307020700EE0891CD6
:102940002170C9B2B0FBF1F030702078411E2170C7
:1029500030780228ACBF401E01203070BDE8F08105
:102960002DE9FC4706460C46154600F0D1FFDFF87E
:102970001013DFF81023884228BF4008A0FB066828
:1029800030464146002305F08BFB82460AF1010CDC
:10299000DFF8F002A0FB0C79BA1B374669EB08039D
:1029A000C146A0FB0A68B81BCDE9002369EB08010A
:1029B0008B4202D82CBF8242E246FF20BAFBF0F0E5
:1029C000FE2803D3FF20207028700CE0801C2870A4
:1029D000C0B2BAFBF0F020702978481E2870207829
:1029E00008B901212170BDE8F3872DE9F8430446B9
:1029F0000D46164600F08CFF0246DFF88402824244
:102A000028BF5208761C2846F717A0FB068900FB52
:102A10000799DFF87062A6FB080106FB0911002385
:102A200005F03EFB2060BDE8F1831CB500F020F806
:102A300000F0F6F80CBF40F0800000F07F0009E0E5
:102A40001CB500F015F800F0EBF80CBF40F04000AA
:102A500000F0BF008DF800006A4601213A2001F025
:102A600059FC0090BDF80010DFF81C02018013BD76
:102A700004466A4601213A2001F06ABC80B50DF196
:102A800001026946FFF76CFF6A460221462037E0E3
:102A900001B582B002AA01214620FFE701F03AFC0D
:102AA00000907949BDF80000088007BD7CB5044658
:102AB0000E4615466A460221462001F049FC00F008
:102AC0000FF89DF800200880327020469DF8011014
:102AD00029709DF801209DF80010FFF786FF73BD57
:102AE00001906949BDF80400704780B500F041F8D5
:102AF00000F046F800F00CF80DF102020221482027
:102B000001F008FC0090BDF800105F48018001BD95
:102B10009DF800109DF8010001F0FC0101438DF8C3
:102B200000106A460121392001F0F4BBFEB500F027
:102B30004AF800F03BF800F02CF842789DF800309D
:102B40009DF8021021E01CB58DF802108DF80300ED
:102B5000144600F015F89DF8001001F0FC010C433C
:102B60008DF80040FFF7DDFF0DF1020202214A203F
:102B700075E70DF101030DF102020DF10301AFE65E
:102B80006A460121392001F0E3BB2046FFF78EFEA3
:102B9000F7BD0190BDF804103B4801800DF1020023
:102BA00042782A709DF80210317070479DF800102D
:102BB00001F003018DF8001039700DF102020221BD
:102BC000482001F0C5BB04460D4616461F466A461E
:102BD0000121392001F0BCBB80B500F099FE2B49E2
:102BE000884209D02A49884209D02A49884203D01C
:102BF0002949884203D005E04FF4FA4002BD48F26B
:102C0000142002BD48F28C7002BD1CB5FFF730FFE6
:102C100000F006F80CBF40F0100000F0EF0019E7DC
:102C20009DF80000012C70471CB500BF1BA1164C7D
:102C30000988ADF8001058B1012064218DF800001A
:102C40008DF8011004F0C6FB207840087C28F9D1EB
:102C50000DF1010201217B2001F05CFB01906A462D
:102C6000BDF80400208001217A2001F053FB009080
:102C7000BDF80000208013BD40420F00000040421C
:102C800081C3C90180221F489A2B002000366E01A3
:102C900040787D01006CDC0280F0FA020060F0B444
:102CA0000246106895681318506803EB5004C0077B
:102CB00021D54D441FE0F0BC02F10C00704713F821
:102CC000017B05F8017B491EF9D1A0B1B60813F8C4
:102CD000011B06F00306032E08BF13F8016B01EB7E
:102CE00006214942801C294405D011F8016B05F8E2
:102CF000016B401EF9D1A342DDD013F8016B16F031
:102D0000030104BF13F8011BC91C30090F28DAD1D5
:102D100013F8010B0F30D6E738B50446251D206A9D
:102D20002268451BE9B2201D904738B194F829006C
:102D30002D18201D206284F82950012032BD38B59D
:102D400004460846002500E06D1CE9B2415C0029FC
:102D5000FAD12268E9B2904728B194F829002D18D9
:102D600084F82950012032BD2DE9FC4E0446201D77
:102D700020624FF0000A04F114000D469146606293
:102D800084F829A0DFF8206315E02AB1211D216213
:102D900001E01100F9D1054627B100F062F97D206C
:102DA00001F8010D206A616A884203D300F05FF9DF
:102DB000002866D06D1C2978002900F04281252961
:102DC000707818BF262915D07B291CBF7D2923299F
:102DD00007D10028E6D0206A401C206200F8011DBF
:102DE000E0E7B0780028DDD0226A521C226202F8A7
:102DF000011DD7E715F8012F252A18BF262A04D16F
:102E000000F02FF901F8012DCCE726290BD150B1A4
:102E100001276E2A18BF4E2A06D000F022F97B2027
:102E200001F8010D00E00027287800224E2806D086
:102E3000542823D06E2802D074281FD031E0307877
:102E400059F804BB0028ADD037B1206A7B2101704E
:102E5000811C21622821417000F009F9002810D05E
:102E600000F0FCF800280CD0002F9BD0206A29210C
:102E70000170811C21627D21417093E700F0F5F81B
:102E8000002878D000F0EAF8002874D000F0EFF8BD
:102E9000002870D000F0E5F83A2001F8010D012279
:102EA0006D1C287895F801E0A0F13003DBB2981E84
:102EB000052835D2BEF1640F18BFBEF1750F2FD1B2
:102EC00059F8040B012180B2BEF1640F4FF0000CE1
:102ED000824606D15FEA004E03D5C043401C8C46B3
:102EE00080B248B14FF00A0E90FBFEF080B200288D
:102EF0000CF1010CF6D10BE00CF1010C08E0D4F858
:102F000020E00EF1010EC4F820E020200EF8010DA3
:102F1000604600F1010CC0B29842F0DB6D1C00E08D
:102F200000212B78681E002B3FF433AF322B18BFE3
:102F3000342B62D0482B55D0582B55D0632B0CD056
:102F4000642B1BD0682B4DD0702B18BF732B0BD06C
:102F5000752B13D0782B47D017E7206A411C2162CC
:102F600059F8041B017017E700F07FF818B100F062
:102F700075F80028F7D10020BDE8F68E002912BFB1
:102F8000504659F8040B80B228B900F06AF8302096
:102F900001F8010D00E70022642B0ED101040CD5CD
:102FA000236A5B1C23622D21B0F5004F03F8011D3D
:102FB00003D0404280B200284AD00A2190FBF1F3AE
:102FC00001FB1300D1B2521C0DF8010098B2F2E7D8
:102FD000D0B2216A1DF80000491C2162303001F88E
:102FE000010D35E000F045F8022259F8041B206A73
:102FF000C9B205F06DF92062CEE615F8010F682818
:1030000018BF48280BD100F034F815F8011C206ACD
:1030100032290AD159F8041B042289B2E9E7782839
:1030200018BF5828F1D06D1EB6E659F804BB04222B
:103030004FEA1B4105F04CF9206204221FFA8BF184
:10304000D7E700F014F8002895D094F8290093E70A
:103050001046421EC0B20028BAD19DE6594620460D
:103060006DE6216A491C2162704759F804BB20466D
:1030700052E6206A30210170811C21627821417062
:1030800070470EB410B58BB0084A009201460DAAE5
:103090006846FFF769FE012400B9002420460BB002
:1030A00010BC5DF810FB0000F8060020E583000866
:1030B0002DE9FC478146DFF8F00806680F46DFF887
:1030C000EC188E4228BF7608144600254FF6FF788C
:1030D000E9B2404600F011F9484503D26D1CE8B250
:1030E0000C28F5D1257048460021EAB272B9014694
:1030F000002000F0BBF9824680B2A0FB0601CDE9BA
:1031000000011FFA8AF20025521C11E0C5F12105C9
:103110002A4605F07BF900F0A7F982461FFA8AF0EB
:1031200000F5803200F074F8CDE9004800F101129A
:1031300000F074F8A7F800A0DDE900482C1B69EB4B
:1031400008083888434502D82CBFA242401C38806A
:10315000BDE8F3872DE9FF4780460F46164600F08D
:10316000DBFA9DF800100825C80658BF042500F0BA
:10317000E6FA4FF0010908B14FF0020900244B466E
:103180002A46E1B2FF2000F0D3F8804503D3641C47
:10319000E0B20C28F3D12246DFF814183270404612
:1031A0000E680021D3B283B9810A8005054689469D
:1031B000324604F075FF8246C0B2A0FB0601CDE99D
:1031C00002015FFA8AF2521C10E0C2F1170205F008
:1031D0001DF900F049F982465FFA8AF000F5807225
:1031E00000F016F8CDE9024800F2011200F016F8DE
:1031F00087F800A0DDE902482C1B69EB0808387845
:10320000434502D82CBFA242401C3870BDE8FF875E
:10321000D317A2FB064803FB06887047D317A2FB0F
:10322000064803FB0688621B68EB090370472DE91B
:10323000F0470646DFF87007D0F800808A46DFF8CE
:103240006C17884528BF4FEA580886B0914600277A
:103250000FF28070DFF85C2779B230F81100A8FB1C
:10326000000100F004F9864203D27F1C78B25A288C
:10327000EEDB30463E4671B289B36FF000410FF28B
:103280005472049174B20025039205902819411ECE
:103290005A290ED20399DFF81C27059F01EB400144
:1032A000002331F8020CA8FB000104F0F9FE381AE3
:1032B00000E004984DF825006D1C032DE6DB4FF06F
:1032C000FF3000215DF82120012AB8BF524282421E
:1032D00002D210460A19561E491C0329F2DB76B2A7
:1032E000092096FBF0F089F8000000EBC000361AC8
:1032F0008AF8006006B0BDE8F08758B50A46DFF8E6
:10330000A816DFF8A8360C689C4228BF6408130092
:1033100003D1A0FB0423184652BD00F58036A6FB5E
:10332000040101B0BDE85040C2F1210205F080B8AF
:1033300070B50A00DFF878160E6805D1A0FB06010B
:10334000800D40EA812070BD00F580700446C517ED
:10335000A4FB060105FB0611BDE87040C2F117028F
:1033600005F066B810B500F079F89A4228BF520807
:103370000FF2606301EBC101081833F81000A2FBE3
:1033800000236424A4FB020104FB0311BDE81040E8
:10339000DFF8242611E030B51446DFF814260D4678
:1033A0001168A0FB0101C00C40EA4130C90C2A465B
:1033B00000F05DF82246BDE83040002304F070BE06
:1033C000F0B5DFF8F825DFF8F83512189A4234BF67
:1033D000042408246143C2040C46430BDFF8D005E3
:1033E000A4FB0267CD1704FB0377046805FB027793
:1033F00030463946224600F03AF8411CA1FB04232E
:10340000921BBB41A0FB0445341B67EB0505AB4297
:1034100002D82CBFA2420846F0BD2DE9F047154660
:1034200000F01CF814469C4228BF6408C70C4603F1
:103430000320A0FB06898A4600FB079940464946BF
:1034400000F015F864388AF80000494640462246E4
:1034500000F00DF864382870BDE8F087DFF85025DB
:10346000DFF8483512687047054689463246002322
:1034700004F016BE70B5DFF84455DFF84465082443
:10348000AD18B542DFF82865356838BF04246243BB
:10349000DFF83045B5FBF3F3A242DFF8105505D352
:1034A000AB4228BF022204D2012205E0AB4202D384
:1034B0000322002301E00222012302700B7070BD81
:1034C00078B585B0054600F058F90446DFF8E00409
:1034D000DFF8F4140068884202D2012C2ED101E0FA
:1034E0002CD95CBB632000F069FFDFF8E0640020AA
:1034F0008DF8000001E000F0BBF89DF80000FF2807
:10350000F9D103F067FF317849080229EFD1601E35
:103510008041C00F00F022F9622000F04FFF002030
:103520008DF8000001E000F0A3F89DF80010FF29DD
:10353000F9D103F04FFF30784008F0D10DF10D02C2
:1035400003A9DFF88C04FFF768FF03AA0221092012
:1035500000F0E0FEA8680DF1060202A9FFF7A8FD41
:10356000BDF80800000A8DF80C0003ACBDF8080097
:10357000607001AA29799DF806000143A1700DF140
:103580000501E868FFF7E6FD0DF10F02012100F0EB
:1035900094F9E1789DF8040001F0F00101439DF8F1
:1035A00005002071E1700DF1020228690DF103019F
:1035B000FFF73DFE9DF803009DF8021041EA00115F
:1035C0008DF8111003AA06210E2000F0A3FE03AA15
:1035D0000321622000F0BCFE2879502809D09DF814
:1035E0000C10607801F07F018DF80C1000F0FD00E8
:1035F00008E09DF80C0040F080008DF80C00607829
:1036000040F002006070A07800F0FC00A070A96893
:10361000B1F57A5F0ED3B1F5FA4F38BF40F0010033
:1036200007D34FF22442914234BF40F0020040F0F1
:103630000300A07003AA0321622000F06BFE0DF1CD
:10364000010200F011F89DF8010040F080008DF8B3
:1036500001000DF101020121142000F05BFE286839
:1036600000F0A9F806B070BD0121142000F070BE72
:103670009DF80010491C8DF800107047FEB50446F7
:1036800000F04FF89DF800109DF80160C8064CBF8F
:103690000825042501F00F0036049DF8021046EAC3
:1036A00000669DF8030046EA0126064300F047F84D
:1036B000471CFAB229463046FFF76DFE20606A4685
:1036C000062100F0E5F80290BDF8081000F069F955
:1036D0009DF8021001F0F000207101F00F019DF83B
:1036E00000209DF8010040EA0220FFF706FEA060DE
:1036F000FBB29DF803109DF804002A4601F00F016B
:10370000FFF716FEE0609DF8050000F00F010009CC
:10371000FFF728FE2061F7BD6A460121052000F071
:1037200017BE6A460421052000F012BE0190DFF8A2
:103730009C12BDF8040008809DF800007047E0B5B9
:1037400000F007F800F024F812F0080018BF01207C
:103750000EBD6A4601216D2000F0FABD1CB504467D
:1037600000F01FF800F0D7F80CBF00F0EF0040F0B9
:10377000100000F01BF86C2008E1E0B500F011F833
:1037800000F006F802F01002501E8041C00F0EBD7E
:103790000190DFF83812BDF804009DF80020088081
:1037A00070476A4601216C2000F0D2BD8DF8000000
:1037B0006A46012170477CB50646FFF7C0FF411CF1
:1037C000C9B23046FFF7FCFD0446DFF8F001DFF830
:1037D000F01101258019884238BF0025FFF7AFFF9F
:1037E000431CDBB232460DF101010DF10200FFF77F
:1037F00041FE6A460121652000F0AAFD9DF8000007
:103800009DF8011000F0FB0040EA8100FFF7CEFFB9
:10381000652000F07FFD200E9DF802108DF8074016
:1038200000F00F0040EA411040EA05108DF8040056
:10383000210C01A801AA4170210A817005200421F0
:1038400000F068FD00F0AAF8002076BD1CB5FFF777
:1038500068FFFFF79DFFD0064CBF08240424FFF744
:103860006EFF9DF8003003F00F03421C9DF801002D
:10387000000440EA03609DF8023040EA03209DF80E
:103880000330D2B221461843FFF785FD16BD032150
:103890000E2000F05DBDE0B56A46FFF7F8FFFFF7C8
:1038A00077FF9DF802109DF8010001F00F0140EA3A
:1038B0000220FFF722FD0EBD0221112000F048BDBD
:1038C00000F028FD0090BDF80010DFF80001018035
:1038D00001BD1CB5044600F013F89DF8001001F07E
:1038E0000F010C438DF800406A46012110204DE085
:1038F000E0B500F005F8FFF719FF00F0F0000EBD8D
:103900006A460121102000F023BD29490860704754
:103910002748006870479DF80000012C7047044656
:103920006A460121622000F013BD80B50F29AEBFA9
:1039300001214900C1F11D018DF8001000F013F8BC
:10394000BEE7E0B500F00FF800F002FD0190BDF811
:10395000041000F026F89DF80000C0F11D0000EBF7
:10396000D07040100EBDC0F161006A460121C0B2A6
:1039700070471CB5FFF7D3FF9DF8001001F0F80168
:103980000C438DF800406A460121622000F0C2FC21
:103990000090BDF800100D48018013BD0090BDF8E7
:1039A00000100A48018070479406002081C3C901B5
:1039B00094060020A0F7030080BA8C0120C4C5CE75
:1039C000210CB70D00A493D680C3C9019A2B002007
:1039D000E0930400411F0F1F041EC81C8B1B351AE7
:1039E0001719EB1626159D11A310C00FE00E250E1A
:1039F000590DB60C810B8F0AC7084C08DF076C07FE
:103A00000F07AA065806BF05460563042604ED0302
:103A1000B603870355032C03DF02A302310212020F
:103A2000F601DA01C301AA0196016F0151011801E3
:103A30000901FB00ED00E200D500CB00B800A900B1
:103A40008C0085007E00770071006A0065005C00D4
:103A50005400460042003F003B0038003500330070
:103A60002E002A00230021001F001E001C001B0046
:103A70001900170015001200110010000F000E00B1
:103A80000D000D000C000B00E0B500F017F900F080
:103A90002AF992098DF8002005D101F0FBFA10B146
:103AA00004208DF80000BEE01CB500F099F89DF8E8
:103AB00000108DF80140200A60F301018DF800101C
:103AC0006A4602212B202DE0E0B56A4602212B2018
:103AD00000F03EFC00F0D8F89DF80110000200F460
:103AE0004070491C084380B20EBD1CB500F078F848
:103AF00000F065F816E0E0B500F073F800F0C4F8E7
:103B000080080EBD1CB500F016F800F0DCF80CBF04
:103B100040F0100000F0EF00FFE78DF800006A466B
:103B20000121302000F0F6FB0090BDF80010DFF816
:103B3000C801018013BD04466A460121302000F00F
:103B400007BC1CB500F01BF89DF8001001F0FD014A
:103B500041EA440100F00DF8E4E71CB500F00FF86D
:103B60009DF8001001F0FB0141EA840100F001F82A
:103B7000D8E78DF800106A4601212F2070470446CF
:103B80006A4601212F2000F0E3BB3EB50C46002120
:103B900001AACB0020FA03F55554491C0429F8DB8F
:103BA00000F01FF800F00BF800F0B4FB01AA0421AC
:103BB000332000F0AFFB00F00EF8018037BD9DF818
:103BC000001001F0030141EA84018DF800106A46FB
:103BD00001212B2070470090BDF800104648704727
:103BE00004466A4601212B2000F0B2BB1CB500F050
:103BF00074F800F068F80CBF40F0010000F0FE001F
:103C000000F065F88EE7E0B56A460121AB2003E0DD
:103C1000E0B56A460121AA2000F09AFB01903649DE
:103C2000BDF8040008809DF800000EBDE0B56A46AE
:103C300001214520F0E7E0B56A4601214320EBE78A
:103C4000E0B56A4601214420E6E7E0B56A46012175
:103C50004120E1E7E0B56A4601214220DCE71CB5DE
:103C600000F02BF89DF8001001F0CF010C438DF807
:103C7000004000F01EF855E7E0B500F01FF800F036
:103C800003F800F030000EBD01901B49BDF80400A0
:103C900008809DF8000070471CB5FFF74CFF9DF8A9
:103CA000001001F0F3010C438DF8004037E78DF868
:103CB00000006A4601212E20704704466A46012111
:103CC0002E2000F045BB9DF80000012C70478DF8B8
:103CD00000006A4601214020704704466A460121DF
:103CE000402000F035BB01900349BDF804009DF869
:103CF00000200880704700009A2B0020014648B140
:103D0000B0FA80F18840C91CC1F58461090501EB56
:103D1000D021400570470000B0B581EA030C0CF0DB
:103D2000004C40F2FF7515EA11541DBF15EA1357F8
:103D3000AC42AF4239E0E41923EA455343F480131F
:103D4000C90241F0004141EA505EC7021100A7FBE1
:103D5000020200284FF00000EEFB01204FF00001AE
:103D6000E3FB072118BF42F001024018002149413E
:103D7000E3FB0E01A4F580640F0302D25200404120
:103D8000494154F101046CDD470872F1004250F1E1
:103D9000000051EB0451A1F580115CBF41EA0C0118
:103DA000B0BD4CEA05510020B0BD05EA1357AC4246
:103DB00014BFAF4241E050EA410E1CBF52EA430E2D
:103DC00002E061460020B0BD24423C441BD15FEAC2
:103DD000070EF6D0090302BF01460020AEF1140E13
:103DE000B1FA81F7AEEB070401FA07FE0C37C7F111
:103DF000200100FA07F7C8404EEA000E23EA4553B7
:103E000043F48013A2E733F00043B3FA83F704BF0F
:103E1000B2FA82FE77440B3FE41BB7F1200E2FBFAE
:103E200002FA0EF3BB40C7F1200E22FA0EFE38BF95
:103E300043EA0E03BA40641C82E750EA410E14BF05
:103E400052EA430E6FF000014FF4001717EB430FD7
:103E50008ABF194617EB410FB5E74CEA0551002020
:103E6000B0BDD4F10104B4F120070FDAC4F120078A
:103E7000520828BF42F0010210FA07F501FA07F7CD
:103E8000E1BF2A43E0403843E1400FE0352C98DCA5
:103E9000C7F1200452EA400220FA07F218BF42F0AC
:103EA000010231FA07F0A1400A43002172F10042F9
:103EB00050F1000051EB0C01B0BD0000F0B540F234
:103EC000FF7581EA030C0CF0004C15EA11541DBF7C
:103ED00015EA1357AC42AF42E5E0BC41C1F3130110
:103EE000C3F31303801A994143F4801304D2641E70
:103EF0004000494180185941C90241EA5051B1FB83
:103F0000F3F603FB1611A2FB0675D7EBC020A941FF
:103F100002D2761E80185941C90241EA5051B1FBC4
:103F2000F3FE03FB1E11A2FB0E75D7EBC020A941C7
:103F300003D2AEF1010E80185941890241EA905135
:103F4000760546EA8E2EB1FBF3F603FB1611A2FBB3
:103F50000675D7EB8020A94102D2761E8018594100
:103F6000C90241EA50514EEA060EB1FBF3F603FBDB
:103F70001611A2FB0675D7EBC020A94102D2761E0E
:103F800080185941C90241EA5051B1FBF3F703FBD4
:103F90001711A2FB0735D3EBC020A94167F1000739
:103FA0000CBF004247F0010766F3D5274FEA1E31E8
:103FB000B80814F5806412DDBD0775F1004250EBBE
:103FC0000E5051EB045111F5801F5CBF41EA0C010A
:103FD000F0BD4CF07F6141F0E0410020F0BDBD0735
:103FE0006D0840EA0E5041F48011D4F10104B4F19F
:103FF00020060ADAC4F120060200E04001FA06F3C6
:10400000E1401843B24015430EE0342C13DCC6F1F6
:10401000200445EA40056D0820FA06F2154321FA0E
:1040200006F0A1400D43002175F1004250F100005F
:1040300051EB0C01F0BD00205FEA0C01F0BDCFB9DF
:1040400092185B41B3FA83F704BFB2FA82F6BF1944
:104050000B3FB7F120062FBF02FA06F3BB40C7F1B2
:10406000200622FA06F638BF3343BA401CB1E419E1
:10407000641E33E77F4231F00041B1FA81F404BF9E
:10408000B0FA80F6A4190B3CB4F120062FBF00FA59
:1040900006F1A140C4F1200620FA06F638BF3143EC
:1040A000A0403C1B1AE7AC421ABF05EA1357AF42C7
:1040B00012E050EA41061CBF52EA4306BFE750EA4D
:1040C0004107304661461CBF41EA0551F0BD52EA46
:1040D000430C08BFC143F0BD00204FF4001616EB9F
:1040E000410F98BF16EB430F08BF16EB410F24BFDB
:1040F000C14305E016EB430F0CBF61464CEA055186
:10410000F0BD000001F000428B1AA3F16051B1F53F
:10411000801F0ADBB1F17F6F1FD242EAC102C100EA
:1041200071F1004142EB507070470B15C3F1090368
:10413000212B10D2890241EA905180020128494185
:1041400041F0004121FA03F0C3F12003994071F1DD
:10415000004150417047100070476FF0000013EBB2
:10416000103F5CBF000E42EAC050704710B5D64801
:10417000D64C86B000F0AAF8012200F09BF801921C
:104180000020009102900322039200F08AF840225E
:1041900000F08BF88020009000F088F802200021C9
:1041A00000F02EF80122802100F0FFF801224021CA
:1041B00000F0FBF8C64C204604F0B0FAF0B9C54850
:1041C00020604FF4827060600820E0610020A060F1
:1041D00060612061A0620720E0620020E060206250
:1041E0004FF40070A06100206062204604F030F9B6
:1041F00020B92068016821F04001016006B010BDBF
:10420000009001912046694603F0AABA38B5AE483D
:10421000AE4CAF4D86B000F059F8022200F04AF8DB
:104220000091012002900321052003910490019246
:1042300000F037F805204022049000F036F8802086
:10424000052100900491FFF7DDFF02200121FFF717
:10425000D7FF284604F062FAF8B99E4828604FF468
:10426000827068600820E8610020A86068612861A9
:10427000A8620720E8620020E86028624FF400701E
:10428000A86100206862284604F0CAFA00B1FEE77F
:104290002868016841F04001016000F089F807B02A
:1042A00030BD69468C4803F05BBA009269462046EF
:1042B00003F056BA0599016841F001010160082137
:1042C000006800F00100059005987047416841F4CE
:1042D00080514160416801F4805105910599016860
:1042E00041F001010160026802F0010205920599A6
:1042F000016841F002010160026802F002020592C9
:104300000599016841F001010160026802F00102B3
:1043100005927047F0B5C3B00C460021ADF804100B
:104320008DF805001546694E00F089F800F060F838
:10433000674F03AA01A900F034F800F085F800F0F7
:104340008DF89DF80C008DF809009DF80D0022E015
:10435000F0B5C3B004460D46164603A881A15C4FD4
:104360004FF4807201F094F88DF80D400022574C04
:1043700000F01AF800F09FF84FF47A700090EBB25A
:10438000324600F00DF800F013F89DF804008DF8A7
:1043900009009DF805008DF80800029843B0F0BDB3
:1043A00003A9384604F06EB80221204603F054BB3E
:1043B00001220221204603F04FBB00001FB500BFC1
:1043C000A8A1424C0988ADF806108DF8070000221C
:1043D000FFF7EAFF00F00CF801AA0DF106013C48D6
:1043E00004F050F8FFF7E4FF00F05BF804B010BDF4
:1043F0004FF47A700090022370470000F8B504462D
:1044000036A0324E0088324FA4B00D46ADF80800F9
:1044100000F015F8FFF7ECFF03AA02A9FFF7C1FFB0
:1044200000F012F800F01AF89DF80C008DF8050065
:104430009DF80D008DF80400019825B0F0BD002214
:104440000221304603F008BB4FF47A700090E3B2CB
:104450000DF10E022946384604F014B8012202215B
:10446000304603F0F9BA0000F8B5A4B004460D4692
:104470000DF10C001AA1154E154F842201F008F819
:10448000FFF7DDFF00F017F84FF47A700090E3B209
:104490002A46FFF785FFFFF7E1FF00F002F825B09D
:1044A000F0BD9DF804008DF809009DF805008DF819
:1044B0000800029870474FF47A700090022301AA16
:1044C00003A9384603F0DEBF1C380240000002405A
:1044D00008320020003001400004024000FF0000CC
:1044E00001FF0000000000000000000000000000CC
:1044F00000000000000000000000000000000000BC
:1045000000000000000000000000000000000000AB
:10451000000000000000000000000000000000009B
:10452000000000000000000000000000000000008B
:10453000000000000000000000000000000000007B
:10454000000000000000000000000000000000006B
:10455000000000000000000000000000000000005B
:10456000000000000100000000000000000000004A
:10457000000000000000000000000000000000003B
:10458000000000000000000000000000000000002B
:10459000000000000000000000000000000000001B
:1045A000000000000000000000000000000000000B
:1045B00000000000000000000000000000000000FB
:1045C00000000000000000000000000000000000EB
:1045D00000000000000000000000000000000000DB
:1045E00000000000000000000000000000000000CB
:1045F00000000000000000000000000000000000BB
:1046000000000000000000000000000000000000AA
:10461000000000000000000000000000000000009A
:10462000000000000000000000000000000000008A
:10463000000000000000000000000000000000007A
:10464000000000000000000000000000000000006A
:10465000000000000000000000000000000000005A
:104660000000000080000000DFF8F8030021017066
:10467000002200F2144100F2014002708274FF2017
:104680000A808A70C87070476128A8BF572107DA6E
:104690004128A8BF372103DA3A28B4BF30210021CE
:1046A00006E0DFF8C013084400F2014148780978B9
:1046B000401AC0B27047DFF8AC13084490F8010408
:1046C0000844401C704700002DE9F84FDFF8947350
:1046D000002407F214468046894635E05FFA89F0E7
:1046E000002838D018F8010B8DF80000A9F1010955
:1046F0009DF800000D2827D00A2831D1012400257B
:10470000222831D101213A78042A1DD8DFE802F0AD
:104710000338404368004CBBB5B961B30220387020
:104720003588B5F5806F24D03978012905D19DF8F9
:10473000000000F06EF88DF8000079199DF8000077
:1047400048703088401C3080B8F1000FC6D16846F0
:1047500002F0DFFF002859D00128C9D001203CE039
:1047600000242028CBD101250021CCE700F063F8FC
:10477000EAE7062031E07B2814BF01200320CEE7C2
:104780002543CDD097F81304112832D1032024E01B
:104790000029F7D1C4E796F803A0BAF1FF0F14BFC0
:1047A0004FF0010B4FF0000B7D2803D1BBF1000F40
:1047B00012D1E7E7FFF768FF10280BDABBF1000F13
:1047C00006D000EB0A108DF80000FF20F070A7E77C
:1047D000F070B9E7002DB7D10520B0700420387013
:1047E000002CB1D0B07808B100F030F9FFF73CFFF1
:1047F000AAE7401C87F81304C0B23188384480F817
:1048000001140020002C38709ED0AFE72046BDE890
:10481000F28FA0F141011A293CBF2030C0B270478D
:10482000904A92F818140818C0B2104490F8013455
:104830001A44507870472DE9F84F8B4C8B4D2078F7
:10484000002608B934E06D6870B2FFF734FF814686
:10485000F0B2FFF726FF82460BE018F8010BFFF7D6
:10486000D8FF834617F8010BFFF7D3FF834504D029
:1048700010356968B9B12F68C846A8EB09005045E2
:10488000EBD138780028F3D16DB1A8680178761C97
:104890006E29D8D0667100274FF0FF394FF6FF7AA6
:1048A0004FF0FF080CE00220E070E07800F0CEF856
:1048B000BDE8F14FD8E6E078002835D1761C7F1CA2
:1048C0002278A868F1B2914234D2F9B210F801B05E
:1048D000F8B2FFF7A5FFBBF1000F30D0BBF16201CA
:1048E0001CD0113902D0891E02292BD8BBF1750FBB
:1048F00008BFC3460AD0BBF1760F08BFD34605D028
:10490000BBF1730F0CBF4FF07F0BCB460121F8B208
:1049100000F01AF88345CED20420C5E7222818BF3C
:104920007B28C8D00520BFE7E0780028BDD15049DA
:104930000D60BDE76179521A805C0028F4D0032233
:10494000E270B2E70720AFE72DE9F047454A02F2EF
:1049500016468846B1780818C1B21144C0B291F821
:10496000011411444F1CFFF79CFE814600244FF0B8
:104970000A0A00254D4517DA785D5FEA080103D081
:10498000002D08BF2D280DD0782803D124B94FF071
:10499000100A07E05828F9D0FFF776FE504506DAEE
:1049A0000AFB04046D1CE5E72046BDE8F0870520FE
:1049B00030700020F9E70021C6E738B50446FFF75C
:1049C0002FFF2D280CBF0125002529462046FFF783
:1049D000BBFF0DB100B2404200B232BD70B50C4613
:1049E000204991F818542D18C6432CB1E8B2FFF7AE
:1049F00058FEA0EBD670207068B2FFF75CFE00EBAB
:104A0000D67070BDF8B50C4615461E466946FFF7D0
:104A1000E5FF07469DF800102846884288BF0846F3
:104A20008DF80000002E1ABF9DF800002D1A0025F9
:104A3000E9B2204603F0EAFF9DF80020EDB23946C6
:104A4000601900F015FD9DF80000F2BDDFF824109C
:104A500051F8201008A000F095BB05490868002215
:104A60000A6070477C2300208F270020A0000020D0
:104A7000D83200200000002025730D0A000000003D
:104A80001FB50446002000F002FB6A4601213A20CF
:104A9000FFF75EFC9DF8000040F0010000F0C5F853
:104AA0003A20FFF737FC2188A078090A41EA800103
:104AB0008DF800100DF1030220888DF80100E07AD6
:104AC000C0008DF80200617A012904BF40F0800027
:104AD0008DF8020001212E20FFF73AFC9DF803001B
:104AE00000F00F008DF8030001AA02212F20FFF72C
:104AF0002FFC217A9DF8040001290CBF40F0010031
:104B000000F0FE008DF804006A469DF804009DF850
:104B1000051000F0F9008DF8040001F01301A07AEF
:104B200001438DF80510607B01280CBF41F0100196
:104B300001F0EF018DF80510217B9DF8050001299A
:104B40000CBF40F0010000F0FE008DF805000621CA
:104B50002B20FFF7DFFB00206168C200D1400DF879
:104B60000010401C0428F7DB6A4604213320FFF7BD
:104B7000D1FB02905249BDF808000880A07A00B12C
:104B80000120FFF733F86A4601211120FFF7E0FB0F
:104B90009DF8000000F0CF0000F047F81120FFF76B
:104BA000B9FB1FBD1FB504466A4606212B20FFF73F
:104BB000CFFB9DF800108908A1706A469DF800108F
:104BC0009DF80100090201F44071014321809DF824
:104BD0000200C109C0F3C000E07261729DF80400D8
:104BE00000F0010020729DF8050000F0E001A172C4
:104BF000C0F3001100F00100617320730421332021
:104C0000FFF7A6FB029000222D48BDF80810018096
:104C1000626000201DF800206168C3009A40401CBB
:104C2000114304286160F5DB1FBD8DF800006A4662
:104C300001217047FFF76EFB0090BDF8001020487F
:104C4000018013BDE0B500F00AF800F033F89DF8DC
:104C50000020088012F0080018BF01200EBD6A462F
:104C600001212D20FFF774BB1CB50446FFF7EAFFB6
:104C700000B1641C2004000E8DF800008DF8014086
:104C80006A4602213120D5E71CB56A46022131204F
:104C9000FFE7FFF75DFB00F00DF89DF8014008808D
:104CA0009DF8000044EA0024FFF7CCFF00B1641E29
:104CB000A0B216BD01900249BDF804007047000083
:104CC0009A2B00201FB50446002000F0E0F900F008
:104CD000F6F89DF8000040F0010000F0EAF8FFF758
:104CE00019FB2188A078090A41EA80018DF800109B
:104CF0000DF1030220888DF801000121607AC001C6
:104D000040F008008DF802002E20FFF721FB9DF8EF
:104D1000030000F00F0040F0C0008DF8030001AA6E
:104D200002212F20FFF714FB217A9DF804000129AE
:104D30000CBF40F0010000F0FE008DF804006A4650
:104D40009DF804009DF8051000F0F9008DF80400AE
:104D500001F01301A07A01438DF80510207B012892
:104D60000CBF41F0100101F0EF018DF80510E17A60
:104D70009DF8050001290CBF40F0010000F0FE0085
:104D80008DF8050006212B20FFF7C4FA002061688A
:104D9000C200D1400DF80010401C0428F7DB6A4621
:104DA00004213320FFF7B6FA02904749BDF8080006
:104DB0000880A07A00B10120FEF718FF6A460121A1
:104DC0001120FFF7C5FA9DF8000000F0CF008DF824
:104DD00000006A4601211120FFF79CFA1FBD1FB594
:104DE00004466A4606212B20FFF7B2FA9DF8001010
:104DF0008908A1706A469DF800109DF8010009021B
:104E000001F44071014321809DF80200C0096072E5
:104E10009DF8040000F0010020729DF8050000F0EC
:104E2000E001A172C0F3001100F001002173E072F3
:104E300004213320FFF78CFA029000222248BDF8AB
:104E400008100180626000201DF800206168C30026
:104E50009A40401C114304286160F5DB1FBD80B5FA
:104E6000801C0104090E8DF800108DF801006A46BF
:104E700002213120FFF74EFA00901349BDF80000DF
:104E8000088001BDE0B56A4602213120FFF760FAD3
:104E900000F003F8801E80B20EBD01900A49BDF8F3
:104EA00004009DF8002008809DF8010040EA0220DF
:104EB00070478DF800006A4601213A2070476A4623
:104EC00001213A20FFF744BA9A2B002038B5044656
:104ED00000F096F80020FEF789FE20788149824D87
:104EE0000870012803D1607800F2171003E002284F
:104EF00021D160780F3080B2FEF7D6FD1220FEF788
:104F0000F4FD12212846FEF740FE0120FEF719FEAF
:104F100000F03DF800F040F86A460121F120FFF76B
:104F200017FA9DF8000000F0C000C0282BD1012026
:104F300000F080F827E0032810D16078133080B2A9
:104F4000FEF7B2FD0A20FEF7D0FD0A214FF0746093
:104F5000FEF71BFE0120FEF700FE14E0042812D12C
:104F60006078273080B2FEF79FFD1220FEF7BDFD6E
:104F700012212846FEF709FE0120FEF7E2FD00F0AF
:104F800006F800F009F8A07800F041F831BD6A4653
:104F900001211120FFF7DCB99DF8000000F0CF00DF
:104FA00040F020008DF800006A4601211120FFF733
:104FB000B1B938B50446FEF787FD4A4D2978012975
:104FC00006D140F21711884213DBA0F2171010E04F
:104FD000022903D10F280CDB0F380AE0032903D183
:104FE000132806DB133804E0042902D12728A8BFC0
:104FF0002738607000F03BF8A0702878207031BD31
:1050000080B5002100916A4604212D204EE03EB576
:1050100000F00AF800F022F801F0C0010C438DF80E
:1050200000400121382012E004466A460121382060
:10503000FFF78EB93EB5FFF7F7FF00F00FF801F06C
:105040003F0141EA84118DF8001038200121FFF75B
:1050500061F90090BDF80000288037BD01906A46D4
:10506000224DBDF804009DF8001028807047E0B57F
:10507000FFF7DBFF00F003F800F03F000EBD0190EA
:105080001A49BDF8040008809DF8000070471549D2
:105090000870704713480078704780B5010A8DF892
:1050A00000108DF801006A4602213120FFF732F925
:1050B00000900E49BDF80000088001BDE0B56A46C9
:1050C00002213120FFF744F901900849BDF804009E
:1050D0009DF8002008809DF8010040EA02200EBDE6
:1050E00000000000EB32002000405AE29A2B002022
:1050F000E0B56A460121A220FFF72AF900F004F882
:105100009DF8000092380EBD01900249BDF80400E0
:10511000088070479A2B0020C2175040801AB0FABE
:1051200080F10AD08840D1F19D01D20742EAC151F5
:10513000020672F1004241EB10207047C0F3C751E4
:1051400081B1FF2906D0C110400721F0E04101F1F3
:105150006051704741020CBF40F4E0016FF0004124
:105160000020704700F0004100020AD0B0FA80FC35
:1051700000FA0CF001F16051A1EB0C5101EBD021D0
:10518000400570470EB4C0B5024603A80021019047
:10519000009101AB0121044878440C3003F03AFC43
:1051A00006BC5DF810FB00BFD3780000FF2212EAB6
:1051B000D05C1DBF12EAD153944593422BE09C442E
:1051C000D30780EA01021A4043EA002043EA0121A2
:1051D000A1FB0030C04238BF40007CF17F010BDBF7
:1051E000FE294ADA5B0842EAC15153EA006373F1CF
:1051F000004C51EB10207047D1F1080CDCF120017C
:105200002FDB5B0810FA01F10B4320FA0CF073F16D
:1052100000415041704794451CBF02EAD15393426C
:1052200080EA010202F000421DD0400019D049007E
:1052300017D05BB9634514D00902B1FA81F39940E4
:10524000BCEB030CC00140F00040C1E70002B0FA23
:1052500080FC10FA0CF0B3EB0C0CC90141F00041DA
:10526000B6E71000704740000AD0490008D010F19E
:10527000807F94BF11F1807F02E042F0FF407047D1
:10528000D0437047C0F3C7517E390EDDC217D1F14C
:10529000200106DD000240F00040C84010445040AC
:1052A0007047D04380F000407047002070470000F6
:1052B00080B5427881780A438DF800206A460078EC
:1052C0000121FFE7FFF726F800903049BDF8000004
:1052D000088001BD7CB504460D466A460421502075
:1052E000FFF736F80026002000F042F89619401C1F
:1052F0000428F9DB002D0CBF26EA04043443002007
:10530000C0F10302D20024FA02F30DF80030401C71
:105310000428F5DB00F003F800F006F873BD6A46D8
:1053200004215020FEF7F6BF0090BDF8001017488A
:10533000018070471CB504466A460421FA20FFF735
:1053400007F8019000F01BF8C1B249426944401CC3
:10535000C97804F8011BC1B20329F5DD13BD80B57E
:1053600000F001F8B0E76A460421FA20FEF7F0BF2A
:105370001DF80020C0F10303DB009A407047034989
:10538000BDF8040008800020704700009A2B002020
:10539000E0B56A460121902003E0E0B56A460121AC
:1053A0008F20FEF7D5FF01900C49BDF8040008805E
:1053B0009DF800000EBD1CB500F012F83C20FEF771
:1053C000C7FF00F011F83C20FFE7FEF7A3FF0090B5
:1053D000BDF800100148018013BD00009A2B002089
:1053E00004466A46012170479DF8001001F08001D3
:1053F0000C438DF800406A46012170471CB5FFF749
:10540000EFFF3F20FEF7A4FFFFF7EEFF3F20DCE7B2
:105410001CB5FFF7E5FF3920FEF79AFF9DF8000065
:10542000012C0CBF40F0040000F0FB008DF80000E0
:105430006A4601213920C8E7E0B56A460121F0201B
:10544000FEF786FF00F001F80EBD01900749BDF898
:10545000040008809DF80000704780B56A4601216D
:10546000F120FEF775FF9DF8000002BD9A2B002089
:1054700062B38B0708D0521E11F8013B00F8013BC4
:1054800000F024808B07F6D1830740F0208000BF16
:10549000103A07D330B4B1E83810103AA0E8381009
:1054A000F9D230BC530724BFB1E80810A0E80810B7
:1054B00044BF51F8043B40F8043BD20724BF31F805
:1054C000022B20F8022B44BF0B7803707047121F89
:1054D00017D35B0009D151F8043B20F8023B1B0CA9
:1054E000121F20F8023BF6D20BE051F8043B00F803
:1054F000013B1B0A20F8023B1B0C121F00F8013B6A
:10550000F3D238BF121D521E24BF11F8013B00F820
:10551000013BF8D8704700002DE9F84F84B00BB17B
:1055200000241C600446254600E06D1C2878A0F18C
:105530000903052BF9D32028F7D02D2816BF2B28D7
:1055400015F8018B4FF02B08002A019103D4012A92
:1055500001D0252A03DB002947D00C6045E0002A52
:105560000ADD102A04BF2878302802BF697841F08C
:10557000200178290ED10AE02878302818BF0A22A5
:1055800008D1687840F02000782802D11022AD1CA4
:1055900000E00822039500E06D1C28783028FBD03D
:1055A0004FF0000925A02E46CA4602908DF8000053
:1055B000934607E09DF80070C71BCA46FFB20BFB7D
:1055C00009796D1C2978A1F141001A28029838BF89
:1055D00020315A4604F02CF80028EBD10399A94257
:1055E000484604D1019800B1046000201EE000BFCD
:1055F0001CA1AE1B11F80B10761A002E0FD405DC7F
:10560000C71B03D3B7FBFBF1514508D0AFF30080B4
:10561000049808B1012101604FF0FF3003E0B8F1B8
:105620002D0F08BF4042019901B10D6005B0BDE8E2
:10563000F08FFFE700230A2200216DE7303132337B
:105640003435363738396162636465666768696A1C
:105650006B6C6D6E6F707172737475767778797A22
:105660000000000000002115110E0D0C0B0B0A0AA2
:1056700009090909090808080808080807070707A9
:1056800007070707070707070700000070B51C207A
:1056900002F0C5FADFF84C58DFF84C482868DFF80C
:1056A0004C68E0603068416A21801C2002F0A9FA51
:1056B0002868E168814203D0E0603068416A218057
:1056C00070BDDFF82418C86809884CF2503202FB1C
:1056D0000010704780B500F066F9C1B2602906D0AD
:1056E000612906D0672908D0702904D009E060201C
:1056F00004E0612002E0702000E0672000F0E0FD9F
:1057000002E0C0B2FEF75AFEFFF7C0FF00F02BF92F
:10571000BDE8005001FB03030FF60C011FE12DE96A
:10572000F041C0B000F03FF900F0EEFBC5B26A46B0
:105730002946E0B2FEF70CFEFFF7A8FF0FF62401A2
:105740000FF608000FF64808FDF79BFC0FF6340132
:105750000FF62800FDF795FC00266F1E06E01DF8E9
:1057600000204046FDF78DFC641C761CF0B2B84268
:10577000E1B2F4DB0DEB0500A4A410F8012C0FF648
:105780001C00FDF77EFC00F057F800F058F800F020
:1057900053F840B0BDE8F08110B5C0B000F003F997
:1057A00004460023FF2269460120FFF72BF901463A
:1057B0006A46E0B2FEF7AEFDFFF768FF00F064F85E
:1057C0000FF2EC710FF24870FDF75BFC40B010BDBA
:1057D000F8B5C0B000F0E7F8C4B269462046FEF75D
:1057E00043FEFFF753FF0FF2F8710FF2E0700FF670
:1057F0000C07FDF746FC0FF2FC710FF28070FDF70D
:1058000040FC0025661E02E000F011F86D1CE8B2B5
:10581000B042F9DB0DEB04007CA400F09CF900F031
:105820000BF800F00CF800F007F841B0F0BD1DF8DF
:1058300000103846FDF725BC2046FDF722BCDFF8F6
:10584000A806C26800884CF2503101FB02020FF238
:10585000F4610FF25470FDF714BC80B5C0B00023A2
:10586000FF2269460020FFF7CDF86946FEF7C6FD26
:10587000FFF70CFF00F008F80FF290710FF2906044
:10588000FDF7FFFB41B000BDDFF85C060FF2B4622C
:10589000C36800884CF2503101FB0303704780B5A8
:1058A00000F081F8C0B2012802D101F063F801E0F4
:1058B00001F066F8BDE804400FF2787122E010B5FF
:1058C00000F071F80446FCF7BAFE3CB1642C3CBF12
:1058D000DFF81C0644432046FEF717F8002103209A
:1058E00000F08EFF0021022000F08AFF002101203D
:1058F00000F086FF0021002000F082FFBDE810408C
:105900000FF23C710FF21870FDF7BBBB80B500F0D1
:105910004AF8C0B201F01CF8BDE8005003460FF28F
:1059200068720FF254712BE110B500F03CF8441E80
:1059300000F0EBFAC0B2012803D1E0B203F0C4FEDC
:1059400003E010B9E0B203F0C1FEFFF79FFE00F0E4
:105950000AF8BDE8104001FB03030FF234710FF2A7
:10596000B050FDF78EBBDFF880050FF2D852C36848
:1059700000884CF25031704738B500F014F800F050
:10598000C3FA0546C0B201280CBF01210021E0B2D4
:1059900000F036FFEBB2002200F08BF9BDE8344096
:1059A0000FF20071AEE70020FFF705B8F8B5FFF77A
:1059B0006DFEDFF834050FF23871C36800880FF20E
:1059C00084520291039301900FF21C7100914CF2EA
:1059D000503101FB03030FF204710FF2E060FDF799
:1059E00050FB05B000BD80B51C2002F018F9DFF8AF
:1059F000F424002111600020DFF8F02411684862CF
:105A0000BDE804400FF2F0617CE700007D0D0A0064
:105A100070B588B002F007FB80B3FFF7C4FF0546FE
:105A200000F073FA0023FF226946C4B20220FEF799
:105A3000E9FF0646001904EB45152128A4BFC4F16F
:105A400020042646FCF739FC812803D0FCF735FCFE
:105A5000912804D100F08EFF0A2000F012FD6A4662
:105A6000F1B2A8B202F09EFAFCF727FC812803D01D
:105A7000FCF723FC912801D100F082FF0FF288612E
:105A80000FF29C50FDF7FDFA08B070BD2DE9F84308
:105A900088B002F0C8FA00280FF28C650FF2AC460D
:105AA0000FF2746849D0FFF77EFF814600F02DFAAF
:105AB000C7B20220FEF77FFFC4B2E01907EB491915
:105AC0002128A4BFC7F12007FCB2FCF7F6FB812810
:105AD00003D0FCF7F2FB912804D100F04BFF0A2021
