:020000040800F2
:100000009841002039010008C551000863400008EC
:10001000C1510008290E0008DD9A00080000000008
:10002000000000000000000000000000096200085D
:10003000B90E00080000000001520008C19100083C
:10004000E19A00085301000853010008B15200086A
:100050005301000853010008BD0E0008E10E00081E
:10006000F90E0008190F0008530100085301000899
:100070005301000853010008530100085301000810
:100080006D0E00087D0E00085301000853010008A2
:100090005301000853010008530100082D0F000808
:1000A00053010008530100085301000853010008E0
:1000B000D592000853010008530100087940000858
:1000C000694000085301000853010008530100086B
:1000D0005301000853010008559900085301000816
:1000E000D50E000853010008530100085301000811
:1000F00053010008000000005301000853010008EC
:10010000530100085301000853010008530100087F
:1001100053010008530100085301000800000000CB
:1001200053010008DFF80CD000F0DAFC004800476B
:1001300035D6000898410020064880470648004709
:10014000FEE7FEE7FEE7FEE7FEE7FEE7FEE7FEE787
:10015000FEE7FEE771920008250100082DE9F05F37
:100160000546002092469B46884606468146402426
:100170001BE0284641464746224600F0B6FB534660
:100180005A46C01A914110D311461846224600F033
:100190009DFB2D1A67EB01084F46224601200021E6
:1001A00000F094FB17EB00094E41201EA4F101045E
:1001B000DFDC484631462A464346BDE8F09F000052
:1001C0000649074A0868504343F239021044086060
:1001D000400870470149086070470000540400203F
:1001E0006D4EC64110B5431A934209D28318881840
:1001F00003E010F8011D03F8011D521EF9D210BDD5
:1002000040EA01039B0703D009E008C9121F08C098
:10021000042AFAD203E011F8013B00F8013B521E18
:10022000F9D210BDD2B201E000F8012B491EFBD279
:1002300070470022F6E710B513460A4604461946F1
:10024000FFF7F0FF204610BD30B5044600200346FE
:1002500000E05B1C934203D2E05CCD5C401BF8D015
:1002600030BDF0B480EA0102D40F4200B2EB410F7E
:1002700002D20246084611464A0042D0C30DDDB202
:10028000C1F3C752AD1A202D35DAC1F3160141F47E
:10029000000204B15242C5F1200602FA06F12A41D9
:1002A0001044B3EBD05F23D0C4B1012DA0EBC350F9
:1002B00009DCF0BC4FF0004202EAC352DBB200F5A9
:1002C000000000F03DBB400000F1807000EBC35027
:1002D000A0F1807040EAD170490009E0490841EA84
:1002E000C071A0EBC35000F50000400800EBC35004
:1002F000F0BC00F01CBB6142012202EB4101001B7B
:10030000F6E7F0BC704781F00041AAE780F00040BA
:10031000A7E780EA010210B502F00043400022D0B6
:100320004A001FD0010E01EB1261C0F35600C2F368
:10033000560240F4000042F40002A0FB0220000438
:100340007F39140400D0401C50EA124001D4400010
:10035000491EC2B20C0604EBD010401C4008802A93
:1003600002D003E0002010BD20F00100002900DAD7
:100370000020184310BD30B480EA010202F00045AD
:1003800030F0004221F0004013D090B1C30DD40DE5
:10039000C2F31601C0F31600E41A41F4000140F460
:1003A00000027D34914201D3641C00E04900002C1E
:1003B00002DA30BC002070474FF400000023914265
:1003C00001D3891A034340084FEA4101F7D151B1E3
:1003D000914202D14FF0004105E002D24FF00101FD
:1003E00001E06FF0010103EBC450284430BC00F081
:1003F0009EBA2DE9FE4F804681EA0300C00F0C46ED
:10040000009021F0004123F00045B8EB0200A94123
:1004100005D24046214690461C460B46024623F034
:100420000040104347D0270DC7F30A00C3F30A5119
:100430000290401A019040286BDAC3F3130040F495
:10044000801B0098924620B10023D2EB030A63EB95
:100450000B0B01985946C0F14002504600F036FAA5
:1004600006460D4650465946019A00F04EFA10EBEA
:1004700008006141002487EA115284EAE7731A43B5
:1004800040D0009A62B3019A012A4FEA075215DC64
:10049000001B61EB02014FF0004202EA0752CDE976
:1004A0000042001C41F5801132462B4600F085FACF
:1004B00003B0BDE8F08F40462146F9E7001B61EB31
:1004C0000201001C41F5801300185B412018A2F5C1
:1004D000001747EB030140EAD570B6196D4111E0F2
:1004E0006D084FEA360645EAC0754FEA0752001B11
:1004F00061EB0201001C41F5801149084FEA300010
:100500000019514132462B4603B0BDE8F04F00F0D0
:1005100045BA0098012240000023D0EB020263EBB1
:10052000E073009821464FEAE074B8EB000061EBFD
:100530000401E9E783F000435BE781F0004158E7FD
:100540002DE9FE4F81EA030404F0004421F000414C
:1005500000944FF0000B23F0004350EA01045ED0FA
:1005600052EA03045BD0C3F30A54C1F30A552C4486
:10057000A4F2F3340194A0FB0254C1F3130141F43B
:100580008011C3F3130343F4801301FB024400FB07
:10059000034E840A970A44EA815447EA8357A4FB2E
:1005A000076802958D0A05FB07854FEA932C04FB2B
:1005B0000C542705029D4FEA065847EA1637B5EB5B
:1005C00008056EEB070C870E920E47EA811742EA88
:1005D0008312A7FB0201B6EB0B0164EB00042B0DA9
:1005E00043EA0C335E1844EB1C50DA465146E7FBF5
:1005F0000201C5F313044FEA0B3343EA14534FEAE5
:100600000432019C43EA0603A4F10C040294009C0A
:10061000CDE900B400F0D1F903B0BDE8F08F0020BF
:100620000146F9E72DE9F04D81EA030404F0004B9F
:1006300021F0004514464FF0000A23F0004150EA33
:10064000050220D054EA01021DD0C5F30A57024624
:10065000C5F31303C1F31300C1F30A5640F4801528
:1006600043F48013A7EB0608101BD64608F2FD38AA
:1006700073EB050002D308F1010801E092185B4119
:10068000B8F1000F03DA00200146BDE8F08D00202C
:100690004FF48011064684460EE0171B73EB0507E6
:1006A00005D3121B63EB050306434CEA010C490812
:1006B0004FEA300092185B4150EA0107EDD152EA4F
:1006C000030012D082EA040083EA0501084305D042
:1006D000101BAB4106D20122002306E000224FF09E
:1006E000004302E06FF0010253101AEB06004CEBDE
:1006F000085110EB0A0041EB0B01BDE8F04D00F092
:100700004DB9C10F80EAE0700844CA079623002162
:1007100000F016B996230022114600F011B90EB56B
:10072000C10F80EAE0700844CA07002140F2334359
:100730008DE80E000A460B4600F03FF903B000BDFD
:100740000EB540F2334102910021CDE900110A4675
:100750000B4600F032F903B000BD00F0004220F07B
:100760000040C10DC0F3160040F400007F2901DAFB
:1007700000207047962903DCC1F19601C84001E0D2
:1007800096398840002AF4D04042704720F000405B
:10079000C10DC0F3160040F400007F2901DA0020EB
:1007A0007047962903DCC1F19601C840704796391D
:1007B00088407047C1F30A5210B5C1F3130140F2EB
:1007C000FF3341F480119A4201DA002010BD40F25B
:1007D00033439A42A2F2334203DC524200F085F8DE
:1007E00010BD904010BD00F0004230F000400AD033
:1007F000C10D01F56071C0F3160042EA0151C20853
:1008000040071143704700200146704730B5041E71
:1008100071F1000404DB4FF00044404264EB01013D
:10082000141E73F1000405DB1C464FF000435242D6
:1008300063EB04038B4208BF824230BD30B5041E17
:1008400071F1000404DB4FF00044404264EB01010D
:10085000141E73F1000405DB1C464FF000435242A6
:1008600063EB0403994208BF904230BD01F000439E
:1008700030B421F0004150EA010206D00A0DA2F581
:100880006072C1F31301002A02DC30BC0020704703
:10089000440F44EAC104C100E01830BC00EBC25070
:1008A00000F045B8002801DBC0F10040002901DB61
:1008B000C1F1004181427047002801DBC0F10040D6
:1008C000002901DBC1F1004188427047202A04DB86
:1008D000203A00FA02F1002070479140C2F1200353
:1008E00020FA03F3194390407047202A04DB203A92
:1008F00021FA02F00021704721FA02F3D040C2F140
:1009000020029140084319467047202A06DBCB1786
:10091000203A41FA02F043EAE07306E041FA02F3BA
:10092000D040C2F120029140084319467047002987
:10093000A8BF7047401C490008BF20F00100704765
:1009400010B4B0FA80FC00FA0CF050EA010404BFC5
:1009500010BC704749B1CCF1200421FA04F411FA1B
:100960000CF118BF012121430843A3EB0C01CB1D5F
:100970004FEA00614FEA102042BF002010BC7047D0
:1009800000EBC35010440029A4BF10BC7047401CAA
:10099000490008BF20F0010010BC704710B5141EBC
:1009A00073F1000408DA401C41F1000192185B4128
:1009B0001A4301D120F0010010BD2DE9F04D9246FF
:1009C0009B4611B1B1FA81F202E0B0FA80F2203216
:1009D0009046FFF77BFF04460F4640EA0A0041EAD3
:1009E0000B0153465A46084313D0114653EA0100FF
:1009F00019D0C8F140025046FFF777FF05460E4672
:100A0000504659464246FFF761FF084305D0012092
:100A100004E020463946BDE8F08D0020054346EA53
:100A2000E0762C4337430A986305E40AA0EB0800FC
:100A30000022FD0A44EA47540A3002D5002001464C
:100A4000E9E7010510196941DDE908450019694127
:100A5000BDE8F04DA2E700002DE9F041054621F088
:100A600000400C46284309D0C4F30A5040F23341F9
:100A7000884205DD28462146BDE8F0812846FBE78F
:100A800040F2FE31884210DC0CDB4FEA043040EAD1
:100A9000155050EA053105D0104804F000410143DB
:100AA0000020E9E700200146E6E7A0F23340464295
:100AB000C6F1400228462146FFF708FF0746884650
:100AC000284621463246FFF710FF43463A46FFF7D5
:100AD00065FF3246BDE8F041FFF7F8BE0000F03F89
:100AE000064C074D06E0E06840F0010394E807007B
:100AF00098471034AC42F6D3FFF718FB9052010828
:100B0000B052010870B58C1810F8015B15F007039E
:100B100001D110F8013B2A1106D110F8012B03E096
:100B200010F8016B01F8016B5B1EF9D12B0705D49E
:100B30000023521E0DD401F8013BFAE710F8013BE7
:100B4000CB1A921C03E013F8015B01F8015B521E03
:100B5000F9D5A142D8D3002070BD000038B50446B5
:100B600000250020009020680068C0F3801090BB32
:100B70002068806840F0010021688860174800689C
:100B80001749B0FBF1F000EB4000009002E0009844
:100B9000401E009000980028F9D100F0BFFE0546E5
:100BA00013E000F0BBFE401B02280ED9E06C40F0C1
:100BB0001000E064206D40F00100206500BF0020BF
:100BC00084F8480000BF012038BD20680068C0F3E9
:100BD00080100028E5D00020F6E70000F801002092
:100BE00040420F0010B586B004462068B0F1804F37
:100BF0000DD101200190022002900020039004906A
:100C00000120059001A90B4800F084FD10E00A497D
:100C1000206888420CD1012001900220029000201F
:100C2000039004900220059001A9024800F072FD93
:100C300006B010BD00000240000C004010B586B0A8
:100C4000044600BF6CB900BF1448006840F00100C2
:100C5000124908600846006800F00100009000BFDB
:100C600000BF00BF0E4830F8140001900120029030
:100C700000200390022004900A4951F8240001A9A1
:100C800000F048FD064A32F81410064A52F82400D3
:100C9000002200F039FE06B010BD00001C380240F2
:100CA000E0500108AC03002010B50446044A32F8B5
:100CB0001410044A52F82400002200F025FE10BD52
:100CC000E0500108AC03002010B50446044A32F895
:100CD0001410044A52F82400012200F015FE10BD41
:100CE000E0500108AC03002010B50446044A32F875
:100CF0001410044A52F8240000F002FE10BD000057
:100D0000E0500108AC03002030B587B004460D4622
:100D100000BF6CB900BF1B48006840F004001949CF
:100D200008600846006800F00400019000BF00BFA2
:100D300000BF154830F814000290002004900120F4
:100D400005903DB900200390104951F8240002A9F4
:100D500000F0E0FC012D13D10D4803900B4951F830
:100D6000240002A900F0D6FC0A49095D48B200221D
:100D70000F2101F012FB0749095D48B201F000FBA9
:100D800007B030BD1C380240E4500108B403002015
:100D900000002110E650010800B58BB02048214921
:100DA00008602020486000211E4881604FF47A715D
:100DB000C1600021016102F00EFE08B100F0D2F81E
:100DC0004FF48050079007A9164802F04EFE08B174
:100DD00000F0C8F8134802F0BAFF08B100F0C2F8FA
:100DE00000200590069005A90E4802F0C3FD08B149
:100DF00000F0B8F8602000904FF4FA7001900020E5
:100E00000290039000226946064802F01CFF08B1D8
:100E100000F0A8F80348FFF7E5FE0BB000BD0000A6
:100E2000000C00409C2C002000BFFEE710B50D48D0
:100E30000068401C0B490860084600684FF47A714E
:100E4000B0FBF1F201FB120030B907480068401C0A
:100E5000054908600BF08EF80BF09AF808B10BF01A
:100E6000A1F810BDE0030020DC03002010B502490A
:100E7000486B00F027FB10BD282A002010B502495E
:100E8000886B00F01FFB10BD282A002030B590F8B9
:100E900040500124AC40C56B6C60046863604468DA
:100EA000102C04D10468A2600468E16003E00468C7
:100EB000A1600468E26030BD70470000044800682B
:100EC00000F0010010B101200149086070470000E6
:100ED0001404014010B54FF4005000F00DFC10BD9B
:100EE0000448006800F0020010B1022001490860C7
:100EF00000BFFEE71404014000B50648006800F09A
:100F0000040028B1042000F0F6FB04200149086029
:100F100000BD00001404014010B505F077F9082069
:100F20000149086010BD00001404014010B50C48D0
:100F3000006800F0800030B180200949086000F0AE
:100F4000DAFB04F099FD4FF4007005490860401089
:100F5000086080200860402008602020086010BDE4
:100F60001404014005E00020FFF7BEFEFA2000F067
:100F7000B5FBF8E738B5024600230020009000BF1B
:100F800092F84800012801D1022038BD012082F8E2
:100F9000480000BF4868072812D21068006C0C791E
:100FA000641E04EB84051F24AC40A0430D796D1E24
:100FB00005EB85050C68AC4020431468206453E0C1
:100FC00048680D2812D21068C06B0C79E41F04EB3E
:100FD00084051F24AC40A0430D79ED1F05EB85056A
:100FE0000C68AC4020431468E0633DE04868132877
:100FF00012D21068806B0C790D3C04EB84051F2421
:10100000AC40A0430D790D3D05EB85050C68AC4067
:1010100020431468A06327E04868192812D210689A
:10102000406B0C79133C04EB84051F24AC40A043B7
:101030000D79133D05EB85050C68AC402043146821
:10104000606311E01068006B0C79193C04EB8405B7
:101050001F24AC40A0430D79193D05EB85050C68B4
:10106000AC4020431468206308680A2811D2106835
:101070004469087800EB40050720A84024EA0000F6
:101080000D7805EB45058C68AC4020431468606121
:101090003DE00868142812D2106800690C780A3CF8
:1010A00004EB44050724AC40A0430D780A3D05EB52
:1010B00045058C68AC4020431468206127E008682F
:1010C0001D2812D81068C0680C78143C04EB440545
:1010D0000724AC40A0430D78143D05EB45058C6812
:1010E000AC4020431468E06011E01068C06D0C78DB
:1010F0001E3C04EB44050724AC40A0430D781E3D84
:1011000005EB45058C68AC4020431468E065086831
:10111000102802D0086811281DD11248006800F478
:101120000000C0B90F48006840F400000D4C20607A
:10113000086810280FD10C4800680C4CB0FBF4F084
:1011400000EB80004000009002E00098401E0090FC
:1011500000980028F9D100BF002082F8480000BFA5
:10116000184612E704270140F801002040420F0012
:1011700001460868806D7047F8B5044600270026D0
:1011800000250CB90120F8BD206910B1E06A00B15A
:1011900000BF606B102800D000BFE06CA0B9002039
:1011A000206584F8480000BF6148006840F00100F5
:1011B0005F4908600846006800F00100009000BF29
:1011C00000BF204600F0BEF8E06C00F010000028E0
:1011D00074D1E06C20F4885040F00200E06455487F
:1011E000006820F440306168084352490860616932
:1011F000E06808434FF4007292FAA2F2B2FA82F267
:10120000E16B91400843216A0843022292FAA2F25C
:10121000B2FA82F2616A914008430543606B10287C
:1012200003D0D4E90D010843054320680068C0F3EA
:10123000801090BBA0690543E169A068084321695B
:10124000B1F5807F02D02169012902D14FF480716C
:1012500000E0002108430643E06A012816D1606AD5
:1012600060B9206B401E4FF4604191FAA1F1B1FAD0
:1012700081F1884040F40060064307E0E06C40F0F4
:101280002000E064206D40F0010020652068406887
:101290002949084030432168486020688068274910
:1012A00008402843216888602069B0F5807F02D01B
:1012B0002069012803D14FF4807001E035E000205F
:1012C000B0F5807F10D12068006B20F0F871A06A23
:1012D000401E4FF0F87292FAA2F2B2FA82F29040F7
:1012E00001432068016305E02068006B20F0F8707E
:1012F000216808632068806811490840A84208D125
:1013000000202065E06C20F0020040F00100E06465
:101310000CE0E06C20F0020040F01000E064206D72
:1013200040F001002065012700E0012738462AE748
:101330002038024004270140FF16FCFC89F1FFC061
:10134000FEFF80BF10B586B004461B492068884266
:101350002FD100BF1948006840F400701749086099
:101360000846006800F40070009000BF00BF042031
:101370000190032002900020039001A9104800F082
:10138000C9F91048104908600020486000210E4843
:1013900081608021C16049000161890041610021B3
:1013A0008161C16100F002F900BF074860644462D6
:1013B00000BF06B010BD00000024014020380240EC
:1013C0000008024008600240C828002070B50446AA
:1013D000002500BF94F84800012801D1022070BD0B
:1013E000012084F8480000BF2046FFF7B7FB054600
:1013F00085BBE06C40F20161884340F48070E0649A
:101400002068406800F4806028B1E06C20F400504F
:1014100040F48050E064E06C00F4805020B1206D16
:1014200020F00600206501E00020206500BF0020BC
:1014300084F8480000BF6FF022002168086020682F
:10144000806800F0405028B92068806840F08040F3
:10145000216888602846C2E70348406840F00200DF
:101460000149486070470000002004E070B5044660
:10147000002594F82100022803D00420A063012550
:101480001EE02068006820F00E00216808602068D7
:10149000006820F001002168086094F840100120E5
:1014A0008840E16B4860012084F8210000BF0020E3
:1014B00084F8200000BF606B10B12046616B884744
:1014C000284670BD70B50446E06B05682068066864
:1014D00094F84010042088402840D0B106F0040061
:1014E000B8B12068006800F0200028B920680068C2
:1014F00020F004002168086094F84010042088401F
:10150000E16B4860E06A00284ED02046E16A8847D7
:101510004AE094F8401002208840284008B306F0C2
:101520000200F0B12068006800F0200040B9206897
:10153000006820F00A0021680860012084F821007A
:1015400094F8401002208840E16B486000BF002002
:1015500084F8200000BFA06A30B32046A16A884703
:1015600022E094F84010082088402840E0B106F0BE
:101570000800C8B12068006820F00E0021680860EB
:1015800094F8401001208840E16B48600120A0637E
:1015900084F8210000BF002084F8200000BF206BE9
:1015A00010B12046216B884770BD00000146002223
:1015B00009B901207047204B086898420BD21F4B95
:1015C0000868C01A1423B0FBF3F0800008641B48BD
:1015D0000838C8630AE0184B0868C01A1423B0FB27
:1015E000F3F08000086414480838C863022081F8CA
:1015F00021000868026843F6F0708243D1E90103D4
:101600001843CB6818430B6918434B6918438B691F
:101610001843CB69184302430868026000208862BF
:10162000C862086348638863012081F821000020B4
:1016300081F8200000BFBDE7086402400860024056
:101640002DE9F04104460D4616461F464FF00008AE
:1016500000BF94F82000012802D10220BDE8F081EB
:10166000012084F8200000BF94F8210001282CD12B
:10167000022084F821000020A0632068006820F088
:101680000100216808603B46324629462046FFF7A4
:10169000FDFBE06A30B12068006840F00E00216870
:1016A00008600BE02068006820F0040021680860F2
:1016B0002068006840F00A0021680860206800681F
:1016C00040F001002168086006E000BF002084F8B7
:1016D000200000BF4FF002084046BFE731B50024AC
:1016E00000F01CF9044600BF00F018F9001B009937
:1016F0008842F9D338BD704710B5044604480068E5
:10170000204020B1024804602046FFF7F4FF10BDDE
:101710001404014078B50346002200240020D4E0E0
:10172000012696400D6805EA0604002C71D04D682C
:10173000022D02D04D68122D13D1D60803F12005D9
:1017400055F826005507EE0E0F25B540A84356075D
:10175000F60E0D69B5402843D60803F1200545F87B
:101760002600186856000325B540A8430D7905F0FA
:1017700003055600B540284318604D68012D08D078
:101780004D68022D05D04D68112D02D04D68122DE7
:1017900013D1986856000325B540A8435600CD687C
:1017A000B54028439860586801259540A8430D79B5
:1017B000C5F30015954028435860D86856000325A6
:1017C000B540A84356008D68B5402843D8604D68A1
:1017D00005F08055B5F1805F76D100BF3E4D2D6894
:1017E00045F001053C4E356035462D6805F0010594
:1017F000009500BF00BF394D960855F826009507A3
:101800002E0F0F25B540A843354DAB4202D1002520
:101810001FE059E0334DAB4201D1012519E0324DB3
:10182000AB4201D1022514E0304DAB4201D103257A
:101830000FE02F4DAB4201D104250AE02D4DAB4204
:1018400001D1052505E02C4DAB4201D1062500E074
:1018500007259607360FB5402843204D960845F8D2
:101860002600264D2868A0434D6805F48035B5F55F
:10187000803F00D12043214D28602D1D2868A043C2
:101880004D6805F40035B5F5003F00D120431B4DF0
:101890002D1D28602D1D2868A0434D6805F4801576
:1018A000B5F5801F00D12043144D083528602D1D4B
:1018B0002868A0434D6805F40015B5F5001F00D158
:1018C00020430E4D0C352860521C0D68D540002D6C
:1018D0007FF426AF78BD00002038024008000140A8
:1018E000000002400004024000080240000C0240D8
:1018F00000100240001402400018024000040140A1
:1019000042694A40426170470AB1816101E00B04BB
:101910008361704700487047000103010148006877
:1019200070470000280100207047704770B50446DA
:1019300020684669206845683048304050B105F459
:10194000807038B1206C40F0010020646FF480702A
:101950002168486106F4813050B105F4807038B1D7
:10196000206C40F0020020646FF400702168486130
:1019700006F4823068B305F4807050B394F83E00EA
:10198000202814D1608D90B994F83D0021280AD008
:1019900094F83D00292806D094F83D00282806D167
:1019A000206B212803D1204603F018F911E0206CA8
:1019B00040F00400206494F83E00102805D120680F
:1019C000006840F40070216808606FF4806021684E
:1019D000486106F4843050B105F4807038B1206C51
:1019E00040F0080020646FF4006021684861206CBA
:1019F00010B1204602F0E8FB70BD000000010100BC
:101A00002DE9F041064630688769306844693068DE
:101A1000456896F83E00102803D096F83E0040280E
:101A200059D104F0011030B105F4007018B13046FE
:101A300002F04FFF13E04F48204030B105F4007032
:101A400018B1304602F024FE09E04A48801F2040C9
:101A500028B105F4007010B1304602F020FE306D60
:101A6000F0B945483840D8B142487830204050B1AC
:101A700005F4806038B13F48001F204018B9304657
:101A800002F09EFD73E03B48001F204000286ED00E
:101A900005F4007000286AD0304602F03FFD66E091
:101AA00034483830204050B105F4806038B13148B6
:101AB000001F204018B9304602F0C0FC57E02D4806
:101AC000001F2040002852D005F4007050B330466B
:101AD00002F032FC4BE02748801F204030B105F473
:101AE000007018B1304603F05DF840E0214808303E
:101AF000204030B105F4007018B1304603F0C2F850
:101B000035E01D483840C8B11A487830204050B1FF
:101B100005F4806038B11748001F204018B93046DE
:101B200003F01DF823E01348001F2040F8B105F42E
:101B30000070E0B1304603F004F818E00D4838308A
:101B4000204050B105F4806038B10A48001F2040A1
:101B500018B9304602F0D1FF09E00648001F2040C6
:101B600028B105F4007010B1304602F0B7FFBDE8AF
:101B7000F0810000080001000400020070470146E7
:101B800091F83D007047000070B50446002600251E
:101B90000CB9012070BD94F83D0028B9002084F8EC
:101BA0003C00204600F0D8F900F0C4FD054650483E
:101BB000854201D20120EDE7242084F83D00206811
:101BC000006820F00100216808604A48B5FBF0F683
:101BD0002068406820F03F00304321684860464953
:101BE0006068884201D8701C07E04FF4967070431B
:101BF0004FF47A71B0FBF1F0401C2168096A21F0C2
:101C00003F010843216808623B49606888420ED85A
:101C100060684000B5FBF0F0C0F30B00042801D26F
:101C200004202DE060684000B5FBF0F028E0A068DB
:101C300028B9606800EB4000B5FBF0F008E0606890
:101C400000EBC00101EB0010B5FBF0F040F4804068
:101C5000C0F30B0008B9012012E0A06828B9606841
:101C600000EB4000B5FBF0F008E0606800EBC0015D
:101C700001EB0010B5FBF0F040F4804040F4004070
:101C80002168C9694CF6FF72914308432168C86115
:101C9000D4E9070108432168096821F0C00108431D
:101CA00021680860D4E9031008432168896848F274
:101CB000FF329143084321688860D4E90501084355
:101CC0002168C96821F0FF0108432168C8602068C5
:101CD000006840F001002168086000202064202096
:101CE00084F83D000020206384F83E0000BF51E7E7
:101CF00080841E0040420F00A0860100704770479C
:101D000070470000F8B504460D4616461F460020F1
:101D1000009094F83D0020287ED151480068192198
:101D2000B0FBF1F04FF47A71B0FBF1F000EBC001C1
:101D300001EB0010009000BF0098411E009158B9BF
:101D400000202063202084F83D0000BF002084F89C
:101D50003C0000BF0320F8BD20688069C0F340004C
:101D60000028E9D100BF94F83C00012801D10220ED
:101D7000F1E7012084F83C0000BF2068006800F013
:101D8000010028B92068006840F00100216808605F
:101D90002068006820F4006021680860212084F831
:101DA0003D00102084F83E000020206466626785B4
:101DB0002C48E062608D20856564208D68B32A48D8
:101DC000616B88622948616B08630020616BC8629F
:101DD000616B4863238DD4F800C00CF11002616A76
:101DE000606BFFF72DFC2068006840F4806021687C
:101DF00008602068006840F480702168086000BFB7
:101E0000002084F83C0000BF2068406840F4407027
:101E100021684860206801E01FE005E0406840F468
:101E200000602168486016E02068006840F4806027
:101E3000216808602068006840F4807021680860AC
:101E400000BF002084F83C0000BF2068406840F4D8
:101E5000E0602168486000207DE702207BE7000009
:101E6000F80100200000FFFF23410008F1400008B6
:101E700038B504460020009094F83D00202862D137
:101E8000324800681925B0FBF5F04FF47A75B0FBC5
:101E9000F5F000EBC00505EB0010009000BF0098C6
:101EA000451E009558B900202063202084F83D008D
:101EB00000BF002084F83C0000BF032038BD20682C
:101EC0008069C0F340000028E9D100BF94F83C00CD
:101ED000012801D10220F1E7012084F83C0000BF75
:101EE0002068006800F0010028B92068006840F010
:101EF0000100256828602068006820F400602568DB
:101F00002860212084F83D00102084F83E00002045
:101F10002064626263850E48E062608D20856164A2
:101F20002068006840F480702568286000BF0020A9
:101F300084F83C0000BF2068406840F4E0602568F9
:101F400068600020BAE70220B8E70000F80100202E
:101F50000000FFFF7047704710B586B0044600BF11
:101F60004F48006840F002004D490860084600688C
:101F700000F00200009000BF00BF00BF08460068EC
:101F800040F0020008600846006800F0020000907F
:101F900000BF00BF00BF42480830006840F4001096
:101FA0003F49083108600846006800F400100090BE
:101FB00000BF00BF00BF3A48006840F08070384959
:101FC00008600846006800F08070009000BF00BF05
:101FD00088150190122002900120039003200490A4
:101FE0000420059001A92F48FFF794FB4FF40070DF
:101FF00001900420059001A92A48FFF78BFB2A488D
:102000002A4908601020486000212848816080210A
:10201000C1600021016141618161C161FFF7C6FAC0
:1020200000BF22486063446200BF1F48143020494B
:1020300008600020486000211D4881608021C16047
:1020400000210161416181614FF40051C161FFF7DD
:10205000ADFA00BF1648A063446200BF0122002110
:10206000102000F09AF9102000F08AF900221146A1
:10207000112000F092F9112000F082F901220021D4
:10208000202000F08AF9202000F07AF902220021B5
:102090001F2000F082F91F2000F072F906B010BD79
:1020A0001C380240000402406C600240142D0020E5
:1020B000582D002010B5044639480078062812D162
:1020C00000BF2046FFF75BFD2028FAD13548407954
:1020D0003549086004223549204600F075F804208F
:1020E0002F4908705BE02E48007804280ED100BF0D
:1020F0002046FFF744FD2028FAD105222C4920462E
:1021000000F062F805202649087048E0244800786D
:10211000052844D100BF2046FFF731FD2028FAD121
:1021200024482549096800EB81002149D1F80110B4
:10213000016021480068401C1F490860084600688B
:1021400019490968884208DA04221849204600F033
:102150003BF804201249087021E00620104908705D
:1021600000201549086015480068012803D10020A7
:10217000134908600EE00D484078032807D00B484B
:102180004078022803D009484078082802D101206D
:102190000B49086006220349204600F015F810BDDF
:1021A000A702002098020020C00200209E0200200A
:1021B000A202002050290020C4020020D8020020E2
:1021C000D0020020704700002DE9F04104460D4682
:1021D000164694F83D0020285AD105B116B90120C1
:1021E000BDE8F08100BF94F83C00012801D1022035
:1021F000F6E7012084F83C0000BF2068006800F08A
:10220000010028B92068006840F0010021680860DA
:102210002068006820F4006021680860222084F8AB
:102220003D00202084F83E00002020646562668521
:102230001848E062608D20851748A16B88621748B6
:10224000A16B08630020A16BC862A16B4863238D5A
:10225000276807F11001626AA06BFFF7F1F92068A7
:10226000006840F480602168086000BF002084F8A6
:102270003C0000BF2068406840F44070216848601E
:102280002068406840F40060216848600020A7E7AB
:102290000220A5E70000FFFF23410008F1400008ED
:1022A00002480068401C014908607047280100206E
:1022B00010B500BF0A48006840F0040008490860F3
:1022C0000846006840F00200086000BF032000F0EC
:1022D000A3F80F2000F006F800F018F8002010BD59
:1022E000003C024070B50446074800684FF47A711C
:1022F000B0FBF1F5284601F023FB00222146501ED9
:1023000000F04BF8002070BDF801002008B500BFB8
:102310001348006840F00100114908600846006851
:1023200000F00100009000BF00BF00BF0846006839
:1023300040F0040008600846006800F004000090C7
:1023400000BF00BF00BF0846006840F008000860FA
:102350000846006800F00800009000BF00BF08BDFC
:102360001C38024000BF00F01F0201219140034AC7
:10237000430942F8231000BF7047000080E100E0ED
:1023800000BF00F01F02012191404209920002F1BA
:10239000E022C2F8001100BF70472DE9F05F8046CF
:1023A0000D461646002702F00FFF074639462A461B
:1023B000334601F00700C0F1070ABAF1040F02D951
:1023C0004FF0040A01E0C0F1070AD14600F1040A07
:1023D000BAF1070F02D24FF0000A01E0A0F1030AA0
:1023E000D4464FF0010A0AFA09FAAAF1010A0AEAE8
:1023F000020A0AFA0CFA4FF0010B0BFA0CFBABF1D4
:10240000010B0BEA030B4AEA0B042146404602F09B
:10241000E3FEBDE8F09F000000BF00F00702064B9E
:1024200019684FF6FF031940044B0B4343EA02219E
:10243000014B196000BF70470CED00E00000FA0589
:1024400070B504460D460026B348006800F0010050
:10245000A84218D200BF012D05D1AF48006840F056
:102460000400AD490860AC48006820F00100284332
:10247000A949086000BF0846006800F00100A842B2
:1024800001D0012070BD207800F00200022807D1A1
:10249000A248006820F0F000A16808439F49086046
:1024A000207800F0010000287BD06068022821D14C
:1024B0002020010391FAA1F1B1FA81F10843012131
:1024C000B1EB601F03D195480838006802E09348DB
:1024D0002C30006820210A0392FAA2F2B2FA82F2AA
:1024E000114301F01F0201219140084000286CD1E6
:1024F0000120C7E76068032820D12020010591FA58
:10250000A1F1B1FA81F108430121B1EB601F03D1C0
:1025100082480838006802E080482C30006820219A
:102520000A0592FAA2F2B2FA82F2114301F01F02F6
:10253000012191400840A8BB0120A3E76068012861
:1025400020D12020022191FAA1F1B1FA81F10843B2
:102550000121B1EB601F03D170480838006802E028
:102560006E482C3000682021022292FAA2F2B2FAC0
:1025700082F2114301F01F0201219140084088B905
:1025800001207FE72020010191FAA1F1B1FA81F148
:1025900008430121B1EB601F05D16048083800688D
:1025A00004E069E011E05D482C30006820210A0158
:1025B00092FAA2F2B2FA82F2114301F01F02012153
:1025C0009140084008B901205CE75448006820F0B9
:1025D00003006168084351490860FFF79FF9064608
:1025E0006068022810D108E0FFF798F9801B41F2DB
:1025F0008831884201D9032044E74848006800F048
:102600000C000828F0D137E06068032810D108E0FA
:10261000FFF784F9801B41F28831884201D90320F9
:1026200030E73E48006800F00C000C28F0D123E0B1
:102630006068012810D108E0FFF770F9801B41F2B3
:102640008831884201D903201CE73448006800F033
:102650000C000428F0D10FE008E0FFF75FF9801BC1
:1026600041F28831884201D903200BE72B480068EA
:1026700000F00C000028F0D12748006800F00100AD
:10268000A84218D900BF012D05D12348006840F0A9
:102690000400214908602048006820F00100284318
:1026A0001D49086000BF0846006800F00100A8420C
:1026B00001D00120E6E6207800F00400042807D1CC
:1026C0001648006820F4E060E16808431349086098
:1026D000207800F00800082808D11048006820F48D
:1026E0006050216940EAC1000C49086000F04EF8D2
:1026F0000A49096801F0F001F02292FAA2F2B2FA56
:1027000082F2D140064A515CC840064908600F2059
:10271000FFF7E8FD0020B5E6003C02400838024023
:1027200019500108F80100200148006870470000B6
:10273000F801002000B5FFF7F7FF0749096801F429
:10274000E0614FF4E06292FAA2F2B2FA82F2D14072
:10275000024A515CC84000BD0838024029500108B7
:1027600000B5FFF7E1FF0749096801F460514FF434
:10277000605292FAA2F2B2FA82F2D140024A515C5D
:10278000C84000BD0838024029500108F0B50021BA
:1027900000230024002200250020254E316801F08E
:1027A0000C067EB3042E04D0082E04D00C2E2AD1A1
:1027B00003E020483AE0204838E001F470164FF476
:1027C000701797FAA7F7B7FA87F7FE401B4FBB5D64
:1027D00001F440064FF4400797FAA7F7B7FA87F7D6
:1027E000FE40741C124E366806F4803626B1124E36
:1027F0005E43B6FBF4F203E00E4E5E43B6FBF4F22A
:10280000104613E000E000BF094E361F366806F49C
:1028100060464FF4604797FAA7F7B7FA87F726FAAA
:1028200007F56E1C0127B740F80300BF00BFF0BDDD
:10283000083802400024F4000048E8011050010864
:10284000F8B504460025207800F00100002879D072
:10285000F948006800F00C0008280CD0F648006821
:1028600000F00C000C282BD1F348006800F48030F5
:10287000B0F5803F24D12020010391FAA1F1B1FAF3
:1028800081F108430121B1EB601F03D1EA48083808
:10289000006802E0E8482C30006820210A0392FA20
:1028A000A2F2B2FA82F2114301F01F02012191401B
:1028B00008400028CBD06068002843D10120F8BD33
:1028C00000BF6068012808D1DB480838006840F480
:1028D0008030D949083908602DE0606868B9D64869
:1028E0000838006820F48030D34908390860084669
:1028F000006820F4802008601DE0606805280DD184
:10290000CD480838006840F48020CB490839086079
:102910000846006840F4803008600CE0C64808387B
:10292000006820F48030C44908390860084600680F
:1029300020F48020086000BF606870B3FEF7EEFFEF
:10294000054609E057E0FEF7E9FF401B41F28831F8
:10295000884201D90320B2E72020010391FAA1F1B6
:10296000B1FA81F108430121B1EB601F03D1B248F4
:102970000838006802E0B0482C30006820210A03C3
:1029800092FAA2F2B2FA82F2114301F01F0201217F
:10299000914008400028D6D02DE0FFE7FEF7BEFFAB
:1029A000054608E0FEF7BAFF401B41F28831884235
:1029B00001D9032083E72020010391FAA1F1B1FAA4
:1029C00081F108430121B1EB601F03D19A48083817
:1029D000006802E098482C30006820210A0392FA2F
:1029E000A2F2B2FA82F2114301F01F0201219140DA
:1029F00008400028D6D1207800F00200022845D1F6
:102A00008D48006800F00C0004280AD08A4800684D
:102A100000F00C000C283BD18748006800F480309F
:102A2000A8BB2020022191FAA1F1B1FA81F108435B
:102A30000121B1EB601F03D17F480838006802E034
:102A40007D482C3000682021022292FAA2F2B2FACC
:102A500082F2114301F01F0201219140084020B190
:102A6000E068012801D0012029E77348001F0068B1
:102A700020F4F8504FF4F85292FAA2F2B2FA82F22D
:102A80002169914008436C49091F08607DE0FFE718
:102A9000E068E0B3012090FAA0F1B1FA81F1674A51
:102AA00042F82100FEF73AFF054606E0FEF736FF42
:102AB000401B022801D9032001E72020022191FABE
:102AC000A1F1B1FA81F108430121B1EB601F03D1FB
:102AD00059480838006802E057482C300068202127
:102AE000022292FAA2F2B2FA82F2114301F01F021C
:102AF0000121914008400028D8D04F48001F0068AD
:102B000020F4F8504FF4F85292FAA2F200E008E0F4
:102B1000B2FA82F22169914008434749091F0860CF
:102B200033E00020012191FAA1F1B1FA81F1434A89
:102B300042F82100FEF7F2FE054606E0FEF7EEFE43
:102B4000401B022801D90320B9E62020022191FA76
:102B5000A1F1B1FA81F108430121B1EB601F03D16A
:102B600035480838006802E033482C3000682021DE
:102B7000022292FAA2F2B2FA82F2114301F01F028B
:102B80000121914008400028D8D1207800F01000A1
:102B9000102872D12848006800F00C0000286DD180
:102BA0002020010191FAA1F1B1FA81F1084301213C
:102BB000B1EB601F03D120480838006802E01E48CE
:102BC0002C30006820210A0192FAA2F2B2FA82F2B5
:102BD000114301F01F0201219140084018B1A06982
:102BE00008B901206BE61449091F206A096801F43D
:102BF0006041884224D9206A02F004FB08B1012018
:102C00005DE60D48001F006820F46040216A08431B
:102C10000949091F08600846006820F07F404FF00E
:102C20007F4292FAA2F2B2FA82F2E169914008433D
:102C30000149091F086022E00838024000004742AD
:102C4000FC48006820F46040216A0843F9490860A4
:102C50000846006820F07F404FF07F4292FAA2F2CF
:102C6000B2FA82F2E16991400843F2490860206AB1
:102C700002F0C8FA18B1012021E6A5E01FE04FF4E8
:102C8000604191FAA1F1B1FA81F1206AC840401C7B
:102C900001218140C803E749091D096801F0F001DD
:102CA000F02292FAA2F2B2FA82F2D140E24A515CE8
:102CB000C840E24908600F20FFF714FB84E0A069D8
:102CC000F0B30121080290FAA0F0B0FA80F0DC4ADB
:102CD00042F82010FEF722FE054606E0FEF71EFE33
:102CE000401B022801D90320E9E52020010191FAC7
:102CF000A1F1B1FA81F108430121B1EB601F03D1C9
:102D0000CC48001F006802E0CA483030006820212B
:102D10000A0192FAA2F2B2FA82F2114301F01F0202
:102D20000121914008400028D8D0C248006820F412
:102D30006040216A0843BF4908600846006800E017
:102D40000DE020F07F404FF07F4292FAA2F2B2FAFB
:102D500082F2E16991400843B649086034E00020FE
:102D60004FF4807191FAA1F1B1FA81F1B44A42F8BD
:102D70002100FEF7D3FD054606E0FEF7CFFD401B20
:102D8000022801D903209AE52020010191FAA1F13E
:102D9000B1FA81F108430121B1EB601F03D1A548CD
:102DA000001F006802E0A3483030006820210A01BB
:102DB00092FAA2F2B2FA82F2114301F01F0201214B
:102DC000914008400028D8D1207800F00800082859
:102DD0006ED16069A8B3012090FAA0F1B1FA81F137
:102DE000974A02EB8101C1F88006FEF797FD054680
:102DF00006E0FEF793FD401B022801D903205EE5A3
:102E00004020022191FAA1F1B1FA81F10843012198
:102E1000B1EB601F03D18748001F006802E08548BE
:102E2000303000684021022292FAA2F2B2FA82F215
:102E3000114301F01F020121914008400028D8D021
:102E400036E0FFE70020012191FAA1F1B1FA81F10A
:102E50007B4A02EB8101C1F88006FEF75FFD054663
:102E600006E0FEF75BFD401B022801D9032026E5A2
:102E70004020022191FAA1F1B1FA81F10843012128
:102E8000B1EB601F03D16B48001F006802E0694886
:102E9000303000684021022292FAA2F2B2FA82F2A5
:102EA000114301F01F020121914008400028D8D1B0
:102EB000207800F00400042875D100265D482030F9
:102EC000006800F0805080B900BF5A482030006888
:102ED00040F080505749203108600846006800F0F3
:102EE0008050009000BF00BF01265648006800F4E3
:102EF0008070B0B95348006840F480705149086050
:102F0000FEF70CFD054606E0FEF708FD401B6428B1
:102F100001D90320D3E44B48006800F480700028F6
:102F2000F2D000BFA068012808D1424830300068C4
:102F300040F480703F49303108602DE0A06868B9E6
:102F40003C483030006820F480703A4930310860E5
:102F50000846006820F4806008601DE0A06805282D
:102F60000DD134483030006840F480603149303150
:102F700008600846006840F4807008600CE02D4846
:102F80003030006820F480702A49303108600846EB
:102F9000006820F48060086000BFA06870B3FEF78E
:102FA000BDFC054609E06AE0FEF7B8FC401B41F2B3
:102FB0008831884201D9032081E44020C10091FA80
:102FC000A1F1B1FA81F108430121B1EB601F03D1F6
:102FD0001848001F006802E01648303000684021A1
:102FE000CA0092FAA2F2B2FA82F2114301F01F0271
:102FF0000121914008400028D6D035E0FEF78EFC34
:10300000054608E0FEF78AFC401B41F28831884201
:1030100001D9032053E44020C10091FAA1F1B1FA93
:1030200081F108430121B1EB601F0DD10148001F60
:1030300000680BE00438024019500108F801002034
:1030400000004742007000406C4800684021CA0000
:1030500092FAA2F2B2FA82F2114301F01F020121A8
:10306000914008400028CDD1012E07D16348103887
:10307000006820F0805061491039086000BF606A24
:10308000E8B35E482C38006800F00C000C2879D0BA
:10309000606A022878D10021C00590FAA0F0B0FA49
:1030A00080F0574A42F82010FEF738FC054606E04B
:1030B000FEF734FC401B022801D903204BE42020FA
:1030C000010591FAA1F1B1FA81F108430121B1EBB7
:1030D000601F03D149483438006801E04748006860
:1030E00020210A0592FAA2F2B2FA82F2114301F00B
:1030F0001F020121914008400028D9D100E07AE068
:10310000D4E90A010843216B08433C492C3909687A
:1031100021F47D01084339492C390860012001065A
:1031200091FAA1F1B1FA81F1354A42F82100FEF796
:10313000F5FB054606E0FEF7F1FB401B022801D92E
:10314000032008E42020010591FAA1F1B1FA81F1F0
:1031500008430121B1EB601F03D1284834380068CF
:1031600001E02648006820210A0592FAA2F2B2FA8C
:1031700082F2114301F01F02012191400840002812
:10318000D9D038E035E0FFE700204FF0807191FAA8
:10319000A1F1B1FA81F11A4A42F82100FEF7BEFB13
:1031A000054606E0FEF7BAFB401B022801D90320C2
:1031B0005AE42020010591FAA1F1B1FA81F1084306
:1031C0000121B1EB601F03D10C483438006801E0E5
:1031D0000A48006820210A0592FAA2F2B2FA82F2A5
:1031E000114301F01F020121914008400028D9D16C
:1031F00001E0012038E4002036E4000034380240C9
:10320000000047427047000010B504462068C068BF
:10321000C0F3802050B12046FFF7F4FF2068C0685B
:1032200000F0800060F490602168C8604FF4801066
:10323000024908600120607710BD000014040140BD
:1032400010B504460CB9012010BD2068006820F0BC
:10325000400021680860204600F052F800206065B8
:1032600084F8510000BF84F8500000BF00BFEBE7B6
:10327000014691F85100704710B504460CB9012081
:1032800010BD94F8510028B9002084F85000204661
:1032900000F038F8022084F851002068006820F01F
:1032A000400021680860D4E901010843E16808434F
:1032B0002169084361690843218B01F400710843C7
:1032C000E1690843216A0843A16A0843216808604C
:1032D0000421A06901EA1040616A0843216848603E
:1032E0002168E06A08612068C06920F400602168F4
:1032F000C86100206065012084F851000020BFE70C
:103300007047000010B586B004463C4920688842EA
:1033100071D100BF3A48006840F0020038490860A7
:103320000846006800F00200009000BF00BF00BF28
:103330000846006840F0010008600846006800F098
:103340000100009000BF00BF00BF0846006840F0C9
:10335000010008600846006800F00100009000BF0E
:1033600000BF02200290012003900320049005205A
:1033700005900820019001A92248FEF7CBF9022010
:1033800002900390032004900520059040200190B6
:1033900001A91D48FEF7BEF98020019001A91A4835
:1033A000FEF7B8F900BF1648006840F00200144963
:1033B00008600846006800F00200009000BF00BFEF
:1033C000402001900120029003900320049001A965
:1033D0000C48FEF79FF900BF0948001D006840F443
:1033E00080500749091D08600846006800F48050B5
:1033F000009000BF00BF06B010BD000000300140CB
:103400001C3802400004024000000240F8B50446A7
:103410000E4615461F4694F85100012874D106B196
:103420000DB90120F8BD00BF94F85000012801D16A
:103430000220F7E7012084F8500000BF122084F832
:103440005100002060652663A586E586E064A064DF
:10345000A063A087E087A06AB0F5005F0DD100BF30
:103460002068006820F40050216808602068006827
:1034700040F400502168086000BFA068B0F5004F1C
:1034800005D12068006840F4804021680860206809
:10349000006800F04000402805D02068006840F037
:1034A000400021680860E06878BB606810B1E08E79
:1034B000012808D1216B481C206308782168C86066
:1034C000E08E401EE08611E03B46002202212046AD
:1034D00002F0F6FD08B10320A4E7216B481C20632D
:1034E00008782168C860E08E401EE086E08E0028E3
:1034F000EADCA06AB0F5005F38D12068006840F4CB
:1035000080502168086031E05EE0FFE7606810B13C
:10351000E08E012809D1206B00882168C860206BEB
:10352000801C2063E08E401EE08612E03B460022B5
:103530000221204602F0C4FD08B1032072E7206B8F
:1035400000882168C860206B801C2063E08E401ECC
:10355000E086E08E0028E9DCA06AB0F5005F05D1C6
:103560002068006840F48050216808603B460022D3
:103570000221204602F0A4FD28B1606D40F0200039
:10358000606503204EE73B4601228021204602F081
:1035900097FD28B1606D40F020006065032041E791
:1035A000A06840B900BF2068C068009020688068AB
:1035B000009000BF00BF012084F8510000BF002030
:1035C00084F8500000BF2DE702202BE72DE9F843D7
:1035D00004460E4617461D46DDF820800020009068
:1035E00094F85100012803D094F85100222876D194
:1035F0000EB107B115B90120BDE8F88300BF94F8FA
:103600005000012801D10220F6E7012084F8500083
:1036100000BF94F85100012802D1322084F85100F3
:1036200000206065A763A587E5872663A586E586F4
:10363000A064E064A06AB0F5005F0DD100BF20680F
:10364000006820F40050216808602068006840F499
:1036500000502168086000BF2068006800F040004A
:10366000402805D02068006840F0400021680860CC
:10367000E068B0F5006F75D1606830B16068B0F592
:10368000827F0CD1E08E012809D1206B008821684F
:10369000C860206B801C2063E08E401EE086E08EB8
:1036A000F0B9A06AB0F5005F05D12068006840F469
:1036B000805021680860434600220121204602F024
:1036C000FFFC08B1032097E72068C068A16B088061
:1036D000A06B801CA063E08F401EE087C7E019E16B
:1036E00031E0434600220221204602F0E9FC08B105
:1036F000032081E7206B00882168C860206B801C54
:103700002063E08E401EE086E08E48B9A06AB0F5E6
:10371000005F05D12068006840F48050216808608F
:10372000434600220121204602F0CAFC08B10320D2
:1037300062E72068C068A16B0880A06B801CA06352
:10374000E08F401EE087E08E0028CADC6068002819
:10375000C4D1434600220121204602F0B1FC10B141
:10376000032049E70AE02068C068A16B0880A06BCD
:10377000801CA063E08F401EE08778E0606830B175
:103780006068B0F5827F0BD1E08E012808D1216BF3
:10379000481C206308782168C860E08E401EE086DF
:1037A000E08ED0B9A06AB0F5005F05D1206800684E
:1037B00040F48050216808604346002201212046E1
:1037C00002F07EFC08B1032016E72068C068A16BF8
:1037D0000870E08F401EE08749E030E04346002259
:1037E0000221204602F06CFC08B1032004E7216BA3
:1037F000481C206308782168C860E08E401EE0867F
:10380000E08E48B9A06AB0F5005F05D12068006875
:1038100040F4805021680860434600220121204680
:1038200002F04EFC08B10320E6E62068C068C1B291
:10383000A26B501CA0631170E08F401EE087E08EE9
:103840000028CBDC606890B9434600220121204665
:1038500002F036FC08B10320CEE62068C068C1B291
:10386000A26B501CA0631170E08F401EE087A06A1D
:10387000B0F5005F12D1434600220121204602F03C
:103880001FFC28B1606D40F0020060650320B3E6C4
:103890002068C06880B20090BDF800004346012255
:1038A0008021204602F00CFC28B1606D40F0200021
:1038B00060650320A0E6012084F85100A06AB0F5FD
:1038C000005F21D120688068C0F30010E0B1606D16
:1038D00040F002006065A06AB0F5005F0DD100BF46
:1038E0002068006820F400502168086020680068A3
:1038F00040F400502168086000BF00BF002084F839
:10390000500000BF012077E600BF002084F850007F
:1039100000BF71E602206FE6042808D14FF0E021D5
:10392000096941F004014FF0E022116107E04FF016
:10393000E021096921F004014FF0E0221161704794
:1039400070B504462546681EB0F1807F01D3012082
:103950000FE0681E4FF0E02148610F214FF0FF306B
:1039600001F03AFC00204FF0E02188610720086157
:10397000002070BD024600BF92F83400012801D13A
:1039800002207047012082F8340000BF022082F834
:1039900035001068406820F07000136858601068A7
:1039A00040680B681843136858601068806820F0FE
:1039B000800013689860106880684B68184313682B
:1039C0009860012082F8350000BF002082F83400A2
:1039D00000BF00BFD5E710B504460CB9012010BDEB
:1039E00094F8350028B9002084F83400204600F00F
:1039F0000DF8022084F83500211D206805F07EFCBA
:103A0000012084F835000020E9E7000038B50446BD
:103A10002068B0F1804F15D100BF0B48006840F01E
:103A20000100094908600846006800F001000090A4
:103A300000BF00BF002211461C20FEF7AEFC1C2078
:103A4000FEF79EFC38BD000024380240014608689D
:103A5000C06840F001000A68D0600868006840F063
:103A600001000A681060002070472DE9F04104460B
:103A70000D46002600BF94F83400012802D1022030
:103A8000BDE8F081012084F8340000BF022084F8F2
:103A900035002068866826F0770626F47F46206881
:103AA0008660286850283BD00CDC202860D004DCDD
:103AB000002853D0102865D155E030285DD040282B
:103AC00060D141E0602835D070280DD0B0F5805F1E
:103AD00003D0B0F5005F55D115E02068806820F074
:103AE0000700216888604EE0D5E902136A68206803
:103AF00005F054FC2068866826F0770646F07706C5
:103B0000206886603FE0D5E902136A68206805F006
:103B100045FC2068806840F480402168886032E07D
:103B2000EA686968206805F0C0FC5021206805F04B
:103B300041FC28E0EA686968206805F0CBFC602158
:103B4000206805F037FC1EE0EA686968206805F027
:103B5000ACFC4021206805F02DFC14E00021206819
:103B600005F028FC0FE01021206805F023FC0AE096
:103B70002021206805F01EFC05E03021206805F0BA
:103B800019FC00E000BF00BF012084F8350000BF31
:103B9000002084F8340000BF00BF71E770B5044610
:103BA0000E46154600BF94F83400012801D10220CA
:103BB00070BD012084F8340000BF022084F8350075
:103BC00035B1042D09D0082D0CD00C2D14D10EE0E8
:103BD0003146206805F0F8FB0FE03146206805F01B
:103BE0000EFC0AE03146206805F026FC05E031466F
:103BF000206805F03DFC00E000BF00BF012084F814
:103C0000350000BF002084F8340000BF00BFCFE7BC
:103C100010B504460CB9012010BD94F8350028B940
:103C2000002084F83400204600F00CF8022084F8CC
:103C30003500211D206805F061FB012084F8350066
:103C40000020E9E7704770B504460D46164600BFF0
:103C500094F83400012801D1022070BD012084F8BD
:103C6000340000BF022084F8350036B1042E1BD08A
:103C7000082E31D00C2E5ED145E02946206805F093
:103C8000A3FB2068806940F00800216888612068F3
:103C9000806920F004002168886120688069E968F3
:103CA00008432168886147E02946206805F0A7FBA2
:103CB0002068806940F4006021688861206880691C
:103CC00020F480602168886120688069E96840EAA2
:103CD0000120216888612FE02946206805F0ACFBAF
:103CE0002068C06940F008002168C8612068C06988
:103CF00020F004002168C8612068C069E9680843B1
:103D00002168C86118E02946206805F0B1FB2068E9
:103D1000C06940F400602168C8612068C06920F46F
:103D200080602168C8612068C069E96840EA0120B4
:103D30002168C86100E000BF00BF012084F83500A1
:103D400000BF002084F8340000BF00BF85E710B535
:103D500004460CB9012010BD94F8350028B90020A4
:103D600084F83400204600F00CF8022084F8350076
:103D7000211D206805F0C2FA012084F835000020DA
:103D8000E9E7704770B504460D46012229462068D0
:103D900005F0F6FA2068006840F00100216808602C
:103DA000002070BD70B504460D46002229462068EB
:103DB00005F0E6FA00BF2068006A41F211110840E0
:103DC00028B92068006820F001002168086000BF61
:103DD000012084F83500002070BD10B504460CB9F0
:103DE000012010BDA06900B100E000BF94F83900C7
:103DF00028B9002084F83800204600F025F8022079
:103E000084F839002068C06820F400502168C86038
:103E1000204605F075FB2068006920F49040216879
:103E200008612068406920F02A0021684861206804
:103E3000C06840F400502168C8600020E0630120A1
:103E400084F839000020CCE710B586B0044600BFE6
:103E50002448006840F001002249086008460068D4
:103E600000F00100009000BF00BF00BF08460068DE
:103E700040F0010008600846006800F00100009072
:103E800000BF00BF00BF17480830006840F4003092
:103E90001449083108600846006800F400300090BA
:103EA00000BF00BF04200190022002900020039078
:103EB000032004900720059001A90B48FDF72AFC78
:103EC000082001900720059001A90748FDF722FC72
:103ED000012200212620FEF760FA2620FEF750FA84
:103EE00006B010BD1C3802400000024030B5034649
:103EF000002493F83940012C01D0122C37D101B1A4
:103F00000AB9012030BD00BF93F83800012801D163
:103F10000220F7E7012083F8380000BF99629A85F4
:103F2000DA850020D86393F83900122803D13220B3
:103F300083F8390002E0222083F8390000BF002016
:103F400083F8380000BF1868C06840F480701D68AE
:103F5000E8601868406940F001001D6868611868F1
:103F6000C06840F020001D68E8600020CAE7022019
:103F7000C8E72DE9F04704460D46164699464FF02E
:103F8000000894F83980B8F1010F02D0B8F1220F7F
:103F900065D105B116B90120BDE8F08700BF94F8DE
:103FA0003800012801D10220F6E7012084F838000A
:103FB00000BF0020E06394F83900222803D13220AA
:103FC00084F8390002E0122084F83900A684E684DF
:103FD00028E0E08C401EE084A068B0F5805F14D13A
:103FE0004B4600228021204605F036FC08B1032014
:103FF000D2E72F463888C0F308002168486020695E
:1040000008B9AD1C0EE06D1C0CE04B46002280216F
:10401000204605F021FC08B10320BDE715F8010B8F
:1040200021684860E08C0028D3DC4B460022402108
:10403000204605F011FC08B10320ADE794F83900E3
:10404000322803D1222084F8390002E0012084F8CC
:10405000390000BF002084F8380000BF9CE7022030
:104060009AE700BFFEE7000010B50248FDF75EFCCE
:1040700010BD0000282A002010B50248FDF7C0FC42
:1040800010BD0000282A002070B505466C6A206823
:10409000006820F480602168086000206085616B02
:1040A0004863A16B486394F83D00602810D120203C
:1040B00084F83D00002084F83E00206420680068F9
:1040C00020F00100216808602046FDF72DFC0EE07D
:1040D000202084F83D00002084F83E00206800681D
:1040E00020F00100216808602046FDF747FD70BD03
:1040F00070B505466C6A2068006820F4806021680D
:10410000086000206085202084F83D00002084F8AD
:104110003E00206C40F0100020642046FDF72EFD8C
:1041200070BD70B505466C6A94F83D00212807D033
:1041300094F83D00222812D194F83E0020280ED198
:104140002068406820F40060216848600020608595
:104150002068406840F440702168486033E020687F
:10416000006820F48060216808602068006840F4DE
:104170000070216808602068406820F48050216841
:1041800048602068406820F4006021684860002092
:104190006085206C18B12046FDF7F0FC13E020206C
:1041A00084F83D0094F83E00402806D1002084F8B1
:1041B0003E002046FDF7CEFE05E0002084F83E00DC
:1041C0002046FDF79CFD70BD70B5044694F83D5047
:1041D000292D01D02A2D05D100202063282084F824
:1041E0003D0011E094F83D00602809D02068406847
:1041F00000F40060B0F5006F02D0202084F83D008C
:104200000020206384F83E002068006820F40060ED
:10421000216808602068406800F40060B0F5006F15
:1042200040D12068406820F4006021684860606BDD
:1042300090F82100012814D03D48616B4863606B01
:10424000FDF714F900285BD02068006820F0010019
:1042500021680860202084F83D00606B416B88472E
:104260004EE03348A16B4863A06BFDF7FFF80028D0
:1042700046D020684069C0F3801030B120680069E2
:10428000C1B2626A501C606211702068006820F040
:10429000010021680860202084F83D00A06B416B7C
:1042A00088472DE094F83D0060281AD1202084F83A
:1042B0003D000020206420684069C0F3801030B1C8
:1042C00020680069C1B2626A501C60621170206887
:1042D000006820F00100216808602046FDF724FBFB
:1042E0000EE020684069C0F3801030B1206800699A
:1042F000C1B2626A501C606211702046FDF73EFC3C
:1043000094F83D00282811D1206C00F00400042806
:104310000CD10848E06200202063202084F83D0092
:10432000002084F83E002046FDF7E8FC70BD000048
:10433000894000080000FFFF10B50446608D032887
:104340001AD1E06A042806D0E06A082803D0E06A9F
:1043500010F5803F05D12068006820F48060216856
:10436000086020680069C1B2626A501C6062117006
:10437000608D401E60855FE0608D022852D1E06A4A
:10438000042817D0E06A082814D0E06A10F5803FAE
:1043900010D0E06A022806D02068006820F480600F
:1043A000216808600CE02068006840F480602168A3
:1043B000086005E02068006840F40070216808602B
:1043C00020680069C1B2626A501C60621170608D21
:1043D000401E608520680069C1B2626A501C60623C
:1043E0001170608D401E60852068406820F4407028
:1043F00021684860202084F83D0094F83E00402861
:1044000007D10020206384F83E002046FDF7A2FD7E
:1044100012E012202063002084F83E002046FDF7C1
:104420006EFC09E020680069C1B2626A501C6062DB
:104430001170608D401E6085002010BD10B50446CF
:1044400094F83D00222867D1608D03280AD920689E
:104450000069C1B2626A501C60621170608D401EBA
:10446000608559E0608D022802D0608D03281CD140
:10447000E06A02280CD02068006820F4806021687F
:1044800008602068006840F400602168086005E06A
:104490002068006840F480602168086020684068F7
:1044A00020F480602168486036E0E06A022806D087
:1044B0002068006820F480602168086005E02068BA
:1044C000006840F48060216808602068406820F43B
:1044D000E0602168486020680069C1B2626A501CCF
:1044E00060621170608D401E6085202084F83D0060
:1044F00094F83E00402807D10020206384F83E0055
:104500002046FDF727FD07E012202063002084F8F5
:104510003E002046FDF7F3FB002010BD10B5044619
:1045200094F83D00212849D1608D48B1616A481C4A
:104530006062087821680861608D401E60853DE0FA
:10454000E06A042818D0E06A082815D0E06A10F55F
:10455000803F11D02068406820F4E0602168486006
:1045600011202063002084F83E00202084F83D00C4
:104570002046FDF7C5FB21E02068406820F4E0609C
:10458000216848602068006840F400702168086075
:1045900000202063202084F83D0094F83E0040284D
:1045A00006D1002084F83E002046FDF7D4FC05E04B
:1045B000002084F83E002046FDF7A2FB002010BD3D
:1045C00010B50446208D002842D194F83D002128E2
:1045D0003ED1E06A042818D0E06A082815D0E06AC5
:1045E00010F5803F11D02068406820F4E060216819
:1045F000486011202063002084F83E00202084F8C9
:104600003D002046FDF77CFB40E02068406820F438
:10461000E060216848602068006840F4007021680C
:10462000086000202063202084F83D0094F83E00BC
:10463000402806D1002084F83E002046FDF78BFC80
:1046400024E0002084F83E002046FDF759FB1DE0E1
:1046500094F83D00212807D094F83E00402815D159
:1046600094F83D00222811D1608D30B9206840684F
:1046700020F480602168486008E0616A481C60623C
:10468000087821680861608D401E6085002010BD9B
:104690000146486CC0B20A6810610020704708B536
:1046A000014691F83D00222876D1086D70B991F845
:1046B0003E0040280AD100BF0020009008684069F1
:1046C000009008688069009000BF00E1086DC0B9E3
:1046D0000869B0F5404F14D100BF00200090086871
:1046E0004069009008688069009000BF00BF0868BA
:1046F000006840F480700A681060086D401C08650E
:10470000E5E0488D88B900BF002000900868406946
:10471000009008688069009000BF00BF08680068CA
:1047200040F400700A681060C3E0488D012871D120
:10473000C86A10F5803F30D10868006820F48060B6
:104740000A6810600868406800F40060B0F5006F07
:1047500010D10868006820F480600A68106000BF0B
:104760000020009008684069009008688069009007
:1047700000BF9EE000BF00200090086840690090E4
:1047800008688069009000BF00BF0868006840F4B6
:1047900000700A6810608CE08EE0C86A042820D09F
:1047A000C86A08281DD0086B12281AD0C86A0228C7
:1047B00006D00868006820F480600A68106005E090
:1047C0000868006840F480600A68106000BF00203C
:1047D000009008684069009008688069009000BFF8
:1047E00067E00868006820F480600A68106000BF15
:1047F0000020009008684069009008688069009077
:1048000000BF00BF0868006840F400700A681060CC
:104810004FE0FFE7488D02282DD1C86A02280CD04E
:104820000868006820F480600A6810600868006802
:1048300040F400600A68106005E00868006840F411
:1048400080600A6810600868406800F40060B0F595
:10485000006F05D10868406840F480500A685060D5
:1048600000BF0020009008684069009008688069D7
:10487000009000BF1DE00868006840F480600A688E
:1048800010600868406800F40060B0F5006F05D162
:104890000868406840F480500A68506000BF0020FB
:1048A000009008684069009008688069009000BF27
:1048B00000BF002008650AE000BF002000900868E3
:1048C0004069009008688069009000BF00BF002028
:1048D00008BD014691F83E0040280ED1086D28B968
:1048E000486C00F0FE000A68106131E0486CC0B20C
:1048F00040F001000A6810612AE00869B0F5804FB5
:1049000010D191F83D00212805D1486C00F0FE003F
:104910000A6810611CE0486CC0B240F001000A68EF
:10492000106115E0086D40B9486C00F44070F02249
:1049300042EAE0100A6810610AE0086D012807D118
:10494000486C00F44070F12242EAE0100A681061FD
:104950000020704710B50024002280212A48FCF76F
:10496000D3FF0A20FCF7BAFE00BF10E02748021967
:104970000123A0212648FDF7C5F908B1FCF7F2FA9A
:1049800000BF2348FDF7FBF82028FAD1641C062C51
:10499000ECDB0120FCF7A2FE002410E01D48021908
:1049A0000123A0211A48FDF7ADF908B1FCF7DAFAA6
:1049B00000BF1748FDF7E3F82028FAD1641C042C47
:1049C000ECDB002410E0144802190123A021104858
:1049D000FDF798F908B1FCF7C5FA00BF0C48FDF7E0
:1049E000CEF82028FAD1641C052CECDB01228021B2
:1049F0000548FCF789FF062208490548FDF7E4FB56
:104A000006200749087010BD00040240A8020020DB
:104A1000282A0020AE020020B202002098020020C6
:104A2000A702002010B50024002280212648FCF7B0
:104A30006BFF0A20FCF752FE00BF10E0234802196A
:104A40000123A0212248FDF713FA08B1FCF78AFAE6
:104A500000BF1F48FDF793F82028FAD1641C062CEC
:104A6000ECDB0120FCF73AFE002410E019480219A3
:104A70000123A0211648FDF7FBF908B1FCF772FAF3
:104A800000BF1348FDF77BF82028FAD1641C042CE2
:104A9000ECDB002410E0104802190123A0210C488F
:104AA000FDF7E6F908B1FCF75DFA00BF0848FDF72D
:104AB00066F82028FAD1641C052CECDB0122802149
:104AC0000148FCF721FF10BD00040240A8020020AD
:104AD000282A0020AE020020B20200200146488DA4
:104AE00048B108680069C2B24B6A581C48621A7023
:104AF000488D401E48850020704710B50446608DE3
:104B0000E8B120680069C1B2626A501C606211702D
:104B1000608D401E6085608D88B994F83D002A281C
:104B20000DD12068406820F4806021684860222010
:104B30002063282084F83D002046FDF7BBFA0020C2
:104B400010BD0146488D40B14A6A501C4862107839
:104B50000A681061488D401E48850020704710B5D6
:104B60000446608DE0B1616A481C60620878216883
:104B70000861608D401E6085608D88B994F83D00A5
:104B800029280DD12068406820F4806021684860A1
:104B900021202063282084F83D002046FDF712FBE9
:104BA000002010BD70B504460025002620688069ED
:104BB000C0F3800000B9012520688069C0F3C010EF
:104BC00010B9A08986B201E0208B86B23246294610
:104BD0002046FCF7AAFE002070BD000010B5044678
:104BE000E06A042802D0E06A082821D194F83D0048
:104BF00028281DD12248E0622068406820F4E06047
:104C0000216848606FF4806021684861206800680E
:104C100020F480602168086000202063202084F850
:104C20003D00002084F83E002046FDF767F825E0AF
:104C300094F83D0021281DD11148E0622120206315
:104C4000202084F83D00002084F83E002068406861
:104C500020F4E060216848606FF48060216848615A
:104C60002068006820F48060216808602046FDF715
:104C7000A9FA03E06FF4806021684861002010BD4C
:104C80000000FFFF38B504462068406820F4E0606B
:104C90002168486000BF00200090206840690090B3
:104CA0002068006840F001002168086000BF00BF74
:104CB0002068006820F480602168086020684068EF
:104CC00000F40060B0F5006F10D194F83D00222888
:104CD00003D094F83D002A2804D1A06B00684068F6
:104CE000608503E0606B006840686085608D08B394
:104CF00020684069C0F3800048B120680069C1B2F3
:104D0000626A501C60621170608D401E6085206870
:104D10004069C0F3801048B120680069C1B2626A7E
:104D2000501C60621170608D401E6085206C40F0E8
:104D300004002064206C18B12046FFF745FA2BE0F0
:104D400094F83D00282807D094F83D002A2803D085
:104D500094F83D0029280DD11048E062002020631E
:104D6000202084F83D00002084F83E002046FCF717
:104D7000C5FF11E0206B222803D094F83D002228C3
:104D80000AD100202063202084F83D00002084F810
:104D90003E002046FDF78EF9002038BD0000FFFFE1
:104DA0000EB51248124908600020486000211048E2
:104DB0008160C160016141618161C1610162012164
:104DC000416281620021C16210214163002181633F
:104DD000C163FCF7D1F90C20009001200190002064
:104DE000029069460248FCF7C5F80EBD0024014058
:104DF0007428002000B58BB0142106A8FBF719FA1F
:104E000000BFC248006840F00100C0490860084681
:104E1000006800F00100009000BF00BF00BF08461E
:104E2000006840F0020008600846006800F00200D8
:104E3000009000BF00BF00BF0846006840F00400BB
:104E400008600846006800F00400009000BF00BF42
:104E500000BF0846006840F0080008600846006887
:104E600000F00800009000BF00BF00BF08460068C7
:104E700040F0080008600846006800F00800009054
:104E800000BF00BF00BF0846006840F01000086087
:104E90000846006800F01000009000BF00BF00BF8F
:104EA0000846006840F0400008600846006800F0CE
:104EB0004000009000BF00BF00BF0846006840F0FF
:104EC000800008600846006800F08000009000BF85
:104ED00000BF00BF0846006840F020000860084698
:104EE000006800F02000009000BF00BF0320079082
:104EF000002008904FF6FF70069006A98448FCF742
:104F000009FC06A98348FCF705FC06A98248FCF7C2
:104F100001FC06A98148FCF7FDFB06A98048FCF7C7
:104F2000F9FB7A48006820F00800784908600846D4
:104F3000006820F0100008600846006820F040007B
:104F400008600846006820F0800008600846006895
:104F500020F0200008600846006820F480500860B7
:104F60000846006820F00070086068480830006853
:104F700020F002006549083108600846006820F00A
:104F8000040008600846006820F008000860084631
:104F9000006820F0100008600846006820F020003B
:104FA0000860081F006820F00400091F0860084618
:104FB000006820F0080008600846006820F0100033
:104FC0000860081D006820F40070091D086008468C
:104FD000006820F4006008600846006820F4804003
:104FE00008600846006820F4004008600846006831
:104FF00020F4001008600846006820F48000086073
:105000000846006820F00040086000BF3F48006884
:1050100040F008003D4908600846006800F00800BC
:10502000009000BF00BF00BF0846006840F00400C9
:1050300008600846006800F00400009000BF00BF50
:1050400000BF0846006840F001000860084600689C
:1050500000F00100009000BF00BF00BF2B480830E7
:10506000006840F0010029490831086008460068DE
:1050700000F00100009000BF00BF00BF08460068BC
:1050800040F0020008600846006800F0020000904E
:1050900000BF00BF00BF0846006840F0080008607D
:1050A0000846006800F00800009000BF00BF00BF85
:1050B0000846006840F0010008600846006800F0FB
:1050C0000100009000BF00BF00BF0846006840F02C
:1050D000020008600846006800F00200009000BF6F
:1050E00000BF082001900F4802900120039001A901
:1050F0000D48FCF70FFB002211460920FDF74DF982
:105100000920FDF73DF90BB000BD00001C3802403E
:10511000000C02400010024000180240001C024037
:1051200000140240000021100008024010B50C4895
:105130000C4908600C48486000210A4881604FF41F
:105140008041016100214161C1610162A021C16012
:10515000FF218161FCF718FD08B1FBF703FF10BDCB
:1051600000540040282A0020A086010000B587B026
:10517000142102A8FBF75DF800BF0F48006840F05B
:1051800002000D4908600846006800F00200019026
:1051900000BF00BF802002900120039004900320F4
:1051A000059002A90548FCF7B5FA012280210348C1
:1051B000FCF7AAFB07B000BD1C3802400004024007
:1051C00000BFFEE77047000002480068C0F30220FD
:1051D000704700000CED00E010B5002807DA0A0760
:1051E000140E054A00F00F031B1FD45403E00A07F6
:1051F000130E024A135410BD18ED00E000E400E065
:105200007047000018B502460023002125480068B9
:1052100000F0F00050BB23481C30006800F08050C4
:1052200020B12148006800F4C05318E000BF1D48B9
:105230001C30006840F080501A4C1C34206020461E
:10524000006800F08050009000BF00BF1648006862
:1052500000F4C0532046006820F080502060B3F571
:10526000C05F03D1B2F5404F00D1012100BF012939
:1052700005D10E48006840F004000C4C20600B483B
:10528000006820F001000843084C206000BF204661
:10529000006800F00100884201D0012018BD002004
:1052A000FCE700000838024000700040003C02406B
:1052B00010B50248FDF7A8FF10BD00007C2A0020B1
:1052C00010B50121042000F09BF810BD08B50021A5
:1052D000042000F095F80020009002E00098401CA7
:1052E00000900098B0F5F05FF8D308BD30B587B0F6
:1052F00004460D4600BF2D48006840F001002B49D0
:1053000008600846006800F00100019000BF00BF7F
:1053100000BF0846006840F00400086008460068C6
:1053200000F00400019000BF00BF00BF0846006805
:1053300040F0020008600846006800F0020001909A
:1053400000BF00BF022D02D10120039001E0002028
:105350000390174830F814000290164850F82400C3
:105360000490154850F824000590144951F8240081
:1053700002A9FCF7CFF9012D15D10D4830F8140022
:1053800002900C4850F8240004900B4850F8240078
:1053900005900B4850F824000390084951F8240068
:1053A00002A9FCF7B7F907B030BD00001C38024075
:1053B000345001085450010840500108FC010020FD
:1053C000685001082DE9F04104460E4617461D4677
:1053D0000A49095D48B23A463146FCF7DEFF2DB96D
:1053E0000649095D48B2FCF7BDFF04E00349095DC9
:1053F00048B2FCF7C5FFBDE8F08100007850010815
:1054000070B504460D46054A32F81410044A52F8A5
:1054100024002A46FCF778FA70BD000034500108D9
:10542000FC01002010B586B0044600BF0E4800689D
:1054300040F002000C4908600846006800F00200D5
:10544000009000BF00BF094830F81400019001200F
:105450000290039003200490054951F8240001A90B
:10546000FCF758F906B010BD1C3802407C5001080A
:10547000140200203EB5044600200290019001ADC8
:1054800080208DF808008DF8094000230422114681
:105490000320FFF797FF002240212048FCF734FA51
:1054A0000020009004E0BDF80000401C80B2009095
:1054B000BDF80000FF28F6DD19480068012301AAA5
:1054C00002A900901748FEF781F8BDF804004FF6D6
:1054D000FF7101EA0020019011480068012301AA30
:1054E000511D00900F48FEF771F800BF0D4800688D
:1054F0008068C0F340000028F8D00122402107480E
:10550000FCF702FA0123042211460320FFF75AFF99
:1055100028880090BDF8001008463EBD00040240F7
:1055200010020020DC23002010B51048FDF7A0FE7B
:10553000D8B90F480D49086008210C48C161002105
:1055400081604161016181620721C1620021C16006
:1055500001624FF400718161002141624FF4827059
:10556000024948600846FDF787FE10BDDC23002095
:10557000003001402DE9FF4105460E460020039012
:1055800003AFFF20019001208DF80800FF208DF867
:1055900009000023042211460320FFF713FF002215
:1055A00040212848FCF7B0F90020009004E0BDF845
:1055B0000000401C80B20090BDF80000FF28F6DD1E
:1055C00021480068012303AA02A900901F48FDF7A3
:1055D000FDFFBDF80C004FF6FF7101EA00200390BB
:1055E00019480068012303AAD11E00901748FDF74F
:1055F000EDFF002409E0144800683219012301A9D5
:1056000000901248FDF7E2FF641CAC42F3DB00BFE0
:105610000E4800688068C0F340000028F8D00122DE
:1056200040210848FCF770F90123042211460320A9
:10563000FFF7C8FE38880090BDF80010084604B097
:10564000BDE8F0810004024010020020DC230020AD
:105650002DE9FF4105460E461746002003900DF147
:105660000C080290FF20019001208DF808008DF8B1
:1056700009500023042211460320FFF7A3FE002255
:1056800040212948FCF740F90020009004E0BDF8D3
:105690000000401C80B20090BDF80000FF28F6DD3D
:1056A00022480068012303AA02A900902048FDF7C0
:1056B0008DFFBDF80C004FF6FF7101EA002003904A
:1056C0001A480068012303AAD11E00901848FDF76C
:1056D0007DFF002409E0154800683A19012301A95B
:1056E00000901348FDF772FF641CB442F3DB00BF67
:1056F0000F4800688068C0F340000028F8D00122FD
:1057000040210948FCF700F9012304221146032037
:10571000FFF758FEB8F800000090BDF800100846EA
:1057200004B0BDE8F0810000000402401002002037
:10573000DC230020FEB505460E460020029002AF95
:1057400001908DF80400FF208DF80500002304224D
:1057500011460320FFF736FE002240212448FCF7C3
:10576000D3F80020009004E0BDF80000401C80B297
:105770000090BDF80000FF28F6DD1E4800680123F8
:1057800002AA01A900901C48FDF720FFBDF80800FF
:105790004FF6FF7101EA00200290164800680123CD
:1057A00002AAD11E00901448FDF710FF002403E068
:1057B000305D00F00FFD641CAC42F9DB00BF0E4809
:1057C00000688068C0F340000028F8D00122402122
:1057D0000748FCF799F80123042211460320FFF73C
:1057E000F1FD38880090BDF800100846FEBD0000AD
:1057F0000004024010020020DC2300202DE9FE43BB
:1058000005460E4617460020029001900DF104084F
:105810008DF808008DF8095000230422114603205A
:10582000FFF7D0FD002240212548FCF76DF800204D
:10583000009004E0BDF80000401C80B20090BDF86C
:105840000000FF28F6DD1F480068012301AA02A915
:1058500000901D48FDF7BAFEBDF804004FF6FF7139
:1058600001EA0020019017480068012301AA511D98
:1058700000901548FDF7AAFE002403E0385D00F013
:10588000A9FC641CB442F9DB00BF0F4800688068C3
:10589000C0F340000028F8D0012240210848FCF75E
:1058A00033F80123042211460320FFF78BFDB8F8DB
:1058B00000000090BDF800100846BDE8FE8300001F
:1058C0000004024010020020DC2300202DE9FC5FD0
:1058D0001B480068C0B2019019480068012801D136
:1058E00000F0E2F901F084FEA0F1140B5846FAF73B
:1058F00008FF82464FF08041FAF73DFD8146FAF7F6
:1059000072FF074600220F4BFAF773FD0546FAF7C0
:10591000ADFF04462046FAF766FF054600220A4B13
:10592000FAF774FF01D2012000E0002000900198F6
:10593000012801D100F05CF90098BDE8FC9F00004F
:10594000E403002000005EC000C05AC010B5022170
:105950000420FFF7CBFCFFF7E7FD3E4803F0B0FA69
:10596000FFF7AEFCFFF7B2FC00BF0BF09FFE044652
:1059700000BF0BF09BFE31216118401A00B20028D5
:10598000F7DB00BF70200AF0E9F9334802F016FB9C
:105990003249002003F070F9002003F01FF930486D
:1059A00001F040FB002000F079FF00F039FF0121F9
:1059B000042000F09DFE0121084600F099FE01211F
:1059C000480300F095FE0121022000F091FE002125
:1059D0004FF4007000F08CFE00214FF4006000F0E6
:1059E00087FE0121202000F083FE0121402000F0ED
:1059F0007FFE6FF0750001F03BFE002003F0B2FA6D
:105A0000012002F00DFD002001F074FE012001F0E4
:105A1000F1FE022003F0E4FA012001F06FFF002004
:105A2000104908701049087001210320FFF75EFC3F
:105A30000E4800F019FE0123002203210846FFF75B
:105A4000C1FC01200A49086000210A4809F06EFAE9
:105A5000002010BD80F0FA02F80300209A99394125
:105A600014040020343D002037040020F2030020FD
:105A7000E40300203C0400201CB54F48006800F0FF
:105A8000400010B14D48006830B14D4809F0DEF9D2
:105A900001204C4908601CBD00204A4908600120D3
:105AA0004649086001A800F03DFF00F0B9FE9DF8EE
:105AB0000400C0F3800070B161200AF04FF90020AB
:105AC000414908704149088001204149087000207F
:105AD0003A490860DFE79DF80400C0F3801040B148
